{
  "contractName": "SimpleTicket",
  "abi": [
    {
      "inputs": [
        {
          "internalType": "string",
          "name": "__theBaseURI",
          "type": "string"
        }
      ],
      "stateMutability": "nonpayable",
      "type": "constructor"
    },
    {
      "anonymous": false,
      "inputs": [
        {
          "indexed": true,
          "internalType": "address",
          "name": "owner",
          "type": "address"
        },
        {
          "indexed": true,
          "internalType": "address",
          "name": "approved",
          "type": "address"
        },
        {
          "indexed": true,
          "internalType": "uint256",
          "name": "tokenId",
          "type": "uint256"
        }
      ],
      "name": "Approval",
      "type": "event"
    },
    {
      "anonymous": false,
      "inputs": [
        {
          "indexed": true,
          "internalType": "address",
          "name": "owner",
          "type": "address"
        },
        {
          "indexed": true,
          "internalType": "address",
          "name": "operator",
          "type": "address"
        },
        {
          "indexed": false,
          "internalType": "bool",
          "name": "approved",
          "type": "bool"
        }
      ],
      "name": "ApprovalForAll",
      "type": "event"
    },
    {
      "anonymous": false,
      "inputs": [
        {
          "indexed": true,
          "internalType": "address",
          "name": "from",
          "type": "address"
        },
        {
          "indexed": true,
          "internalType": "address",
          "name": "to",
          "type": "address"
        },
        {
          "indexed": true,
          "internalType": "uint256",
          "name": "tokenId",
          "type": "uint256"
        }
      ],
      "name": "Transfer",
      "type": "event"
    },
    {
      "inputs": [
        {
          "internalType": "address",
          "name": "to",
          "type": "address"
        },
        {
          "internalType": "uint256",
          "name": "tokenId",
          "type": "uint256"
        }
      ],
      "name": "approve",
      "outputs": [],
      "stateMutability": "nonpayable",
      "type": "function"
    },
    {
      "inputs": [
        {
          "internalType": "address",
          "name": "owner",
          "type": "address"
        }
      ],
      "name": "balanceOf",
      "outputs": [
        {
          "internalType": "uint256",
          "name": "",
          "type": "uint256"
        }
      ],
      "stateMutability": "view",
      "type": "function"
    },
    {
      "inputs": [
        {
          "internalType": "uint256",
          "name": "tokenId",
          "type": "uint256"
        }
      ],
      "name": "getApproved",
      "outputs": [
        {
          "internalType": "address",
          "name": "",
          "type": "address"
        }
      ],
      "stateMutability": "view",
      "type": "function"
    },
    {
      "inputs": [],
      "name": "getTicketCount",
      "outputs": [
        {
          "internalType": "uint256",
          "name": "",
          "type": "uint256"
        }
      ],
      "stateMutability": "view",
      "type": "function"
    },
    {
      "inputs": [
        {
          "internalType": "string",
          "name": "category",
          "type": "string"
        }
      ],
      "name": "getTicketType",
      "outputs": [
        {
          "internalType": "string",
          "name": "",
          "type": "string"
        },
        {
          "internalType": "uint256",
          "name": "",
          "type": "uint256"
        },
        {
          "internalType": "uint256",
          "name": "",
          "type": "uint256"
        },
        {
          "internalType": "uint256",
          "name": "",
          "type": "uint256"
        }
      ],
      "stateMutability": "view",
      "type": "function"
    },
    {
      "inputs": [],
      "name": "getTypeNames",
      "outputs": [
        {
          "internalType": "string[]",
          "name": "",
          "type": "string[]"
        }
      ],
      "stateMutability": "view",
      "type": "function"
    },
    {
      "inputs": [
        {
          "internalType": "address",
          "name": "owner",
          "type": "address"
        },
        {
          "internalType": "address",
          "name": "operator",
          "type": "address"
        }
      ],
      "name": "isApprovedForAll",
      "outputs": [
        {
          "internalType": "bool",
          "name": "",
          "type": "bool"
        }
      ],
      "stateMutability": "view",
      "type": "function"
    },
    {
      "inputs": [],
      "name": "name",
      "outputs": [
        {
          "internalType": "string",
          "name": "",
          "type": "string"
        }
      ],
      "stateMutability": "view",
      "type": "function"
    },
    {
      "inputs": [
        {
          "internalType": "uint256",
          "name": "tokenId",
          "type": "uint256"
        }
      ],
      "name": "ownerOf",
      "outputs": [
        {
          "internalType": "address",
          "name": "",
          "type": "address"
        }
      ],
      "stateMutability": "view",
      "type": "function"
    },
    {
      "inputs": [
        {
          "internalType": "address",
          "name": "_from",
          "type": "address"
        },
        {
          "internalType": "address",
          "name": "_to",
          "type": "address"
        },
        {
          "internalType": "uint256",
          "name": "_tokenId",
          "type": "uint256"
        }
      ],
      "name": "safeTransferFrom",
      "outputs": [],
      "stateMutability": "nonpayable",
      "type": "function"
    },
    {
      "inputs": [
        {
          "internalType": "address",
          "name": "from",
          "type": "address"
        },
        {
          "internalType": "address",
          "name": "to",
          "type": "address"
        },
        {
          "internalType": "uint256",
          "name": "tokenId",
          "type": "uint256"
        },
        {
          "internalType": "bytes",
          "name": "_data",
          "type": "bytes"
        }
      ],
      "name": "safeTransferFrom",
      "outputs": [],
      "stateMutability": "nonpayable",
      "type": "function"
    },
    {
      "inputs": [
        {
          "internalType": "address",
          "name": "operator",
          "type": "address"
        },
        {
          "internalType": "bool",
          "name": "approved",
          "type": "bool"
        }
      ],
      "name": "setApprovalForAll",
      "outputs": [],
      "stateMutability": "nonpayable",
      "type": "function"
    },
    {
      "inputs": [
        {
          "internalType": "bytes4",
          "name": "interfaceId",
          "type": "bytes4"
        }
      ],
      "name": "supportsInterface",
      "outputs": [
        {
          "internalType": "bool",
          "name": "",
          "type": "bool"
        }
      ],
      "stateMutability": "view",
      "type": "function"
    },
    {
      "inputs": [],
      "name": "symbol",
      "outputs": [
        {
          "internalType": "string",
          "name": "",
          "type": "string"
        }
      ],
      "stateMutability": "view",
      "type": "function"
    },
    {
      "inputs": [
        {
          "internalType": "string",
          "name": "",
          "type": "string"
        }
      ],
      "name": "ticketTypes",
      "outputs": [
        {
          "internalType": "string",
          "name": "category",
          "type": "string"
        },
        {
          "internalType": "uint256",
          "name": "price",
          "type": "uint256"
        },
        {
          "internalType": "uint256",
          "name": "maximum",
          "type": "uint256"
        },
        {
          "internalType": "uint256",
          "name": "available",
          "type": "uint256"
        }
      ],
      "stateMutability": "view",
      "type": "function"
    },
    {
      "inputs": [
        {
          "internalType": "uint256",
          "name": "tokenId",
          "type": "uint256"
        }
      ],
      "name": "tokenURI",
      "outputs": [
        {
          "internalType": "string",
          "name": "",
          "type": "string"
        }
      ],
      "stateMutability": "view",
      "type": "function"
    },
    {
      "inputs": [
        {
          "internalType": "address",
          "name": "from",
          "type": "address"
        },
        {
          "internalType": "address",
          "name": "to",
          "type": "address"
        },
        {
          "internalType": "uint256",
          "name": "tokenId",
          "type": "uint256"
        }
      ],
      "name": "transferFrom",
      "outputs": [],
      "stateMutability": "nonpayable",
      "type": "function"
    },
    {
      "inputs": [],
      "name": "typeAmount",
      "outputs": [
        {
          "internalType": "uint256",
          "name": "",
          "type": "uint256"
        }
      ],
      "stateMutability": "view",
      "type": "function"
    },
    {
      "inputs": [
        {
          "internalType": "uint256",
          "name": "",
          "type": "uint256"
        }
      ],
      "name": "typeNames",
      "outputs": [
        {
          "internalType": "string",
          "name": "",
          "type": "string"
        }
      ],
      "stateMutability": "view",
      "type": "function"
    },
    {
      "inputs": [
        {
          "internalType": "uint256",
          "name": "_tokenId",
          "type": "uint256"
        },
        {
          "internalType": "uint256",
          "name": "_code",
          "type": "uint256"
        }
      ],
      "name": "validateQRcode",
      "outputs": [
        {
          "internalType": "bool",
          "name": "",
          "type": "bool"
        }
      ],
      "stateMutability": "view",
      "type": "function"
    },
    {
      "inputs": [
        {
          "internalType": "uint256",
          "name": "_tokenId",
          "type": "uint256"
        },
        {
          "internalType": "address",
          "name": "_newTicketHolder",
          "type": "address"
        }
      ],
      "name": "renewQRcode_",
      "outputs": [],
      "stateMutability": "nonpayable",
      "type": "function"
    },
    {
      "inputs": [
        {
          "internalType": "uint256",
          "name": "_tokenId",
          "type": "uint256"
        }
      ],
      "name": "getQRcode_",
      "outputs": [
        {
          "internalType": "string",
          "name": "",
          "type": "string"
        }
      ],
      "stateMutability": "view",
      "type": "function"
    },
    {
      "inputs": [
        {
          "internalType": "string",
          "name": "category",
          "type": "string"
        }
      ],
      "name": "mint_",
      "outputs": [
        {
          "internalType": "uint256",
          "name": "",
          "type": "uint256"
        }
      ],
      "stateMutability": "nonpayable",
      "type": "function"
    },
    {
      "inputs": [
        {
          "internalType": "string",
          "name": "category",
          "type": "string"
        },
        {
          "internalType": "uint256",
          "name": "price",
          "type": "uint256"
        },
        {
          "internalType": "uint256",
          "name": "maximum",
          "type": "uint256"
        }
      ],
      "name": "register_",
      "outputs": [],
      "stateMutability": "nonpayable",
      "type": "function"
    }
  ],
  "bytecode": "0x60806040526000600a553480156200001657600080fd5b5060405162003b7a38038062003b7a83398181016040528101906200003c919062000220565b806040518060400160405280600681526020017f5469636b657400000000000000000000000000000000000000000000000000008152506040518060400160405280600681526020017f5469636b657400000000000000000000000000000000000000000000000000008152508160009080519060200190620000c1929190620000fe565b508060019080519060200190620000da929190620000fe565b50505080600b9080519060200190620000f5929190620000fe565b50505062000396565b8280546200010c9062000302565b90600052602060002090601f0160209004810192826200013057600085556200017c565b82601f106200014b57805160ff19168380011785556200017c565b828001600101855582156200017c579182015b828111156200017b5782518255916020019190600101906200015e565b5b5090506200018b91906200018f565b5090565b5b80821115620001aa57600081600090555060010162000190565b5090565b6000620001c5620001bf8462000299565b62000265565b905082815260208101848484011115620001de57600080fd5b620001eb848285620002cc565b509392505050565b600082601f8301126200020557600080fd5b815162000217848260208601620001ae565b91505092915050565b6000602082840312156200023357600080fd5b600082015167ffffffffffffffff8111156200024e57600080fd5b6200025c84828501620001f3565b91505092915050565b6000604051905081810181811067ffffffffffffffff821117156200028f576200028e62000367565b5b8060405250919050565b600067ffffffffffffffff821115620002b757620002b662000367565b5b601f19601f8301169050602081019050919050565b60005b83811015620002ec578082015181840152602081019050620002cf565b83811115620002fc576000848401525b50505050565b600060028204905060018216806200031b57607f821691505b6020821081141562000332576200033162000338565b5b50919050565b7f4e487b7100000000000000000000000000000000000000000000000000000000600052602260045260246000fd5b7f4e487b7100000000000000000000000000000000000000000000000000000000600052604160045260246000fd5b6137d480620003a66000396000f3fe608060405234801561001057600080fd5b50600436106101585760003560e01c806388d54004116100c3578063c21d96f01161007c578063c21d96f014610405578063c87b56dd14610421578063cdd9032714610451578063da66164614610481578063e985e9c5146104b1578063f60aecd4146104e157610158565b806388d540041461032e57806395d89b41146103615780639732f1d51461037f578063a22cb465146103af578063b1b1cf48146103cb578063b88d4fde146103e957610158565b806329ea0b281161011557806329ea0b281461023157806342842e0e146102645780636352211e1461028057806370a08231146102b057806372772e45146102e05780637baec4521461031057610158565b806301ffc9a71461015d57806306fdde031461018d578063081812fc146101ab578063095ea7b3146101db57806321c63a47146101f757806323b872dd14610215575b600080fd5b61017760048036038101906101729190612471565b6104fd565b604051610184919061301b565b60405180910390f35b6101956105df565b6040516101a29190613036565b60405180910390f35b6101c560048036038101906101c0919061256b565b610671565b6040516101d29190612f92565b60405180910390f35b6101f560048036038101906101f09190612435565b6106f6565b005b6101ff61080e565b60405161020c91906132e4565b60405180910390f35b61022f600480360381019061022a919061232f565b610818565b005b61024b600480360381019061024691906124c3565b610878565b60405161025b9493929190613058565b60405180910390f35b61027e6004803603810190610279919061232f565b610946565b005b61029a6004803603810190610295919061256b565b610970565b6040516102a79190612f92565b60405180910390f35b6102ca60048036038101906102c591906122ca565b610a22565b6040516102d791906132e4565b60405180910390f35b6102fa60048036038101906102f591906125d0565b610ada565b604051610307919061301b565b60405180910390f35b610318610b0b565b60405161032591906132e4565b60405180910390f35b610348600480360381019061034391906124c3565b610b11565b6040516103589493929190613058565b60405180910390f35b610369610c3a565b6040516103769190613036565b60405180910390f35b6103996004803603810190610394919061256b565b610ccc565b6040516103a69190613036565b60405180910390f35b6103c960048036038101906103c491906123f9565b610d78565b005b6103d3610ef9565b6040516103e09190612ff9565b60405180910390f35b61040360048036038101906103fe919061237e565b610fd2565b005b61041f600480360381019061041a9190612504565b611034565b005b61043b6004803603810190610436919061256b565b611044565b6040516104489190613036565b60405180910390f35b61046b6004803603810190610466919061256b565b6110eb565b6040516104789190613036565b60405180910390f35b61049b600480360381019061049691906124c3565b6110fd565b6040516104a891906132e4565b60405180910390f35b6104cb60048036038101906104c691906122f3565b61110f565b6040516104d8919061301b565b60405180910390f35b6104fb60048036038101906104f69190612594565b6111a3565b005b60007f80ac58cd000000000000000000000000000000000000000000000000000000007bffffffffffffffffffffffffffffffffffffffffffffffffffffffff1916827bffffffffffffffffffffffffffffffffffffffffffffffffffffffff191614806105c857507f5b5e139f000000000000000000000000000000000000000000000000000000007bffffffffffffffffffffffffffffffffffffffffffffffffffffffff1916827bffffffffffffffffffffffffffffffffffffffffffffffffffffffff1916145b806105d857506105d7826111b1565b5b9050919050565b6060600080546105ee9061358e565b80601f016020809104026020016040519081016040528092919081815260200182805461061a9061358e565b80156106675780601f1061063c57610100808354040283529160200191610667565b820191906000526020600020905b81548152906001019060200180831161064a57829003601f168201915b5050505050905090565b600061067c8261121b565b6106bb576040517f08c379a00000000000000000000000000000000000000000000000000000000081526004016106b290613204565b60405180910390fd5b6004600083815260200190815260200160002060009054906101000a900473ffffffffffffffffffffffffffffffffffffffff169050919050565b600061070182610970565b90508073ffffffffffffffffffffffffffffffffffffffff168373ffffffffffffffffffffffffffffffffffffffff161415610772576040517f08c379a000000000000000000000000000000000000000000000000000000000815260040161076990613284565b60405180910390fd5b8073ffffffffffffffffffffffffffffffffffffffff16610791611287565b73ffffffffffffffffffffffffffffffffffffffff1614806107c057506107bf816107ba611287565b61110f565b5b6107ff576040517f08c379a00000000000000000000000000000000000000000000000000000000081526004016107f690613184565b60405180910390fd5b610809838361128f565b505050565b6000600a54905090565b610829610823611287565b82611348565b610868576040517f08c379a000000000000000000000000000000000000000000000000000000000815260040161085f906132a4565b60405180910390fd5b610873838383611426565b505050565b6006818051602081018201805184825260208301602085012081835280955050505050506000915090508060000180546108b19061358e565b80601f01602080910402602001604051908101604052809291908181526020018280546108dd9061358e565b801561092a5780601f106108ff5761010080835404028352916020019161092a565b820191906000526020600020905b81548152906001019060200180831161090d57829003601f168201915b5050505050908060010154908060020154908060030154905084565b6109508183611682565b61096b83838360405180602001604052806000815250610fd2565b505050565b6000806002600084815260200190815260200160002060009054906101000a900473ffffffffffffffffffffffffffffffffffffffff169050600073ffffffffffffffffffffffffffffffffffffffff168173ffffffffffffffffffffffffffffffffffffffff161415610a19576040517f08c379a0000000000000000000000000000000000000000000000000000000008152600401610a10906131c4565b60405180910390fd5b80915050919050565b60008073ffffffffffffffffffffffffffffffffffffffff168273ffffffffffffffffffffffffffffffffffffffff161415610a93576040517f08c379a0000000000000000000000000000000000000000000000000000000008152600401610a8a906131a4565b60405180910390fd5b600360008373ffffffffffffffffffffffffffffffffffffffff1673ffffffffffffffffffffffffffffffffffffffff168152602001908152602001600020549050919050565b60006009600084815260200190815260200160002054821415610b005760019050610b05565b600090505b92915050565b60085481565b60606000806000600685604051610b289190612ee0565b9081526020016040518091039020600001600686604051610b499190612ee0565b908152602001604051809103902060010154600687604051610b6b9190612ee0565b908152602001604051809103902060020154600688604051610b8d9190612ee0565b908152602001604051809103902060030154838054610bab9061358e565b80601f0160208091040260200160405190810160405280929190818152602001828054610bd79061358e565b8015610c245780601f10610bf957610100808354040283529160200191610c24565b820191906000526020600020905b815481529060010190602001808311610c0757829003601f168201915b5050505050935093509350935093509193509193565b606060018054610c499061358e565b80601f0160208091040260200160405190810160405280929190818152602001828054610c759061358e565b8015610cc25780601f10610c9757610100808354040283529160200191610cc2565b820191906000526020600020905b815481529060010190602001808311610ca557829003601f168201915b5050505050905090565b60078181548110610cdc57600080fd5b906000526020600020016000915090508054610cf79061358e565b80601f0160208091040260200160405190810160405280929190818152602001828054610d239061358e565b8015610d705780601f10610d4557610100808354040283529160200191610d70565b820191906000526020600020905b815481529060010190602001808311610d5357829003601f168201915b505050505081565b610d80611287565b73ffffffffffffffffffffffffffffffffffffffff168273ffffffffffffffffffffffffffffffffffffffff161415610dee576040517f08c379a0000000000000000000000000000000000000000000000000000000008152600401610de590613144565b60405180910390fd5b8060056000610dfb611287565b73ffffffffffffffffffffffffffffffffffffffff1673ffffffffffffffffffffffffffffffffffffffff16815260200190815260200160002060008473ffffffffffffffffffffffffffffffffffffffff1673ffffffffffffffffffffffffffffffffffffffff16815260200190815260200160002060006101000a81548160ff0219169083151502179055508173ffffffffffffffffffffffffffffffffffffffff16610ea8611287565b73ffffffffffffffffffffffffffffffffffffffff167f17307eab39ab6107e8899845ad3d59bd9653f200f220920489ca2b5937696c3183604051610eed919061301b565b60405180910390a35050565b60606007805480602002602001604051908101604052809291908181526020016000905b82821015610fc9578382906000526020600020018054610f3c9061358e565b80601f0160208091040260200160405190810160405280929190818152602001828054610f689061358e565b8015610fb55780601f10610f8a57610100808354040283529160200191610fb5565b820191906000526020600020905b815481529060010190602001808311610f9857829003601f168201915b505050505081526020019060010190610f1d565b50505050905090565b610fe3610fdd611287565b83611348565b611022576040517f08c379a0000000000000000000000000000000000000000000000000000000008152600401611019906132a4565b60405180910390fd5b61102e84848484611808565b50505050565b61103f838383611864565b505050565b606061104f8261121b565b61108e576040517f08c379a000000000000000000000000000000000000000000000000000000000815260040161108590613264565b60405180910390fd5b600061109861193c565b905060008151116110b857604051806020016040528060008152506110e3565b806110c2846119ce565b6040516020016110d3929190612ef7565b6040516020818303038152906040525b915050919050565b60606110f682611b7b565b9050919050565b600061110882611bd5565b9050919050565b6000600560008473ffffffffffffffffffffffffffffffffffffffff1673ffffffffffffffffffffffffffffffffffffffff16815260200190815260200160002060008373ffffffffffffffffffffffffffffffffffffffff1673ffffffffffffffffffffffffffffffffffffffff16815260200190815260200160002060009054906101000a900460ff16905092915050565b6111ad8282611682565b5050565b60007f01ffc9a7000000000000000000000000000000000000000000000000000000007bffffffffffffffffffffffffffffffffffffffffffffffffffffffff1916827bffffffffffffffffffffffffffffffffffffffffffffffffffffffff1916149050919050565b60008073ffffffffffffffffffffffffffffffffffffffff166002600084815260200190815260200160002060009054906101000a900473ffffffffffffffffffffffffffffffffffffffff1673ffffffffffffffffffffffffffffffffffffffff1614159050919050565b600033905090565b816004600083815260200190815260200160002060006101000a81548173ffffffffffffffffffffffffffffffffffffffff021916908373ffffffffffffffffffffffffffffffffffffffff160217905550808273ffffffffffffffffffffffffffffffffffffffff1661130283610970565b73ffffffffffffffffffffffffffffffffffffffff167f8c5be1e5ebec7d5bd14f71427d1e84f3dd0314c0f7b2291e5b200ac8c7c3b92560405160405180910390a45050565b60006113538261121b565b611392576040517f08c379a000000000000000000000000000000000000000000000000000000000815260040161138990613164565b60405180910390fd5b600061139d83610970565b90508073ffffffffffffffffffffffffffffffffffffffff168473ffffffffffffffffffffffffffffffffffffffff16148061140c57508373ffffffffffffffffffffffffffffffffffffffff166113f484610671565b73ffffffffffffffffffffffffffffffffffffffff16145b8061141d575061141c818561110f565b5b91505092915050565b8273ffffffffffffffffffffffffffffffffffffffff1661144682610970565b73ffffffffffffffffffffffffffffffffffffffff161461149c576040517f08c379a000000000000000000000000000000000000000000000000000000000815260040161149390613244565b60405180910390fd5b600073ffffffffffffffffffffffffffffffffffffffff168273ffffffffffffffffffffffffffffffffffffffff16141561150c576040517f08c379a000000000000000000000000000000000000000000000000000000000815260040161150390613124565b60405180910390fd5b611517838383611cbc565b61152260008261128f565b6001600360008573ffffffffffffffffffffffffffffffffffffffff1673ffffffffffffffffffffffffffffffffffffffff168152602001908152602001600020600082825461157291906134a4565b925050819055506001600360008473ffffffffffffffffffffffffffffffffffffffff1673ffffffffffffffffffffffffffffffffffffffff16815260200190815260200160002060008282546115c9919061341d565b92505081905550816002600083815260200190815260200160002060006101000a81548173ffffffffffffffffffffffffffffffffffffffff021916908373ffffffffffffffffffffffffffffffffffffffff160217905550808273ffffffffffffffffffffffffffffffffffffffff168473ffffffffffffffffffffffffffffffffffffffff167fddf252ad1be2c89b69c2b068fc378daa952ba7f163c4a11628f55a4df523b3ef60405160405180910390a4505050565b6000600960008481526020019081526020016000205414156116d9576040517f08c379a00000000000000000000000000000000000000000000000000000000081526004016116d090613224565b60405180910390fd5b600073ffffffffffffffffffffffffffffffffffffffff168173ffffffffffffffffffffffffffffffffffffffff161415611749576040517f08c379a0000000000000000000000000000000000000000000000000000000008152600401611740906130e4565b60405180910390fd5b61175282610970565b73ffffffffffffffffffffffffffffffffffffffff163373ffffffffffffffffffffffffffffffffffffffff16146117bf576040517f08c379a00000000000000000000000000000000000000000000000000000000081526004016117b6906130a4565b60405180910390fd5b4281836040516020016117d493929190612f55565b6040516020818303038152906040528051906020012060001c60096000848152602001908152602001600020819055505050565b611813848484611426565b61181f84848484611cc1565b61185e576040517f08c379a0000000000000000000000000000000000000000000000000000000008152600401611855906130c4565b60405180910390fd5b50505050565b6040518060800160405280848152602001838152602001828152602001828152506006846040516118959190612ee0565b908152602001604051809103902060008201518160000190805190602001906118bf9291906120ee565b5060208201518160010155604082015181600201556060820151816003015590505060078390806001815401808255809150506001900390600052602060002001600090919091909150908051906020019061191c9291906120ee565b50600160086000828254611930919061341d565b92505081905550505050565b6060600b805461194b9061358e565b80601f01602080910402602001604051908101604052809291908181526020018280546119779061358e565b80156119c45780601f10611999576101008083540402835291602001916119c4565b820191906000526020600020905b8154815290600101906020018083116119a757829003601f168201915b5050505050905090565b60606000821415611a16576040518060400160405280600181526020017f30000000000000000000000000000000000000000000000000000000000000008152509050611b76565b600082905060005b60008214611a48578080611a31906135c0565b915050600a82611a419190613473565b9150611a1e565b60008167ffffffffffffffff811115611a8a577f4e487b7100000000000000000000000000000000000000000000000000000000600052604160045260246000fd5b6040519080825280601f01601f191660200182016040528015611abc5781602001600182028036833780820191505090505b5090505b60008514611b6f57600182611ad591906134a4565b9150600a85611ae49190613637565b6030611af0919061341d565b60f81b818381518110611b2c577f4e487b7100000000000000000000000000000000000000000000000000000000600052603260045260246000fd5b60200101907effffffffffffffffffffffffffffffffffffffffffffffffffffffffffffff1916908160001a905350600a85611b689190613473565b9450611ac0565b8093505050505b919050565b60606000611b88836119ce565b90506000611ba860096000868152602001908152602001600020546119ce565b90508181604051602001611bbd929190612f1b565b60405160208183030381529060405292505050919050565b600080600683604051611be89190612ee0565b90815260200160405180910390206003015411611c3a576040517f08c379a0000000000000000000000000000000000000000000000000000000008152600401611c31906132c4565b60405180910390fd5b611c4633600a54611e58565b4233600a54604051602001611c5d93929190612f55565b6040516020818303038152906040528051906020012060001c60096000600a548152602001908152602001600020819055506001600a6000828254611ca2919061341d565b92505081905550611cb282611e76565b600a549050919050565b505050565b6000611ce28473ffffffffffffffffffffffffffffffffffffffff16611eb2565b15611e4b578373ffffffffffffffffffffffffffffffffffffffff1663150b7a02611d0b611287565b8786866040518563ffffffff1660e01b8152600401611d2d9493929190612fad565b602060405180830381600087803b158015611d4757600080fd5b505af1925050508015611d7857506040513d601f19601f82011682018060405250810190611d75919061249a565b60015b611dfb573d8060008114611da8576040519150601f19603f3d011682016040523d82523d6000602084013e611dad565b606091505b50600081511415611df3576040517f08c379a0000000000000000000000000000000000000000000000000000000008152600401611dea906130c4565b60405180910390fd5b805181602001fd5b63150b7a0260e01b7bffffffffffffffffffffffffffffffffffffffffffffffffffffffff1916817bffffffffffffffffffffffffffffffffffffffffffffffffffffffff191614915050611e50565b600190505b949350505050565b611e72828260405180602001604052806000815250611ec5565b5050565b6001600682604051611e889190612ee0565b90815260200160405180910390206003016000828254611ea891906134a4565b9250508190555050565b600080823b905060008111915050919050565b611ecf8383611f20565b611edc6000848484611cc1565b611f1b576040517f08c379a0000000000000000000000000000000000000000000000000000000008152600401611f12906130c4565b60405180910390fd5b505050565b600073ffffffffffffffffffffffffffffffffffffffff168273ffffffffffffffffffffffffffffffffffffffff161415611f90576040517f08c379a0000000000000000000000000000000000000000000000000000000008152600401611f87906131e4565b60405180910390fd5b611f998161121b565b15611fd9576040517f08c379a0000000000000000000000000000000000000000000000000000000008152600401611fd090613104565b60405180910390fd5b611fe560008383611cbc565b6001600360008473ffffffffffffffffffffffffffffffffffffffff1673ffffffffffffffffffffffffffffffffffffffff1681526020019081526020016000206000828254612035919061341d565b92505081905550816002600083815260200190815260200160002060006101000a81548173ffffffffffffffffffffffffffffffffffffffff021916908373ffffffffffffffffffffffffffffffffffffffff160217905550808273ffffffffffffffffffffffffffffffffffffffff16600073ffffffffffffffffffffffffffffffffffffffff167fddf252ad1be2c89b69c2b068fc378daa952ba7f163c4a11628f55a4df523b3ef60405160405180910390a45050565b8280546120fa9061358e565b90600052602060002090601f01602090048101928261211c5760008555612163565b82601f1061213557805160ff1916838001178555612163565b82800160010185558215612163579182015b82811115612162578251825591602001919060010190612147565b5b5090506121709190612174565b5090565b5b8082111561218d576000816000905550600101612175565b5090565b60006121a461219f84613330565b6132ff565b9050828152602081018484840111156121bc57600080fd5b6121c784828561354c565b509392505050565b60006121e26121dd84613360565b6132ff565b9050828152602081018484840111156121fa57600080fd5b61220584828561354c565b509392505050565b60008135905061221c81613742565b92915050565b60008135905061223181613759565b92915050565b60008135905061224681613770565b92915050565b60008151905061225b81613770565b92915050565b600082601f83011261227257600080fd5b8135612282848260208601612191565b91505092915050565b600082601f83011261229c57600080fd5b81356122ac8482602086016121cf565b91505092915050565b6000813590506122c481613787565b92915050565b6000602082840312156122dc57600080fd5b60006122ea8482850161220d565b91505092915050565b6000806040838503121561230657600080fd5b60006123148582860161220d565b92505060206123258582860161220d565b9150509250929050565b60008060006060848603121561234457600080fd5b60006123528682870161220d565b93505060206123638682870161220d565b9250506040612374868287016122b5565b9150509250925092565b6000806000806080858703121561239457600080fd5b60006123a28782880161220d565b94505060206123b38782880161220d565b93505060406123c4878288016122b5565b925050606085013567ffffffffffffffff8111156123e157600080fd5b6123ed87828801612261565b91505092959194509250565b6000806040838503121561240c57600080fd5b600061241a8582860161220d565b925050602061242b85828601612222565b9150509250929050565b6000806040838503121561244857600080fd5b60006124568582860161220d565b9250506020612467858286016122b5565b9150509250929050565b60006020828403121561248357600080fd5b600061249184828501612237565b91505092915050565b6000602082840312156124ac57600080fd5b60006124ba8482850161224c565b91505092915050565b6000602082840312156124d557600080fd5b600082013567ffffffffffffffff8111156124ef57600080fd5b6124fb8482850161228b565b91505092915050565b60008060006060848603121561251957600080fd5b600084013567ffffffffffffffff81111561253357600080fd5b61253f8682870161228b565b9350506020612550868287016122b5565b9250506040612561868287016122b5565b9150509250925092565b60006020828403121561257d57600080fd5b600061258b848285016122b5565b91505092915050565b600080604083850312156125a757600080fd5b60006125b5858286016122b5565b92505060206125c68582860161220d565b9150509250929050565b600080604083850312156125e357600080fd5b60006125f1858286016122b5565b9250506020612602858286016122b5565b9150509250929050565b60006126188383612703565b905092915050565b612629816134d8565b82525050565b61264061263b826134d8565b613609565b82525050565b6000612651826133a0565b61265b81856133ce565b93508360208202850161266d85613390565b8060005b858110156126a9578484038952815161268a858261260c565b9450612695836133c1565b925060208a01995050600181019050612671565b50829750879550505050505092915050565b6126c4816134ea565b82525050565b60006126d5826133ab565b6126df81856133df565b93506126ef81856020860161355b565b6126f881613724565b840191505092915050565b600061270e826133b6565b61271881856133f0565b935061272881856020860161355b565b61273181613724565b840191505092915050565b6000612747826133b6565b6127518185613401565b935061276181856020860161355b565b61276a81613724565b840191505092915050565b6000612780826133b6565b61278a8185613412565b935061279a81856020860161355b565b80840191505092915050565b60006127b3602c83613401565b91507f6d73672e73656e646572206e65656420746f206265204f776e657220746f206360008301527f68616e6765205152636f646500000000000000000000000000000000000000006020830152604082019050919050565b6000612819603283613401565b91507f4552433732313a207472616e7366657220746f206e6f6e20455243373231526560008301527f63656976657220696d706c656d656e74657200000000000000000000000000006020830152604082019050919050565b600061287f600783613412565b91507f7469636b65743a000000000000000000000000000000000000000000000000006000830152600782019050919050565b60006128bf602183613401565b91507f6e65775469636b65744f776e6572206e65656420746f206265206e6f206e756c60008301527f6c000000000000000000000000000000000000000000000000000000000000006020830152604082019050919050565b6000612925601c83613401565b91507f4552433732313a20746f6b656e20616c7265616479206d696e746564000000006000830152602082019050919050565b6000612965602483613401565b91507f4552433732313a207472616e7366657220746f20746865207a65726f2061646460008301527f72657373000000000000000000000000000000000000000000000000000000006020830152604082019050919050565b60006129cb601983613401565b91507f4552433732313a20617070726f766520746f2063616c6c6572000000000000006000830152602082019050919050565b6000612a0b602c83613401565b91507f4552433732313a206f70657261746f7220717565727920666f72206e6f6e657860008301527f697374656e7420746f6b656e00000000000000000000000000000000000000006020830152604082019050919050565b6000612a71603883613401565b91507f4552433732313a20617070726f76652063616c6c6572206973206e6f74206f7760008301527f6e6572206e6f7220617070726f76656420666f7220616c6c00000000000000006020830152604082019050919050565b6000612ad7602a83613401565b91507f4552433732313a2062616c616e636520717565727920666f7220746865207a6560008301527f726f2061646472657373000000000000000000000000000000000000000000006020830152604082019050919050565b6000612b3d602983613401565b91507f4552433732313a206f776e657220717565727920666f72206e6f6e657869737460008301527f656e7420746f6b656e00000000000000000000000000000000000000000000006020830152604082019050919050565b6000612ba3602083613401565b91507f4552433732313a206d696e7420746f20746865207a65726f20616464726573736000830152602082019050919050565b6000612be3602c83613401565b91507f4552433732313a20617070726f76656420717565727920666f72206e6f6e657860008301527f697374656e7420746f6b656e00000000000000000000000000000000000000006020830152604082019050919050565b6000612c49601383613401565b91507f746f6b656e206e65656420746f206578697374000000000000000000000000006000830152602082019050919050565b6000612c89602983613401565b91507f4552433732313a207472616e73666572206f6620746f6b656e2074686174206960008301527f73206e6f74206f776e00000000000000000000000000000000000000000000006020830152604082019050919050565b6000612cef602f83613401565b91507f4552433732314d657461646174613a2055524920717565727920666f72206e6f60008301527f6e6578697374656e7420746f6b656e00000000000000000000000000000000006020830152604082019050919050565b6000612d55602183613401565b91507f4552433732313a20617070726f76616c20746f2063757272656e74206f776e6560008301527f72000000000000000000000000000000000000000000000000000000000000006020830152604082019050919050565b6000612dbb603183613401565b91507f4552433732313a207472616e736665722063616c6c6572206973206e6f74206f60008301527f776e6572206e6f7220617070726f7665640000000000000000000000000000006020830152604082019050919050565b6000612e21602883613401565b91507f596f7572207469636b65742063617465676f7279206973206e6f74206176616960008301527f6c61626c652e2e2e0000000000000000000000000000000000000000000000006020830152604082019050919050565b6000612e87600183613412565b91507f3d000000000000000000000000000000000000000000000000000000000000006000830152600182019050919050565b612ec381613542565b82525050565b612eda612ed582613542565b61362d565b82525050565b6000612eec8284612775565b915081905092915050565b6000612f038285612775565b9150612f0f8284612775565b91508190509392505050565b6000612f2682612872565b9150612f328285612775565b9150612f3d82612e7a565b9150612f498284612775565b91508190509392505050565b6000612f618286612ec9565b602082019150612f71828561262f565b601482019150612f818284612ec9565b602082019150819050949350505050565b6000602082019050612fa76000830184612620565b92915050565b6000608082019050612fc26000830187612620565b612fcf6020830186612620565b612fdc6040830185612eba565b8181036060830152612fee81846126ca565b905095945050505050565b600060208201905081810360008301526130138184612646565b905092915050565b600060208201905061303060008301846126bb565b92915050565b60006020820190508181036000830152613050818461273c565b905092915050565b60006080820190508181036000830152613072818761273c565b90506130816020830186612eba565b61308e6040830185612eba565b61309b6060830184612eba565b95945050505050565b600060208201905081810360008301526130bd816127a6565b9050919050565b600060208201905081810360008301526130dd8161280c565b9050919050565b600060208201905081810360008301526130fd816128b2565b9050919050565b6000602082019050818103600083015261311d81612918565b9050919050565b6000602082019050818103600083015261313d81612958565b9050919050565b6000602082019050818103600083015261315d816129be565b9050919050565b6000602082019050818103600083015261317d816129fe565b9050919050565b6000602082019050818103600083015261319d81612a64565b9050919050565b600060208201905081810360008301526131bd81612aca565b9050919050565b600060208201905081810360008301526131dd81612b30565b9050919050565b600060208201905081810360008301526131fd81612b96565b9050919050565b6000602082019050818103600083015261321d81612bd6565b9050919050565b6000602082019050818103600083015261323d81612c3c565b9050919050565b6000602082019050818103600083015261325d81612c7c565b9050919050565b6000602082019050818103600083015261327d81612ce2565b9050919050565b6000602082019050818103600083015261329d81612d48565b9050919050565b600060208201905081810360008301526132bd81612dae565b9050919050565b600060208201905081810360008301526132dd81612e14565b9050919050565b60006020820190506132f96000830184612eba565b92915050565b6000604051905081810181811067ffffffffffffffff82111715613326576133256136f5565b5b8060405250919050565b600067ffffffffffffffff82111561334b5761334a6136f5565b5b601f19601f8301169050602081019050919050565b600067ffffffffffffffff82111561337b5761337a6136f5565b5b601f19601f8301169050602081019050919050565b6000819050602082019050919050565b600081519050919050565b600081519050919050565b600081519050919050565b6000602082019050919050565b600082825260208201905092915050565b600082825260208201905092915050565b600082825260208201905092915050565b600082825260208201905092915050565b600081905092915050565b600061342882613542565b915061343383613542565b9250827fffffffffffffffffffffffffffffffffffffffffffffffffffffffffffffffff0382111561346857613467613668565b5b828201905092915050565b600061347e82613542565b915061348983613542565b92508261349957613498613697565b5b828204905092915050565b60006134af82613542565b91506134ba83613542565b9250828210156134cd576134cc613668565b5b828203905092915050565b60006134e382613522565b9050919050565b60008115159050919050565b60007fffffffff0000000000000000000000000000000000000000000000000000000082169050919050565b600073ffffffffffffffffffffffffffffffffffffffff82169050919050565b6000819050919050565b82818337600083830152505050565b60005b8381101561357957808201518184015260208101905061355e565b83811115613588576000848401525b50505050565b600060028204905060018216806135a657607f821691505b602082108114156135ba576135b96136c6565b5b50919050565b60006135cb82613542565b91507fffffffffffffffffffffffffffffffffffffffffffffffffffffffffffffffff8214156135fe576135fd613668565b5b600182019050919050565b60006136148261361b565b9050919050565b600061362682613735565b9050919050565b6000819050919050565b600061364282613542565b915061364d83613542565b92508261365d5761365c613697565b5b828206905092915050565b7f4e487b7100000000000000000000000000000000000000000000000000000000600052601160045260246000fd5b7f4e487b7100000000000000000000000000000000000000000000000000000000600052601260045260246000fd5b7f4e487b7100000000000000000000000000000000000000000000000000000000600052602260045260246000fd5b7f4e487b7100000000000000000000000000000000000000000000000000000000600052604160045260246000fd5b6000601f19601f8301169050919050565b60008160601b9050919050565b61374b816134d8565b811461375657600080fd5b50565b613762816134ea565b811461376d57600080fd5b50565b613779816134f6565b811461378457600080fd5b50565b61379081613542565b811461379b57600080fd5b5056fea2646970667358221220b511b5c83d3562577e7821c321c6ac813602b6d35a752cbca3874366f1b05d9d64736f6c63430008000033",
  "immutableReferences": {},
  "source": "// SPDX-License-Identifier: MIT\npragma solidity ^0.8.0;\n\nimport \"./TicketData.sol\";\nimport \"../node_modules/@openzeppelin/contracts/token/ERC721/ERC721.sol\";\nimport \"../node_modules/@openzeppelin/contracts/utils/Strings.sol\";\n\ncontract Ticket is ERC721, TicketData {\n    using Strings for uint256;\n    // Mapping from ticket Id to ticket QR code\n    mapping(uint256 => uint256) private _tokenIdQRcodeMapping;\n\n    // Number of ticket are minted\n    uint256 private _ticketCount = 0;\n\n    // Metadata base url\n    string private _theBaseURI;\n\n    constructor(string memory __theBaseURI) ERC721(\"Ticket\", \"Ticket\") {\n        _theBaseURI = __theBaseURI;\n    }\n\n    function _baseURI() internal view override returns (string memory) {\n        return _theBaseURI;\n    }\n\n    // getter\n    function getQRcode(uint256 _tokenId) internal view returns (string memory) {\n        string memory tokenIdString = _tokenId.toString();\n        string memory _codeString = _tokenIdQRcodeMapping[_tokenId].toString();\n        return string(abi.encodePacked(\"ticket:\", tokenIdString, \"=\", _codeString));\n    }\n\n    function getTicketCount() public view returns (uint256) {\n        return _ticketCount;\n    }\n\n    /**\n     * @dev See {IERC721-safeTransferFrom}.\n     */\n    function safeTransferFrom(\n        address _from,\n        address _to,\n        uint256 _tokenId\n    ) public override {\n        renewQRcode(_tokenId, _to);\n        safeTransferFrom(_from, _to, _tokenId, \"\");\n    }\n\n    /**\n     * @dev validate QRcode with token id and QRcode\n     * Requirements:\n     *\n     * - `tokenId` must not exist.\n     * - If `to` refers to a smart contract, it must implement {IERC721Receiver-onERC721Received}, which is called upon a safe transfer.\n     *\n     */\n    function validateQRcode(uint256 _tokenId, uint256 _code)\n        external\n        view\n        returns (bool)\n    {\n        if (_code == _tokenIdQRcodeMapping[_tokenId]) {\n            return true;\n        } else {\n            return false;\n        }\n    }\n\n    /**\n     * @dev renew QRcode with token id and new address\n     * Requirements:\n     *\n     * - `tokenId` must not exist.\n     * - If `to` refers to a smart contract, it must implement {IERC721Receiver-onERC721Received}, which is called upon a safe transfer.\n     *\n     */\n\n    function renewQRcode(uint256 _tokenId, address _newTicketOwner) internal {\n        require(_tokenIdQRcodeMapping[_tokenId] != 0, \"token need to exist\");\n        require(\n            _newTicketOwner != address(0),\n            \"newTicketOwner need to be no null\"\n        );\n        require(\n            msg.sender == ownerOf(_tokenId),\n            \"msg.sender need to be Owner to change QRcode\"\n        );\n        _tokenIdQRcodeMapping[_tokenId] = uint256(\n            keccak256(\n                abi.encodePacked(block.timestamp, _newTicketOwner, _tokenId)\n            )\n        );\n    }\n\n    /**\n     * @dev mint ticket with no args\n     * Requirements:\n     *\n     * - `tokenId` must not exist.\n     * - If `to` refers to a smart contract, it must implement {IERC721Receiver-onERC721Received}, which is called upon a safe transfer.\n     *\n     */\n    function mint(string memory category) internal returns (uint256){\n        require(ticketTypes[category].available > 0,\"Your ticket category is not available...\");\n        _safeMint(msg.sender, _ticketCount);\n        // add qrcode\n        _tokenIdQRcodeMapping[_ticketCount] = uint256(\n            keccak256(\n                abi.encodePacked(block.timestamp, msg.sender, _ticketCount)\n            )\n        );\n        _ticketCount += 1;\n        decrease(category);\n        return _ticketCount;\n    }\n}\n\ncontract SimpleTicket is Ticket {\n    constructor(string memory __theBaseURI) Ticket(__theBaseURI) public{\n\n    }\n    function renewQRcode_(uint256 _tokenId, address _newTicketHolder) external {\n        renewQRcode(_tokenId, _newTicketHolder);\n    }\n\n    function getQRcode_(uint256 _tokenId)\n        external\n        view\n        returns (string memory)\n    {\n        return getQRcode(_tokenId);\n    }\n\n    function mint_(string memory category) external returns (uint256){\n        return mint(category);\n    }\n\n    function register_(string memory category, uint256 price, uint256 maximum) external{\n        register(category,  price,  maximum);\n    }\n}\n",
  "sourcePath": "/Users/yiulapsang/Desktop/workspace/blockchain/Ticket/contract/contracts/Ticket.sol",
  "compiler": {
    "name": "solc",
    "version": "0.8.0+commit.c7dfd78e.Emscripten.clang"
  },
  "schemaVersion": "3.4.1",
  "updatedAt": "2021-06-04T10:05:28.241Z",
  "devdoc": {
    "kind": "dev",
    "methods": {
      "approve(address,uint256)": {
        "details": "See {IERC721-approve}."
      },
      "balanceOf(address)": {
        "details": "See {IERC721-balanceOf}."
      },
      "getApproved(uint256)": {
        "details": "See {IERC721-getApproved}."
      },
      "isApprovedForAll(address,address)": {
        "details": "See {IERC721-isApprovedForAll}."
      },
      "name()": {
        "details": "See {IERC721Metadata-name}."
      },
      "ownerOf(uint256)": {
        "details": "See {IERC721-ownerOf}."
      },
      "safeTransferFrom(address,address,uint256)": {
        "details": "See {IERC721-safeTransferFrom}."
      },
      "safeTransferFrom(address,address,uint256,bytes)": {
        "details": "See {IERC721-safeTransferFrom}."
      },
      "setApprovalForAll(address,bool)": {
        "details": "See {IERC721-setApprovalForAll}."
      },
      "supportsInterface(bytes4)": {
        "details": "See {IERC165-supportsInterface}."
      },
      "symbol()": {
        "details": "See {IERC721Metadata-symbol}."
      },
      "tokenURI(uint256)": {
        "details": "See {IERC721Metadata-tokenURI}."
      },
      "transferFrom(address,address,uint256)": {
        "details": "See {IERC721-transferFrom}."
      },
      "validateQRcode(uint256,uint256)": {
        "details": "validate QRcode with token id and QRcode Requirements: - `tokenId` must not exist. - If `to` refers to a smart contract, it must implement {IERC721Receiver-onERC721Received}, which is called upon a safe transfer."
      }
    },
    "version": 1
  },
  "userdoc": {
    "kind": "user",
    "methods": {},
    "version": 1
  }
}