{
  "contractName": "SimpleTicket",
  "abi": [
    {
      "anonymous": false,
      "inputs": [
        {
          "indexed": true,
          "internalType": "address",
          "name": "owner",
          "type": "address"
        },
        {
          "indexed": true,
          "internalType": "address",
          "name": "approved",
          "type": "address"
        },
        {
          "indexed": true,
          "internalType": "uint256",
          "name": "tokenId",
          "type": "uint256"
        }
      ],
      "name": "Approval",
      "type": "event"
    },
    {
      "anonymous": false,
      "inputs": [
        {
          "indexed": true,
          "internalType": "address",
          "name": "owner",
          "type": "address"
        },
        {
          "indexed": true,
          "internalType": "address",
          "name": "operator",
          "type": "address"
        },
        {
          "indexed": false,
          "internalType": "bool",
          "name": "approved",
          "type": "bool"
        }
      ],
      "name": "ApprovalForAll",
      "type": "event"
    },
    {
      "anonymous": false,
      "inputs": [
        {
          "indexed": true,
          "internalType": "address",
          "name": "from",
          "type": "address"
        },
        {
          "indexed": true,
          "internalType": "address",
          "name": "to",
          "type": "address"
        },
        {
          "indexed": true,
          "internalType": "uint256",
          "name": "tokenId",
          "type": "uint256"
        }
      ],
      "name": "Transfer",
      "type": "event"
    },
    {
      "inputs": [
        {
          "internalType": "address",
          "name": "to",
          "type": "address"
        },
        {
          "internalType": "uint256",
          "name": "tokenId",
          "type": "uint256"
        }
      ],
      "name": "approve",
      "outputs": [],
      "stateMutability": "nonpayable",
      "type": "function"
    },
    {
      "inputs": [
        {
          "internalType": "address",
          "name": "owner",
          "type": "address"
        }
      ],
      "name": "balanceOf",
      "outputs": [
        {
          "internalType": "uint256",
          "name": "",
          "type": "uint256"
        }
      ],
      "stateMutability": "view",
      "type": "function",
      "constant": true
    },
    {
      "inputs": [
        {
          "internalType": "uint256",
          "name": "tokenId",
          "type": "uint256"
        }
      ],
      "name": "getApproved",
      "outputs": [
        {
          "internalType": "address",
          "name": "",
          "type": "address"
        }
      ],
      "stateMutability": "view",
      "type": "function",
      "constant": true
    },
    {
      "inputs": [],
      "name": "getTicketCount",
      "outputs": [
        {
          "internalType": "uint256",
          "name": "",
          "type": "uint256"
        }
      ],
      "stateMutability": "view",
      "type": "function",
      "constant": true
    },
    {
      "inputs": [
        {
          "internalType": "address",
          "name": "owner",
          "type": "address"
        },
        {
          "internalType": "address",
          "name": "operator",
          "type": "address"
        }
      ],
      "name": "isApprovedForAll",
      "outputs": [
        {
          "internalType": "bool",
          "name": "",
          "type": "bool"
        }
      ],
      "stateMutability": "view",
      "type": "function",
      "constant": true
    },
    {
      "inputs": [],
      "name": "name",
      "outputs": [
        {
          "internalType": "string",
          "name": "",
          "type": "string"
        }
      ],
      "stateMutability": "view",
      "type": "function",
      "constant": true
    },
    {
      "inputs": [
        {
          "internalType": "uint256",
          "name": "tokenId",
          "type": "uint256"
        }
      ],
      "name": "ownerOf",
      "outputs": [
        {
          "internalType": "address",
          "name": "",
          "type": "address"
        }
      ],
      "stateMutability": "view",
      "type": "function",
      "constant": true
    },
    {
      "inputs": [
        {
          "internalType": "address",
          "name": "_from",
          "type": "address"
        },
        {
          "internalType": "address",
          "name": "_to",
          "type": "address"
        },
        {
          "internalType": "uint256",
          "name": "_tokenId",
          "type": "uint256"
        }
      ],
      "name": "safeTransferFrom",
      "outputs": [],
      "stateMutability": "nonpayable",
      "type": "function"
    },
    {
      "inputs": [
        {
          "internalType": "address",
          "name": "from",
          "type": "address"
        },
        {
          "internalType": "address",
          "name": "to",
          "type": "address"
        },
        {
          "internalType": "uint256",
          "name": "tokenId",
          "type": "uint256"
        },
        {
          "internalType": "bytes",
          "name": "_data",
          "type": "bytes"
        }
      ],
      "name": "safeTransferFrom",
      "outputs": [],
      "stateMutability": "nonpayable",
      "type": "function"
    },
    {
      "inputs": [
        {
          "internalType": "address",
          "name": "operator",
          "type": "address"
        },
        {
          "internalType": "bool",
          "name": "approved",
          "type": "bool"
        }
      ],
      "name": "setApprovalForAll",
      "outputs": [],
      "stateMutability": "nonpayable",
      "type": "function"
    },
    {
      "inputs": [
        {
          "internalType": "bytes4",
          "name": "interfaceId",
          "type": "bytes4"
        }
      ],
      "name": "supportsInterface",
      "outputs": [
        {
          "internalType": "bool",
          "name": "",
          "type": "bool"
        }
      ],
      "stateMutability": "view",
      "type": "function",
      "constant": true
    },
    {
      "inputs": [],
      "name": "symbol",
      "outputs": [
        {
          "internalType": "string",
          "name": "",
          "type": "string"
        }
      ],
      "stateMutability": "view",
      "type": "function",
      "constant": true
    },
    {
      "inputs": [
        {
          "internalType": "uint256",
          "name": "tokenId",
          "type": "uint256"
        }
      ],
      "name": "tokenURI",
      "outputs": [
        {
          "internalType": "string",
          "name": "",
          "type": "string"
        }
      ],
      "stateMutability": "view",
      "type": "function",
      "constant": true
    },
    {
      "inputs": [
        {
          "internalType": "address",
          "name": "from",
          "type": "address"
        },
        {
          "internalType": "address",
          "name": "to",
          "type": "address"
        },
        {
          "internalType": "uint256",
          "name": "tokenId",
          "type": "uint256"
        }
      ],
      "name": "transferFrom",
      "outputs": [],
      "stateMutability": "nonpayable",
      "type": "function"
    },
    {
      "inputs": [
        {
          "internalType": "uint256",
          "name": "_tokenId",
          "type": "uint256"
        },
        {
          "internalType": "uint256",
          "name": "_code",
          "type": "uint256"
        }
      ],
      "name": "validateQRcode",
      "outputs": [
        {
          "internalType": "bool",
          "name": "",
          "type": "bool"
        }
      ],
      "stateMutability": "view",
      "type": "function",
      "constant": true
    },
    {
      "inputs": [
        {
          "internalType": "uint256",
          "name": "_tokenId",
          "type": "uint256"
        },
        {
          "internalType": "address",
          "name": "_newTicketHolder",
          "type": "address"
        }
      ],
      "name": "renewQRcode_",
      "outputs": [],
      "stateMutability": "nonpayable",
      "type": "function"
    },
    {
      "inputs": [
        {
          "internalType": "uint256",
          "name": "_tokenId",
          "type": "uint256"
        }
      ],
      "name": "getQRcode_",
      "outputs": [
        {
          "internalType": "string",
          "name": "",
          "type": "string"
        }
      ],
      "stateMutability": "view",
      "type": "function",
      "constant": true
    },
    {
      "inputs": [],
      "name": "mint_",
      "outputs": [],
      "stateMutability": "nonpayable",
      "type": "function"
    }
  ],
  "bytecode": "0x608060405260006007553480156200001657600080fd5b506040518060400160405280601d81526020017f687474703a2f2f6c6f63616c686f73743a333030302f6170692f76312f0000008152506040518060400160405280600681526020017f5469636b657400000000000000000000000000000000000000000000000000008152506040518060400160405280600681526020017f5469636b657400000000000000000000000000000000000000000000000000008152508160009080519060200190620000d19291906200010d565b508060019080519060200190620000ea9291906200010d565b5050508060089080519060200190620001059291906200010d565b505062000222565b8280546200011b90620001bd565b90600052602060002090601f0160209004810192826200013f57600085556200018b565b82601f106200015a57805160ff19168380011785556200018b565b828001600101855582156200018b579182015b828111156200018a5782518255916020019190600101906200016d565b5b5090506200019a91906200019e565b5090565b5b80821115620001b95760008160009055506001016200019f565b5090565b60006002820490506001821680620001d657607f821691505b60208210811415620001ed57620001ec620001f3565b5b50919050565b7f4e487b7100000000000000000000000000000000000000000000000000000000600052602260045260246000fd5b612d6080620002326000396000f3fe608060405234801561001057600080fd5b50600436106101165760003560e01c806372772e45116100a2578063c87b56dd11610071578063c87b56dd146102f1578063cdd9032714610321578063e985e9c514610351578063f60aecd414610381578063fea475891461039d57610116565b806372772e451461026b57806395d89b411461029b578063a22cb465146102b9578063b88d4fde146102d557610116565b806321c63a47116100e957806321c63a47146101b557806323b872dd146101d357806342842e0e146101ef5780636352211e1461020b57806370a082311461023b57610116565b806301ffc9a71461011b57806306fdde031461014b578063081812fc14610169578063095ea7b314610199575b600080fd5b61013560048036038101906101309190611cec565b6103a7565b604051610142919061268d565b60405180910390f35b610153610489565b60405161016091906126a8565b60405180910390f35b610183600480360381019061017e9190611d3e565b61051b565b6040516101909190612626565b60405180910390f35b6101b360048036038101906101ae9190611cb0565b6105a0565b005b6101bd6106b8565b6040516101ca91906128ea565b60405180910390f35b6101ed60048036038101906101e89190611baa565b6106c2565b005b61020960048036038101906102049190611baa565b610722565b005b61022560048036038101906102209190611d3e565b61074c565b6040516102329190612626565b60405180910390f35b61025560048036038101906102509190611b45565b6107fe565b60405161026291906128ea565b60405180910390f35b61028560048036038101906102809190611da3565b6108b6565b604051610292919061268d565b60405180910390f35b6102a36108e7565b6040516102b091906126a8565b60405180910390f35b6102d360048036038101906102ce9190611c74565b610979565b005b6102ef60048036038101906102ea9190611bf9565b610afa565b005b61030b60048036038101906103069190611d3e565b610b5c565b60405161031891906126a8565b60405180910390f35b61033b60048036038101906103369190611d3e565b610c03565b60405161034891906126a8565b60405180910390f35b61036b60048036038101906103669190611b6e565b610c15565b604051610378919061268d565b60405180910390f35b61039b60048036038101906103969190611d67565b610ca9565b005b6103a5610cb7565b005b60007f80ac58cd000000000000000000000000000000000000000000000000000000007bffffffffffffffffffffffffffffffffffffffffffffffffffffffff1916827bffffffffffffffffffffffffffffffffffffffffffffffffffffffff1916148061047257507f5b5e139f000000000000000000000000000000000000000000000000000000007bffffffffffffffffffffffffffffffffffffffffffffffffffffffff1916827bffffffffffffffffffffffffffffffffffffffffffffffffffffffff1916145b80610482575061048182610cc1565b5b9050919050565b60606000805461049890612b1a565b80601f01602080910402602001604051908101604052809291908181526020018280546104c490612b1a565b80156105115780601f106104e657610100808354040283529160200191610511565b820191906000526020600020905b8154815290600101906020018083116104f457829003601f168201915b5050505050905090565b600061052682610d2b565b610565576040517f08c379a000000000000000000000000000000000000000000000000000000000815260040161055c9061282a565b60405180910390fd5b6004600083815260200190815260200160002060009054906101000a900473ffffffffffffffffffffffffffffffffffffffff169050919050565b60006105ab8261074c565b90508073ffffffffffffffffffffffffffffffffffffffff168373ffffffffffffffffffffffffffffffffffffffff16141561061c576040517f08c379a0000000000000000000000000000000000000000000000000000000008152600401610613906128aa565b60405180910390fd5b8073ffffffffffffffffffffffffffffffffffffffff1661063b610d97565b73ffffffffffffffffffffffffffffffffffffffff16148061066a575061066981610664610d97565b610c15565b5b6106a9576040517f08c379a00000000000000000000000000000000000000000000000000000000081526004016106a0906127aa565b60405180910390fd5b6106b38383610d9f565b505050565b6000600754905090565b6106d36106cd610d97565b82610e58565b610712576040517f08c379a0000000000000000000000000000000000000000000000000000000008152600401610709906128ca565b60405180910390fd5b61071d838383610f36565b505050565b61072c8183611192565b61074783838360405180602001604052806000815250610afa565b505050565b6000806002600084815260200190815260200160002060009054906101000a900473ffffffffffffffffffffffffffffffffffffffff169050600073ffffffffffffffffffffffffffffffffffffffff168173ffffffffffffffffffffffffffffffffffffffff1614156107f5576040517f08c379a00000000000000000000000000000000000000000000000000000000081526004016107ec906127ea565b60405180910390fd5b80915050919050565b60008073ffffffffffffffffffffffffffffffffffffffff168273ffffffffffffffffffffffffffffffffffffffff16141561086f576040517f08c379a0000000000000000000000000000000000000000000000000000000008152600401610866906127ca565b60405180910390fd5b600360008373ffffffffffffffffffffffffffffffffffffffff1673ffffffffffffffffffffffffffffffffffffffff168152602001908152602001600020549050919050565b600060066000848152602001908152602001600020548214156108dc57600190506108e1565b600090505b92915050565b6060600180546108f690612b1a565b80601f016020809104026020016040519081016040528092919081815260200182805461092290612b1a565b801561096f5780601f106109445761010080835404028352916020019161096f565b820191906000526020600020905b81548152906001019060200180831161095257829003601f168201915b5050505050905090565b610981610d97565b73ffffffffffffffffffffffffffffffffffffffff168273ffffffffffffffffffffffffffffffffffffffff1614156109ef576040517f08c379a00000000000000000000000000000000000000000000000000000000081526004016109e69061276a565b60405180910390fd5b80600560006109fc610d97565b73ffffffffffffffffffffffffffffffffffffffff1673ffffffffffffffffffffffffffffffffffffffff16815260200190815260200160002060008473ffffffffffffffffffffffffffffffffffffffff1673ffffffffffffffffffffffffffffffffffffffff16815260200190815260200160002060006101000a81548160ff0219169083151502179055508173ffffffffffffffffffffffffffffffffffffffff16610aa9610d97565b73ffffffffffffffffffffffffffffffffffffffff167f17307eab39ab6107e8899845ad3d59bd9653f200f220920489ca2b5937696c3183604051610aee919061268d565b60405180910390a35050565b610b0b610b05610d97565b83610e58565b610b4a576040517f08c379a0000000000000000000000000000000000000000000000000000000008152600401610b41906128ca565b60405180910390fd5b610b5684848484611318565b50505050565b6060610b6782610d2b565b610ba6576040517f08c379a0000000000000000000000000000000000000000000000000000000008152600401610b9d9061288a565b60405180910390fd5b6000610bb0611374565b90506000815111610bd05760405180602001604052806000815250610bfb565b80610bda84611406565b604051602001610beb92919061258b565b6040516020818303038152906040525b915050919050565b6060610c0e826115b3565b9050919050565b6000600560008473ffffffffffffffffffffffffffffffffffffffff1673ffffffffffffffffffffffffffffffffffffffff16815260200190815260200160002060008373ffffffffffffffffffffffffffffffffffffffff1673ffffffffffffffffffffffffffffffffffffffff16815260200190815260200160002060009054906101000a900460ff16905092915050565b610cb38282611192565b5050565b610cbf61160d565b565b60007f01ffc9a7000000000000000000000000000000000000000000000000000000007bffffffffffffffffffffffffffffffffffffffffffffffffffffffff1916827bffffffffffffffffffffffffffffffffffffffffffffffffffffffff1916149050919050565b60008073ffffffffffffffffffffffffffffffffffffffff166002600084815260200190815260200160002060009054906101000a900473ffffffffffffffffffffffffffffffffffffffff1673ffffffffffffffffffffffffffffffffffffffff1614159050919050565b600033905090565b816004600083815260200190815260200160002060006101000a81548173ffffffffffffffffffffffffffffffffffffffff021916908373ffffffffffffffffffffffffffffffffffffffff160217905550808273ffffffffffffffffffffffffffffffffffffffff16610e128361074c565b73ffffffffffffffffffffffffffffffffffffffff167f8c5be1e5ebec7d5bd14f71427d1e84f3dd0314c0f7b2291e5b200ac8c7c3b92560405160405180910390a45050565b6000610e6382610d2b565b610ea2576040517f08c379a0000000000000000000000000000000000000000000000000000000008152600401610e999061278a565b60405180910390fd5b6000610ead8361074c565b90508073ffffffffffffffffffffffffffffffffffffffff168473ffffffffffffffffffffffffffffffffffffffff161480610f1c57508373ffffffffffffffffffffffffffffffffffffffff16610f048461051b565b73ffffffffffffffffffffffffffffffffffffffff16145b80610f2d5750610f2c8185610c15565b5b91505092915050565b8273ffffffffffffffffffffffffffffffffffffffff16610f568261074c565b73ffffffffffffffffffffffffffffffffffffffff1614610fac576040517f08c379a0000000000000000000000000000000000000000000000000000000008152600401610fa39061286a565b60405180910390fd5b600073ffffffffffffffffffffffffffffffffffffffff168273ffffffffffffffffffffffffffffffffffffffff16141561101c576040517f08c379a00000000000000000000000000000000000000000000000000000000081526004016110139061274a565b60405180910390fd5b61102783838361167e565b611032600082610d9f565b6001600360008573ffffffffffffffffffffffffffffffffffffffff1673ffffffffffffffffffffffffffffffffffffffff16815260200190815260200160002060008282546110829190612a30565b925050819055506001600360008473ffffffffffffffffffffffffffffffffffffffff1673ffffffffffffffffffffffffffffffffffffffff16815260200190815260200160002060008282546110d991906129a9565b92505081905550816002600083815260200190815260200160002060006101000a81548173ffffffffffffffffffffffffffffffffffffffff021916908373ffffffffffffffffffffffffffffffffffffffff160217905550808273ffffffffffffffffffffffffffffffffffffffff168473ffffffffffffffffffffffffffffffffffffffff167fddf252ad1be2c89b69c2b068fc378daa952ba7f163c4a11628f55a4df523b3ef60405160405180910390a4505050565b6000600660008481526020019081526020016000205414156111e9576040517f08c379a00000000000000000000000000000000000000000000000000000000081526004016111e09061284a565b60405180910390fd5b600073ffffffffffffffffffffffffffffffffffffffff168173ffffffffffffffffffffffffffffffffffffffff161415611259576040517f08c379a00000000000000000000000000000000000000000000000000000000081526004016112509061270a565b60405180910390fd5b6112628261074c565b73ffffffffffffffffffffffffffffffffffffffff163373ffffffffffffffffffffffffffffffffffffffff16146112cf576040517f08c379a00000000000000000000000000000000000000000000000000000000081526004016112c6906126ca565b60405180910390fd5b4281836040516020016112e4939291906125e9565b6040516020818303038152906040528051906020012060001c60066000848152602001908152602001600020819055505050565b611323848484610f36565b61132f84848484611683565b61136e576040517f08c379a0000000000000000000000000000000000000000000000000000000008152600401611365906126ea565b60405180910390fd5b50505050565b60606008805461138390612b1a565b80601f01602080910402602001604051908101604052809291908181526020018280546113af90612b1a565b80156113fc5780601f106113d1576101008083540402835291602001916113fc565b820191906000526020600020905b8154815290600101906020018083116113df57829003601f168201915b5050505050905090565b6060600082141561144e576040518060400160405280600181526020017f300000000000000000000000000000000000000000000000000000000000000081525090506115ae565b600082905060005b6000821461148057808061146990612b4c565b915050600a8261147991906129ff565b9150611456565b60008167ffffffffffffffff8111156114c2577f4e487b7100000000000000000000000000000000000000000000000000000000600052604160045260246000fd5b6040519080825280601f01601f1916602001820160405280156114f45781602001600182028036833780820191505090505b5090505b600085146115a75760018261150d9190612a30565b9150600a8561151c9190612bc3565b603061152891906129a9565b60f81b818381518110611564577f4e487b7100000000000000000000000000000000000000000000000000000000600052603260045260246000fd5b60200101907effffffffffffffffffffffffffffffffffffffffffffffffffffffffffffff1916908160001a905350600a856115a091906129ff565b94506114f8565b8093505050505b919050565b606060006115c083611406565b905060006115e06006600086815260200190815260200160002054611406565b905081816040516020016115f59291906125af565b60405160208183030381529060405292505050919050565b6116193360075461181a565b4233600754604051602001611630939291906125e9565b6040516020818303038152906040528051906020012060001c6006600060075481526020019081526020016000208190555060016007600082825461167591906129a9565b92505081905550565b505050565b60006116a48473ffffffffffffffffffffffffffffffffffffffff16611838565b1561180d578373ffffffffffffffffffffffffffffffffffffffff1663150b7a026116cd610d97565b8786866040518563ffffffff1660e01b81526004016116ef9493929190612641565b602060405180830381600087803b15801561170957600080fd5b505af192505050801561173a57506040513d601f19601f820116820180604052508101906117379190611d15565b60015b6117bd573d806000811461176a576040519150601f19603f3d011682016040523d82523d6000602084013e61176f565b606091505b506000815114156117b5576040517f08c379a00000000000000000000000000000000000000000000000000000000081526004016117ac906126ea565b60405180910390fd5b805181602001fd5b63150b7a0260e01b7bffffffffffffffffffffffffffffffffffffffffffffffffffffffff1916817bffffffffffffffffffffffffffffffffffffffffffffffffffffffff191614915050611812565b600190505b949350505050565b61183482826040518060200160405280600081525061184b565b5050565b600080823b905060008111915050919050565b61185583836118a6565b6118626000848484611683565b6118a1576040517f08c379a0000000000000000000000000000000000000000000000000000000008152600401611898906126ea565b60405180910390fd5b505050565b600073ffffffffffffffffffffffffffffffffffffffff168273ffffffffffffffffffffffffffffffffffffffff161415611916576040517f08c379a000000000000000000000000000000000000000000000000000000000815260040161190d9061280a565b60405180910390fd5b61191f81610d2b565b1561195f576040517f08c379a00000000000000000000000000000000000000000000000000000000081526004016119569061272a565b60405180910390fd5b61196b6000838361167e565b6001600360008473ffffffffffffffffffffffffffffffffffffffff1673ffffffffffffffffffffffffffffffffffffffff16815260200190815260200160002060008282546119bb91906129a9565b92505081905550816002600083815260200190815260200160002060006101000a81548173ffffffffffffffffffffffffffffffffffffffff021916908373ffffffffffffffffffffffffffffffffffffffff160217905550808273ffffffffffffffffffffffffffffffffffffffff16600073ffffffffffffffffffffffffffffffffffffffff167fddf252ad1be2c89b69c2b068fc378daa952ba7f163c4a11628f55a4df523b3ef60405160405180910390a45050565b6000611a87611a8284612936565b612905565b905082815260208101848484011115611a9f57600080fd5b611aaa848285612ad8565b509392505050565b600081359050611ac181612cce565b92915050565b600081359050611ad681612ce5565b92915050565b600081359050611aeb81612cfc565b92915050565b600081519050611b0081612cfc565b92915050565b600082601f830112611b1757600080fd5b8135611b27848260208601611a74565b91505092915050565b600081359050611b3f81612d13565b92915050565b600060208284031215611b5757600080fd5b6000611b6584828501611ab2565b91505092915050565b60008060408385031215611b8157600080fd5b6000611b8f85828601611ab2565b9250506020611ba085828601611ab2565b9150509250929050565b600080600060608486031215611bbf57600080fd5b6000611bcd86828701611ab2565b9350506020611bde86828701611ab2565b9250506040611bef86828701611b30565b9150509250925092565b60008060008060808587031215611c0f57600080fd5b6000611c1d87828801611ab2565b9450506020611c2e87828801611ab2565b9350506040611c3f87828801611b30565b925050606085013567ffffffffffffffff811115611c5c57600080fd5b611c6887828801611b06565b91505092959194509250565b60008060408385031215611c8757600080fd5b6000611c9585828601611ab2565b9250506020611ca685828601611ac7565b9150509250929050565b60008060408385031215611cc357600080fd5b6000611cd185828601611ab2565b9250506020611ce285828601611b30565b9150509250929050565b600060208284031215611cfe57600080fd5b6000611d0c84828501611adc565b91505092915050565b600060208284031215611d2757600080fd5b6000611d3584828501611af1565b91505092915050565b600060208284031215611d5057600080fd5b6000611d5e84828501611b30565b91505092915050565b60008060408385031215611d7a57600080fd5b6000611d8885828601611b30565b9250506020611d9985828601611ab2565b9150509250929050565b60008060408385031215611db657600080fd5b6000611dc485828601611b30565b9250506020611dd585828601611b30565b9150509250929050565b611de881612a64565b82525050565b611dff611dfa82612a64565b612b95565b82525050565b611e0e81612a76565b82525050565b6000611e1f82612966565b611e29818561297c565b9350611e39818560208601612ae7565b611e4281612cb0565b840191505092915050565b6000611e5882612971565b611e62818561298d565b9350611e72818560208601612ae7565b611e7b81612cb0565b840191505092915050565b6000611e9182612971565b611e9b818561299e565b9350611eab818560208601612ae7565b80840191505092915050565b6000611ec4602c8361298d565b91507f6d73672e73656e646572206e65656420746f206265204f776e657220746f206360008301527f68616e6765205152636f646500000000000000000000000000000000000000006020830152604082019050919050565b6000611f2a60328361298d565b91507f4552433732313a207472616e7366657220746f206e6f6e20455243373231526560008301527f63656976657220696d706c656d656e74657200000000000000000000000000006020830152604082019050919050565b6000611f9060078361299e565b91507f7469636b65743a000000000000000000000000000000000000000000000000006000830152600782019050919050565b6000611fd060218361298d565b91507f6e65775469636b65744f776e6572206e65656420746f206265206e6f206e756c60008301527f6c000000000000000000000000000000000000000000000000000000000000006020830152604082019050919050565b6000612036601c8361298d565b91507f4552433732313a20746f6b656e20616c7265616479206d696e746564000000006000830152602082019050919050565b600061207660248361298d565b91507f4552433732313a207472616e7366657220746f20746865207a65726f2061646460008301527f72657373000000000000000000000000000000000000000000000000000000006020830152604082019050919050565b60006120dc60198361298d565b91507f4552433732313a20617070726f766520746f2063616c6c6572000000000000006000830152602082019050919050565b600061211c602c8361298d565b91507f4552433732313a206f70657261746f7220717565727920666f72206e6f6e657860008301527f697374656e7420746f6b656e00000000000000000000000000000000000000006020830152604082019050919050565b600061218260388361298d565b91507f4552433732313a20617070726f76652063616c6c6572206973206e6f74206f7760008301527f6e6572206e6f7220617070726f76656420666f7220616c6c00000000000000006020830152604082019050919050565b60006121e8602a8361298d565b91507f4552433732313a2062616c616e636520717565727920666f7220746865207a6560008301527f726f2061646472657373000000000000000000000000000000000000000000006020830152604082019050919050565b600061224e60298361298d565b91507f4552433732313a206f776e657220717565727920666f72206e6f6e657869737460008301527f656e7420746f6b656e00000000000000000000000000000000000000000000006020830152604082019050919050565b60006122b460208361298d565b91507f4552433732313a206d696e7420746f20746865207a65726f20616464726573736000830152602082019050919050565b60006122f4602c8361298d565b91507f4552433732313a20617070726f76656420717565727920666f72206e6f6e657860008301527f697374656e7420746f6b656e00000000000000000000000000000000000000006020830152604082019050919050565b600061235a60138361298d565b91507f746f6b656e206e65656420746f206578697374000000000000000000000000006000830152602082019050919050565b600061239a60298361298d565b91507f4552433732313a207472616e73666572206f6620746f6b656e2074686174206960008301527f73206e6f74206f776e00000000000000000000000000000000000000000000006020830152604082019050919050565b6000612400602f8361298d565b91507f4552433732314d657461646174613a2055524920717565727920666f72206e6f60008301527f6e6578697374656e7420746f6b656e00000000000000000000000000000000006020830152604082019050919050565b600061246660218361298d565b91507f4552433732313a20617070726f76616c20746f2063757272656e74206f776e6560008301527f72000000000000000000000000000000000000000000000000000000000000006020830152604082019050919050565b60006124cc60318361298d565b91507f4552433732313a207472616e736665722063616c6c6572206973206e6f74206f60008301527f776e6572206e6f7220617070726f7665640000000000000000000000000000006020830152604082019050919050565b600061253260018361299e565b91507f3d000000000000000000000000000000000000000000000000000000000000006000830152600182019050919050565b61256e81612ace565b82525050565b61258561258082612ace565b612bb9565b82525050565b60006125978285611e86565b91506125a38284611e86565b91508190509392505050565b60006125ba82611f83565b91506125c68285611e86565b91506125d182612525565b91506125dd8284611e86565b91508190509392505050565b60006125f58286612574565b6020820191506126058285611dee565b6014820191506126158284612574565b602082019150819050949350505050565b600060208201905061263b6000830184611ddf565b92915050565b60006080820190506126566000830187611ddf565b6126636020830186611ddf565b6126706040830185612565565b81810360608301526126828184611e14565b905095945050505050565b60006020820190506126a26000830184611e05565b92915050565b600060208201905081810360008301526126c28184611e4d565b905092915050565b600060208201905081810360008301526126e381611eb7565b9050919050565b6000602082019050818103600083015261270381611f1d565b9050919050565b6000602082019050818103600083015261272381611fc3565b9050919050565b6000602082019050818103600083015261274381612029565b9050919050565b6000602082019050818103600083015261276381612069565b9050919050565b60006020820190508181036000830152612783816120cf565b9050919050565b600060208201905081810360008301526127a38161210f565b9050919050565b600060208201905081810360008301526127c381612175565b9050919050565b600060208201905081810360008301526127e3816121db565b9050919050565b6000602082019050818103600083015261280381612241565b9050919050565b60006020820190508181036000830152612823816122a7565b9050919050565b60006020820190508181036000830152612843816122e7565b9050919050565b600060208201905081810360008301526128638161234d565b9050919050565b600060208201905081810360008301526128838161238d565b9050919050565b600060208201905081810360008301526128a3816123f3565b9050919050565b600060208201905081810360008301526128c381612459565b9050919050565b600060208201905081810360008301526128e3816124bf565b9050919050565b60006020820190506128ff6000830184612565565b92915050565b6000604051905081810181811067ffffffffffffffff8211171561292c5761292b612c81565b5b8060405250919050565b600067ffffffffffffffff82111561295157612950612c81565b5b601f19601f8301169050602081019050919050565b600081519050919050565b600081519050919050565b600082825260208201905092915050565b600082825260208201905092915050565b600081905092915050565b60006129b482612ace565b91506129bf83612ace565b9250827fffffffffffffffffffffffffffffffffffffffffffffffffffffffffffffffff038211156129f4576129f3612bf4565b5b828201905092915050565b6000612a0a82612ace565b9150612a1583612ace565b925082612a2557612a24612c23565b5b828204905092915050565b6000612a3b82612ace565b9150612a4683612ace565b925082821015612a5957612a58612bf4565b5b828203905092915050565b6000612a6f82612aae565b9050919050565b60008115159050919050565b60007fffffffff0000000000000000000000000000000000000000000000000000000082169050919050565b600073ffffffffffffffffffffffffffffffffffffffff82169050919050565b6000819050919050565b82818337600083830152505050565b60005b83811015612b05578082015181840152602081019050612aea565b83811115612b14576000848401525b50505050565b60006002820490506001821680612b3257607f821691505b60208210811415612b4657612b45612c52565b5b50919050565b6000612b5782612ace565b91507fffffffffffffffffffffffffffffffffffffffffffffffffffffffffffffffff821415612b8a57612b89612bf4565b5b600182019050919050565b6000612ba082612ba7565b9050919050565b6000612bb282612cc1565b9050919050565b6000819050919050565b6000612bce82612ace565b9150612bd983612ace565b925082612be957612be8612c23565b5b828206905092915050565b7f4e487b7100000000000000000000000000000000000000000000000000000000600052601160045260246000fd5b7f4e487b7100000000000000000000000000000000000000000000000000000000600052601260045260246000fd5b7f4e487b7100000000000000000000000000000000000000000000000000000000600052602260045260246000fd5b7f4e487b7100000000000000000000000000000000000000000000000000000000600052604160045260246000fd5b6000601f19601f8301169050919050565b60008160601b9050919050565b612cd781612a64565b8114612ce257600080fd5b50565b612cee81612a76565b8114612cf957600080fd5b50565b612d0581612a82565b8114612d1057600080fd5b50565b612d1c81612ace565b8114612d2757600080fd5b5056fea2646970667358221220be283c2fa37f844463a2bde079c431d217ef42ab4d37e0f34baaa4309872e76e64736f6c63430008000033",
  "immutableReferences": {},
  "source": "// SPDX-License-Identifier: MIT\npragma solidity ^0.8.0;\n\nimport \"../node_modules/@openzeppelin/contracts/token/ERC721/ERC721.sol\";\nimport \"../node_modules/@openzeppelin/contracts/utils/Strings.sol\";\n\ncontract Ticket is ERC721 {\n    using Strings for uint256;\n    // Mapping from ticket Id to ticket QR code\n    mapping(uint256 => uint256) private _tokenIdQRcodeMapping;\n\n    // Number of ticket are minted\n    uint256 private _ticketCount = 0;\n\n    // Metadata base url\n    string private _theBaseURI;\n\n    constructor(string memory __theBaseURI) ERC721(\"Ticket\", \"Ticket\") {\n        _theBaseURI = __theBaseURI;\n    }\n\n    function _baseURI() internal view override returns (string memory) {\n        return _theBaseURI;\n    }\n\n    // getter\n    function getQRcode(uint256 _tokenId) internal view returns (string memory) {\n        string memory tokenIdString = _tokenId.toString();\n        string memory _codeString = _tokenIdQRcodeMapping[_tokenId].toString();\n        return string(abi.encodePacked(\"ticket:\", tokenIdString, \"=\", _codeString));\n    }\n\n    function getTicketCount() public view returns (uint256) {\n        return _ticketCount;\n    }\n\n    /**\n     * @dev See {IERC721-safeTransferFrom}.\n     */\n    function safeTransferFrom(\n        address _from,\n        address _to,\n        uint256 _tokenId\n    ) public override {\n        renewQRcode(_tokenId, _to);\n        safeTransferFrom(_from, _to, _tokenId, \"\");\n    }\n\n    /**\n     * @dev validate QRcode with token id and QRcode\n     * Requirements:\n     *\n     * - `tokenId` must not exist.\n     * - If `to` refers to a smart contract, it must implement {IERC721Receiver-onERC721Received}, which is called upon a safe transfer.\n     *\n     */\n    function validateQRcode(uint256 _tokenId, uint256 _code)\n        external\n        view\n        returns (bool)\n    {\n        if (_code == _tokenIdQRcodeMapping[_tokenId]) {\n            return true;\n        } else {\n            return false;\n        }\n    }\n\n    /**\n     * @dev renew QRcode with token id and new address\n     * Requirements:\n     *\n     * - `tokenId` must not exist.\n     * - If `to` refers to a smart contract, it must implement {IERC721Receiver-onERC721Received}, which is called upon a safe transfer.\n     *\n     */\n\n    function renewQRcode(uint256 _tokenId, address _newTicketOwner) internal {\n        require(_tokenIdQRcodeMapping[_tokenId] != 0, \"token need to exist\");\n        require(\n            _newTicketOwner != address(0),\n            \"newTicketOwner need to be no null\"\n        );\n        require(\n            msg.sender == ownerOf(_tokenId),\n            \"msg.sender need to be Owner to change QRcode\"\n        );\n        _tokenIdQRcodeMapping[_tokenId] = uint256(\n            keccak256(\n                abi.encodePacked(block.timestamp, _newTicketOwner, _tokenId)\n            )\n        );\n    }\n\n    /**\n     * @dev mint ticket with no args\n     * Requirements:\n     *\n     * - `tokenId` must not exist.\n     * - If `to` refers to a smart contract, it must implement {IERC721Receiver-onERC721Received}, which is called upon a safe transfer.\n     *\n     */\n    function mint() internal {\n        _safeMint(msg.sender, _ticketCount);\n        // add qrcode\n        _tokenIdQRcodeMapping[_ticketCount] = uint256(\n            keccak256(\n                abi.encodePacked(block.timestamp, msg.sender, _ticketCount)\n            )\n        );\n        _ticketCount += 1;\n    }\n}\n\ncontract SimpleTicket is Ticket(\"http://localhost:3000/api/v1/\") {\n    function renewQRcode_(uint256 _tokenId, address _newTicketHolder) external {\n        renewQRcode(_tokenId, _newTicketHolder);\n    }\n\n    function getQRcode_(uint256 _tokenId)\n        external\n        view\n        returns (string memory)\n    {\n        return getQRcode(_tokenId);\n    }\n\n    function mint_() external {\n        mint();\n    }\n}\n",
  "sourcePath": "/Users/yiulapsang/Desktop/workspace/blockchain/Ticket/contract/contracts/Ticket.sol",
  "compiler": {
    "name": "solc",
    "version": "0.8.0+commit.c7dfd78e.Emscripten.clang"
  },
  "schemaVersion": "3.4.1",
  "updatedAt": "2021-05-29T03:06:34.958Z",
  "networkType": "ethereum",
  "devdoc": {
    "kind": "dev",
    "methods": {
      "approve(address,uint256)": {
        "details": "See {IERC721-approve}."
      },
      "balanceOf(address)": {
        "details": "See {IERC721-balanceOf}."
      },
      "getApproved(uint256)": {
        "details": "See {IERC721-getApproved}."
      },
      "isApprovedForAll(address,address)": {
        "details": "See {IERC721-isApprovedForAll}."
      },
      "name()": {
        "details": "See {IERC721Metadata-name}."
      },
      "ownerOf(uint256)": {
        "details": "See {IERC721-ownerOf}."
      },
      "safeTransferFrom(address,address,uint256)": {
        "details": "See {IERC721-safeTransferFrom}."
      },
      "safeTransferFrom(address,address,uint256,bytes)": {
        "details": "See {IERC721-safeTransferFrom}."
      },
      "setApprovalForAll(address,bool)": {
        "details": "See {IERC721-setApprovalForAll}."
      },
      "supportsInterface(bytes4)": {
        "details": "See {IERC165-supportsInterface}."
      },
      "symbol()": {
        "details": "See {IERC721Metadata-symbol}."
      },
      "tokenURI(uint256)": {
        "details": "See {IERC721Metadata-tokenURI}."
      },
      "transferFrom(address,address,uint256)": {
        "details": "See {IERC721-transferFrom}."
      },
      "validateQRcode(uint256,uint256)": {
        "details": "validate QRcode with token id and QRcode Requirements: - `tokenId` must not exist. - If `to` refers to a smart contract, it must implement {IERC721Receiver-onERC721Received}, which is called upon a safe transfer."
      }
    },
    "version": 1
  },
  "userdoc": {
    "kind": "user",
    "methods": {},
    "version": 1
  }
}