{
  "contractName": "Ticket",
  "abi": [
    {
      "inputs": [
        {
          "internalType": "string",
          "name": "__theBaseURI",
          "type": "string"
        }
      ],
      "stateMutability": "nonpayable",
      "type": "constructor"
    },
    {
      "anonymous": false,
      "inputs": [
        {
          "indexed": true,
          "internalType": "address",
          "name": "owner",
          "type": "address"
        },
        {
          "indexed": true,
          "internalType": "address",
          "name": "approved",
          "type": "address"
        },
        {
          "indexed": true,
          "internalType": "uint256",
          "name": "tokenId",
          "type": "uint256"
        }
      ],
      "name": "Approval",
      "type": "event"
    },
    {
      "anonymous": false,
      "inputs": [
        {
          "indexed": true,
          "internalType": "address",
          "name": "owner",
          "type": "address"
        },
        {
          "indexed": true,
          "internalType": "address",
          "name": "operator",
          "type": "address"
        },
        {
          "indexed": false,
          "internalType": "bool",
          "name": "approved",
          "type": "bool"
        }
      ],
      "name": "ApprovalForAll",
      "type": "event"
    },
    {
      "anonymous": false,
      "inputs": [
        {
          "indexed": true,
          "internalType": "address",
          "name": "from",
          "type": "address"
        },
        {
          "indexed": true,
          "internalType": "address",
          "name": "to",
          "type": "address"
        },
        {
          "indexed": true,
          "internalType": "uint256",
          "name": "tokenId",
          "type": "uint256"
        }
      ],
      "name": "Transfer",
      "type": "event"
    },
    {
      "inputs": [
        {
          "internalType": "address",
          "name": "to",
          "type": "address"
        },
        {
          "internalType": "uint256",
          "name": "tokenId",
          "type": "uint256"
        }
      ],
      "name": "approve",
      "outputs": [],
      "stateMutability": "nonpayable",
      "type": "function"
    },
    {
      "inputs": [
        {
          "internalType": "address",
          "name": "owner",
          "type": "address"
        }
      ],
      "name": "balanceOf",
      "outputs": [
        {
          "internalType": "uint256",
          "name": "",
          "type": "uint256"
        }
      ],
      "stateMutability": "view",
      "type": "function"
    },
    {
      "inputs": [
        {
          "internalType": "uint256",
          "name": "tokenId",
          "type": "uint256"
        }
      ],
      "name": "getApproved",
      "outputs": [
        {
          "internalType": "address",
          "name": "",
          "type": "address"
        }
      ],
      "stateMutability": "view",
      "type": "function"
    },
    {
      "inputs": [
        {
          "internalType": "address",
          "name": "owner",
          "type": "address"
        },
        {
          "internalType": "address",
          "name": "operator",
          "type": "address"
        }
      ],
      "name": "isApprovedForAll",
      "outputs": [
        {
          "internalType": "bool",
          "name": "",
          "type": "bool"
        }
      ],
      "stateMutability": "view",
      "type": "function"
    },
    {
      "inputs": [],
      "name": "name",
      "outputs": [
        {
          "internalType": "string",
          "name": "",
          "type": "string"
        }
      ],
      "stateMutability": "view",
      "type": "function"
    },
    {
      "inputs": [
        {
          "internalType": "uint256",
          "name": "tokenId",
          "type": "uint256"
        }
      ],
      "name": "ownerOf",
      "outputs": [
        {
          "internalType": "address",
          "name": "",
          "type": "address"
        }
      ],
      "stateMutability": "view",
      "type": "function"
    },
    {
      "inputs": [
        {
          "internalType": "address",
          "name": "operator",
          "type": "address"
        },
        {
          "internalType": "bool",
          "name": "approved",
          "type": "bool"
        }
      ],
      "name": "setApprovalForAll",
      "outputs": [],
      "stateMutability": "nonpayable",
      "type": "function"
    },
    {
      "inputs": [
        {
          "internalType": "bytes4",
          "name": "interfaceId",
          "type": "bytes4"
        }
      ],
      "name": "supportsInterface",
      "outputs": [
        {
          "internalType": "bool",
          "name": "",
          "type": "bool"
        }
      ],
      "stateMutability": "view",
      "type": "function"
    },
    {
      "inputs": [],
      "name": "symbol",
      "outputs": [
        {
          "internalType": "string",
          "name": "",
          "type": "string"
        }
      ],
      "stateMutability": "view",
      "type": "function"
    },
    {
      "inputs": [
        {
          "internalType": "uint256",
          "name": "tokenId",
          "type": "uint256"
        }
      ],
      "name": "tokenURI",
      "outputs": [
        {
          "internalType": "string",
          "name": "",
          "type": "string"
        }
      ],
      "stateMutability": "view",
      "type": "function"
    },
    {
      "inputs": [
        {
          "internalType": "address",
          "name": "from",
          "type": "address"
        },
        {
          "internalType": "address",
          "name": "to",
          "type": "address"
        },
        {
          "internalType": "uint256",
          "name": "tokenId",
          "type": "uint256"
        }
      ],
      "name": "transferFrom",
      "outputs": [],
      "stateMutability": "nonpayable",
      "type": "function"
    },
    {
      "inputs": [],
      "name": "getTicketCount",
      "outputs": [
        {
          "internalType": "uint256",
          "name": "",
          "type": "uint256"
        }
      ],
      "stateMutability": "view",
      "type": "function"
    },
    {
      "inputs": [
        {
          "internalType": "address",
          "name": "_from",
          "type": "address"
        },
        {
          "internalType": "address",
          "name": "_to",
          "type": "address"
        },
        {
          "internalType": "uint256",
          "name": "_tokenId",
          "type": "uint256"
        }
      ],
      "name": "safeTransferFrom",
      "outputs": [],
      "stateMutability": "nonpayable",
      "type": "function"
    },
    {
      "inputs": [
        {
          "internalType": "address",
          "name": "from",
          "type": "address"
        },
        {
          "internalType": "address",
          "name": "to",
          "type": "address"
        },
        {
          "internalType": "uint256",
          "name": "tokenId",
          "type": "uint256"
        },
        {
          "internalType": "bytes",
          "name": "_data",
          "type": "bytes"
        }
      ],
      "name": "safeTransferFrom",
      "outputs": [],
      "stateMutability": "nonpayable",
      "type": "function"
    },
    {
      "inputs": [
        {
          "internalType": "uint256",
          "name": "_tokenId",
          "type": "uint256"
        },
        {
          "internalType": "uint256",
          "name": "_code",
          "type": "uint256"
        }
      ],
      "name": "validateQRcode",
      "outputs": [
        {
          "internalType": "bool",
          "name": "",
          "type": "bool"
        }
      ],
      "stateMutability": "view",
      "type": "function"
    }
  ],
  "bytecode": "0x608060405260006007553480156200001657600080fd5b5060405162002b9b38038062002b9b83398181016040528101906200003c91906200021e565b6040518060400160405280600681526020017f5469636b657400000000000000000000000000000000000000000000000000008152506040518060400160405280600681526020017f5469636b657400000000000000000000000000000000000000000000000000008152508160009080519060200190620000c0929190620000fc565b508060019080519060200190620000d9929190620000fc565b5050508060089080519060200190620000f4929190620000fc565b505062000394565b8280546200010a9062000300565b90600052602060002090601f0160209004810192826200012e57600085556200017a565b82601f106200014957805160ff19168380011785556200017a565b828001600101855582156200017a579182015b82811115620001795782518255916020019190600101906200015c565b5b5090506200018991906200018d565b5090565b5b80821115620001a85760008160009055506001016200018e565b5090565b6000620001c3620001bd8462000297565b62000263565b905082815260208101848484011115620001dc57600080fd5b620001e9848285620002ca565b509392505050565b600082601f8301126200020357600080fd5b815162000215848260208601620001ac565b91505092915050565b6000602082840312156200023157600080fd5b600082015167ffffffffffffffff8111156200024c57600080fd5b6200025a84828501620001f1565b91505092915050565b6000604051905081810181811067ffffffffffffffff821117156200028d576200028c62000365565b5b8060405250919050565b600067ffffffffffffffff821115620002b557620002b462000365565b5b601f19601f8301169050602081019050919050565b60005b83811015620002ea578082015181840152602081019050620002cd565b83811115620002fa576000848401525b50505050565b600060028204905060018216806200031957607f821691505b6020821081141562000330576200032f62000336565b5b50919050565b7f4e487b7100000000000000000000000000000000000000000000000000000000600052602260045260246000fd5b7f4e487b7100000000000000000000000000000000000000000000000000000000600052604160045260246000fd5b6127f780620003a46000396000f3fe608060405234801561001057600080fd5b50600436106100f55760003560e01c80636352211e11610097578063a22cb46511610066578063a22cb46514610298578063b88d4fde146102b4578063c87b56dd146102d0578063e985e9c514610300576100f5565b80636352211e146101ea57806370a082311461021a57806372772e451461024a57806395d89b411461027a576100f5565b8063095ea7b3116100d3578063095ea7b31461017857806321c63a471461019457806323b872dd146101b257806342842e0e146101ce576100f5565b806301ffc9a7146100fa57806306fdde031461012a578063081812fc14610148575b600080fd5b610114600480360381019061010f9190611939565b610330565b6040516101219190612164565b60405180910390f35b610132610412565b60405161013f919061217f565b60405180910390f35b610162600480360381019061015d919061198b565b6104a4565b60405161016f91906120fd565b60405180910390f35b610192600480360381019061018d91906118fd565b610529565b005b61019c610641565b6040516101a99190612381565b60405180910390f35b6101cc60048036038101906101c791906117f7565b61064b565b005b6101e860048036038101906101e391906117f7565b6106ab565b005b61020460048036038101906101ff919061198b565b6106d5565b60405161021191906120fd565b60405180910390f35b610234600480360381019061022f9190611792565b610787565b6040516102419190612381565b60405180910390f35b610264600480360381019061025f91906119b4565b61083f565b6040516102719190612164565b60405180910390f35b610282610870565b60405161028f919061217f565b60405180910390f35b6102b260048036038101906102ad91906118c1565b610902565b005b6102ce60048036038101906102c99190611846565b610a83565b005b6102ea60048036038101906102e5919061198b565b610ae5565b6040516102f7919061217f565b60405180910390f35b61031a600480360381019061031591906117bb565b610b8c565b6040516103279190612164565b60405180910390f35b60007f80ac58cd000000000000000000000000000000000000000000000000000000007bffffffffffffffffffffffffffffffffffffffffffffffffffffffff1916827bffffffffffffffffffffffffffffffffffffffffffffffffffffffff191614806103fb57507f5b5e139f000000000000000000000000000000000000000000000000000000007bffffffffffffffffffffffffffffffffffffffffffffffffffffffff1916827bffffffffffffffffffffffffffffffffffffffffffffffffffffffff1916145b8061040b575061040a82610c20565b5b9050919050565b606060008054610421906125b1565b80601f016020809104026020016040519081016040528092919081815260200182805461044d906125b1565b801561049a5780601f1061046f5761010080835404028352916020019161049a565b820191906000526020600020905b81548152906001019060200180831161047d57829003601f168201915b5050505050905090565b60006104af82610c8a565b6104ee576040517f08c379a00000000000000000000000000000000000000000000000000000000081526004016104e5906122c1565b60405180910390fd5b6004600083815260200190815260200160002060009054906101000a900473ffffffffffffffffffffffffffffffffffffffff169050919050565b6000610534826106d5565b90508073ffffffffffffffffffffffffffffffffffffffff168373ffffffffffffffffffffffffffffffffffffffff1614156105a5576040517f08c379a000000000000000000000000000000000000000000000000000000000815260040161059c90612341565b60405180910390fd5b8073ffffffffffffffffffffffffffffffffffffffff166105c4610cf6565b73ffffffffffffffffffffffffffffffffffffffff1614806105f357506105f2816105ed610cf6565b610b8c565b5b610632576040517f08c379a000000000000000000000000000000000000000000000000000000000815260040161062990612261565b60405180910390fd5b61063c8383610cfe565b505050565b6000600754905090565b61065c610656610cf6565b82610db7565b61069b576040517f08c379a000000000000000000000000000000000000000000000000000000000815260040161069290612361565b60405180910390fd5b6106a6838383610e95565b505050565b6106b581836110f1565b6106d083838360405180602001604052806000815250610a83565b505050565b6000806002600084815260200190815260200160002060009054906101000a900473ffffffffffffffffffffffffffffffffffffffff169050600073ffffffffffffffffffffffffffffffffffffffff168173ffffffffffffffffffffffffffffffffffffffff16141561077e576040517f08c379a0000000000000000000000000000000000000000000000000000000008152600401610775906122a1565b60405180910390fd5b80915050919050565b60008073ffffffffffffffffffffffffffffffffffffffff168273ffffffffffffffffffffffffffffffffffffffff1614156107f8576040517f08c379a00000000000000000000000000000000000000000000000000000000081526004016107ef90612281565b60405180910390fd5b600360008373ffffffffffffffffffffffffffffffffffffffff1673ffffffffffffffffffffffffffffffffffffffff168152602001908152602001600020549050919050565b60006006600084815260200190815260200160002054821415610865576001905061086a565b600090505b92915050565b60606001805461087f906125b1565b80601f01602080910402602001604051908101604052809291908181526020018280546108ab906125b1565b80156108f85780601f106108cd576101008083540402835291602001916108f8565b820191906000526020600020905b8154815290600101906020018083116108db57829003601f168201915b5050505050905090565b61090a610cf6565b73ffffffffffffffffffffffffffffffffffffffff168273ffffffffffffffffffffffffffffffffffffffff161415610978576040517f08c379a000000000000000000000000000000000000000000000000000000000815260040161096f90612221565b60405180910390fd5b8060056000610985610cf6565b73ffffffffffffffffffffffffffffffffffffffff1673ffffffffffffffffffffffffffffffffffffffff16815260200190815260200160002060008473ffffffffffffffffffffffffffffffffffffffff1673ffffffffffffffffffffffffffffffffffffffff16815260200190815260200160002060006101000a81548160ff0219169083151502179055508173ffffffffffffffffffffffffffffffffffffffff16610a32610cf6565b73ffffffffffffffffffffffffffffffffffffffff167f17307eab39ab6107e8899845ad3d59bd9653f200f220920489ca2b5937696c3183604051610a779190612164565b60405180910390a35050565b610a94610a8e610cf6565b83610db7565b610ad3576040517f08c379a0000000000000000000000000000000000000000000000000000000008152600401610aca90612361565b60405180910390fd5b610adf84848484611277565b50505050565b6060610af082610c8a565b610b2f576040517f08c379a0000000000000000000000000000000000000000000000000000000008152600401610b2690612321565b60405180910390fd5b6000610b396112d3565b90506000815111610b595760405180602001604052806000815250610b84565b80610b6384611365565b604051602001610b7492919061209c565b6040516020818303038152906040525b915050919050565b6000600560008473ffffffffffffffffffffffffffffffffffffffff1673ffffffffffffffffffffffffffffffffffffffff16815260200190815260200160002060008373ffffffffffffffffffffffffffffffffffffffff1673ffffffffffffffffffffffffffffffffffffffff16815260200190815260200160002060009054906101000a900460ff16905092915050565b60007f01ffc9a7000000000000000000000000000000000000000000000000000000007bffffffffffffffffffffffffffffffffffffffffffffffffffffffff1916827bffffffffffffffffffffffffffffffffffffffffffffffffffffffff1916149050919050565b60008073ffffffffffffffffffffffffffffffffffffffff166002600084815260200190815260200160002060009054906101000a900473ffffffffffffffffffffffffffffffffffffffff1673ffffffffffffffffffffffffffffffffffffffff1614159050919050565b600033905090565b816004600083815260200190815260200160002060006101000a81548173ffffffffffffffffffffffffffffffffffffffff021916908373ffffffffffffffffffffffffffffffffffffffff160217905550808273ffffffffffffffffffffffffffffffffffffffff16610d71836106d5565b73ffffffffffffffffffffffffffffffffffffffff167f8c5be1e5ebec7d5bd14f71427d1e84f3dd0314c0f7b2291e5b200ac8c7c3b92560405160405180910390a45050565b6000610dc282610c8a565b610e01576040517f08c379a0000000000000000000000000000000000000000000000000000000008152600401610df890612241565b60405180910390fd5b6000610e0c836106d5565b90508073ffffffffffffffffffffffffffffffffffffffff168473ffffffffffffffffffffffffffffffffffffffff161480610e7b57508373ffffffffffffffffffffffffffffffffffffffff16610e63846104a4565b73ffffffffffffffffffffffffffffffffffffffff16145b80610e8c5750610e8b8185610b8c565b5b91505092915050565b8273ffffffffffffffffffffffffffffffffffffffff16610eb5826106d5565b73ffffffffffffffffffffffffffffffffffffffff1614610f0b576040517f08c379a0000000000000000000000000000000000000000000000000000000008152600401610f0290612301565b60405180910390fd5b600073ffffffffffffffffffffffffffffffffffffffff168273ffffffffffffffffffffffffffffffffffffffff161415610f7b576040517f08c379a0000000000000000000000000000000000000000000000000000000008152600401610f7290612201565b60405180910390fd5b610f86838383611512565b610f91600082610cfe565b6001600360008573ffffffffffffffffffffffffffffffffffffffff1673ffffffffffffffffffffffffffffffffffffffff1681526020019081526020016000206000828254610fe191906124c7565b925050819055506001600360008473ffffffffffffffffffffffffffffffffffffffff1673ffffffffffffffffffffffffffffffffffffffff16815260200190815260200160002060008282546110389190612440565b92505081905550816002600083815260200190815260200160002060006101000a81548173ffffffffffffffffffffffffffffffffffffffff021916908373ffffffffffffffffffffffffffffffffffffffff160217905550808273ffffffffffffffffffffffffffffffffffffffff168473ffffffffffffffffffffffffffffffffffffffff167fddf252ad1be2c89b69c2b068fc378daa952ba7f163c4a11628f55a4df523b3ef60405160405180910390a4505050565b600060066000848152602001908152602001600020541415611148576040517f08c379a000000000000000000000000000000000000000000000000000000000815260040161113f906122e1565b60405180910390fd5b600073ffffffffffffffffffffffffffffffffffffffff168173ffffffffffffffffffffffffffffffffffffffff1614156111b8576040517f08c379a00000000000000000000000000000000000000000000000000000000081526004016111af906121e1565b60405180910390fd5b6111c1826106d5565b73ffffffffffffffffffffffffffffffffffffffff163373ffffffffffffffffffffffffffffffffffffffff161461122e576040517f08c379a0000000000000000000000000000000000000000000000000000000008152600401611225906121a1565b60405180910390fd5b428183604051602001611243939291906120c0565b6040516020818303038152906040528051906020012060001c60066000848152602001908152602001600020819055505050565b611282848484610e95565b61128e84848484611517565b6112cd576040517f08c379a00000000000000000000000000000000000000000000000000000000081526004016112c4906121c1565b60405180910390fd5b50505050565b6060600880546112e2906125b1565b80601f016020809104026020016040519081016040528092919081815260200182805461130e906125b1565b801561135b5780601f106113305761010080835404028352916020019161135b565b820191906000526020600020905b81548152906001019060200180831161133e57829003601f168201915b5050505050905090565b606060008214156113ad576040518060400160405280600181526020017f3000000000000000000000000000000000000000000000000000000000000000815250905061150d565b600082905060005b600082146113df5780806113c8906125e3565b915050600a826113d89190612496565b91506113b5565b60008167ffffffffffffffff811115611421577f4e487b7100000000000000000000000000000000000000000000000000000000600052604160045260246000fd5b6040519080825280601f01601f1916602001820160405280156114535781602001600182028036833780820191505090505b5090505b600085146115065760018261146c91906124c7565b9150600a8561147b919061265a565b60306114879190612440565b60f81b8183815181106114c3577f4e487b7100000000000000000000000000000000000000000000000000000000600052603260045260246000fd5b60200101907effffffffffffffffffffffffffffffffffffffffffffffffffffffffffffff1916908160001a905350600a856114ff9190612496565b9450611457565b8093505050505b919050565b505050565b60006115388473ffffffffffffffffffffffffffffffffffffffff166116ae565b156116a1578373ffffffffffffffffffffffffffffffffffffffff1663150b7a02611561610cf6565b8786866040518563ffffffff1660e01b81526004016115839493929190612118565b602060405180830381600087803b15801561159d57600080fd5b505af19250505080156115ce57506040513d601f19601f820116820180604052508101906115cb9190611962565b60015b611651573d80600081146115fe576040519150601f19603f3d011682016040523d82523d6000602084013e611603565b606091505b50600081511415611649576040517f08c379a0000000000000000000000000000000000000000000000000000000008152600401611640906121c1565b60405180910390fd5b805181602001fd5b63150b7a0260e01b7bffffffffffffffffffffffffffffffffffffffffffffffffffffffff1916817bffffffffffffffffffffffffffffffffffffffffffffffffffffffff1916149150506116a6565b600190505b949350505050565b600080823b905060008111915050919050565b60006116d46116cf846123cd565b61239c565b9050828152602081018484840111156116ec57600080fd5b6116f784828561256f565b509392505050565b60008135905061170e81612765565b92915050565b6000813590506117238161277c565b92915050565b60008135905061173881612793565b92915050565b60008151905061174d81612793565b92915050565b600082601f83011261176457600080fd5b81356117748482602086016116c1565b91505092915050565b60008135905061178c816127aa565b92915050565b6000602082840312156117a457600080fd5b60006117b2848285016116ff565b91505092915050565b600080604083850312156117ce57600080fd5b60006117dc858286016116ff565b92505060206117ed858286016116ff565b9150509250929050565b60008060006060848603121561180c57600080fd5b600061181a868287016116ff565b935050602061182b868287016116ff565b925050604061183c8682870161177d565b9150509250925092565b6000806000806080858703121561185c57600080fd5b600061186a878288016116ff565b945050602061187b878288016116ff565b935050604061188c8782880161177d565b925050606085013567ffffffffffffffff8111156118a957600080fd5b6118b587828801611753565b91505092959194509250565b600080604083850312156118d457600080fd5b60006118e2858286016116ff565b92505060206118f385828601611714565b9150509250929050565b6000806040838503121561191057600080fd5b600061191e858286016116ff565b925050602061192f8582860161177d565b9150509250929050565b60006020828403121561194b57600080fd5b600061195984828501611729565b91505092915050565b60006020828403121561197457600080fd5b60006119828482850161173e565b91505092915050565b60006020828403121561199d57600080fd5b60006119ab8482850161177d565b91505092915050565b600080604083850312156119c757600080fd5b60006119d58582860161177d565b92505060206119e68582860161177d565b9150509250929050565b6119f9816124fb565b82525050565b611a10611a0b826124fb565b61262c565b82525050565b611a1f8161250d565b82525050565b6000611a30826123fd565b611a3a8185612413565b9350611a4a81856020860161257e565b611a5381612747565b840191505092915050565b6000611a6982612408565b611a738185612424565b9350611a8381856020860161257e565b611a8c81612747565b840191505092915050565b6000611aa282612408565b611aac8185612435565b9350611abc81856020860161257e565b80840191505092915050565b6000611ad5602c83612424565b91507f6d73672e73656e646572206e65656420746f206265204f776e657220746f206360008301527f68616e6765205152636f646500000000000000000000000000000000000000006020830152604082019050919050565b6000611b3b603283612424565b91507f4552433732313a207472616e7366657220746f206e6f6e20455243373231526560008301527f63656976657220696d706c656d656e74657200000000000000000000000000006020830152604082019050919050565b6000611ba1602183612424565b91507f6e65775469636b65744f776e6572206e65656420746f206265206e6f206e756c60008301527f6c000000000000000000000000000000000000000000000000000000000000006020830152604082019050919050565b6000611c07602483612424565b91507f4552433732313a207472616e7366657220746f20746865207a65726f2061646460008301527f72657373000000000000000000000000000000000000000000000000000000006020830152604082019050919050565b6000611c6d601983612424565b91507f4552433732313a20617070726f766520746f2063616c6c6572000000000000006000830152602082019050919050565b6000611cad602c83612424565b91507f4552433732313a206f70657261746f7220717565727920666f72206e6f6e657860008301527f697374656e7420746f6b656e00000000000000000000000000000000000000006020830152604082019050919050565b6000611d13603883612424565b91507f4552433732313a20617070726f76652063616c6c6572206973206e6f74206f7760008301527f6e6572206e6f7220617070726f76656420666f7220616c6c00000000000000006020830152604082019050919050565b6000611d79602a83612424565b91507f4552433732313a2062616c616e636520717565727920666f7220746865207a6560008301527f726f2061646472657373000000000000000000000000000000000000000000006020830152604082019050919050565b6000611ddf602983612424565b91507f4552433732313a206f776e657220717565727920666f72206e6f6e657869737460008301527f656e7420746f6b656e00000000000000000000000000000000000000000000006020830152604082019050919050565b6000611e45602c83612424565b91507f4552433732313a20617070726f76656420717565727920666f72206e6f6e657860008301527f697374656e7420746f6b656e00000000000000000000000000000000000000006020830152604082019050919050565b6000611eab601383612424565b91507f746f6b656e206e65656420746f206578697374000000000000000000000000006000830152602082019050919050565b6000611eeb602983612424565b91507f4552433732313a207472616e73666572206f6620746f6b656e2074686174206960008301527f73206e6f74206f776e00000000000000000000000000000000000000000000006020830152604082019050919050565b6000611f51602f83612424565b91507f4552433732314d657461646174613a2055524920717565727920666f72206e6f60008301527f6e6578697374656e7420746f6b656e00000000000000000000000000000000006020830152604082019050919050565b6000611fb7602183612424565b91507f4552433732313a20617070726f76616c20746f2063757272656e74206f776e6560008301527f72000000000000000000000000000000000000000000000000000000000000006020830152604082019050919050565b600061201d603183612424565b91507f4552433732313a207472616e736665722063616c6c6572206973206e6f74206f60008301527f776e6572206e6f7220617070726f7665640000000000000000000000000000006020830152604082019050919050565b61207f81612565565b82525050565b61209661209182612565565b612650565b82525050565b60006120a88285611a97565b91506120b48284611a97565b91508190509392505050565b60006120cc8286612085565b6020820191506120dc82856119ff565b6014820191506120ec8284612085565b602082019150819050949350505050565b600060208201905061211260008301846119f0565b92915050565b600060808201905061212d60008301876119f0565b61213a60208301866119f0565b6121476040830185612076565b81810360608301526121598184611a25565b905095945050505050565b60006020820190506121796000830184611a16565b92915050565b600060208201905081810360008301526121998184611a5e565b905092915050565b600060208201905081810360008301526121ba81611ac8565b9050919050565b600060208201905081810360008301526121da81611b2e565b9050919050565b600060208201905081810360008301526121fa81611b94565b9050919050565b6000602082019050818103600083015261221a81611bfa565b9050919050565b6000602082019050818103600083015261223a81611c60565b9050919050565b6000602082019050818103600083015261225a81611ca0565b9050919050565b6000602082019050818103600083015261227a81611d06565b9050919050565b6000602082019050818103600083015261229a81611d6c565b9050919050565b600060208201905081810360008301526122ba81611dd2565b9050919050565b600060208201905081810360008301526122da81611e38565b9050919050565b600060208201905081810360008301526122fa81611e9e565b9050919050565b6000602082019050818103600083015261231a81611ede565b9050919050565b6000602082019050818103600083015261233a81611f44565b9050919050565b6000602082019050818103600083015261235a81611faa565b9050919050565b6000602082019050818103600083015261237a81612010565b9050919050565b60006020820190506123966000830184612076565b92915050565b6000604051905081810181811067ffffffffffffffff821117156123c3576123c2612718565b5b8060405250919050565b600067ffffffffffffffff8211156123e8576123e7612718565b5b601f19601f8301169050602081019050919050565b600081519050919050565b600081519050919050565b600082825260208201905092915050565b600082825260208201905092915050565b600081905092915050565b600061244b82612565565b915061245683612565565b9250827fffffffffffffffffffffffffffffffffffffffffffffffffffffffffffffffff0382111561248b5761248a61268b565b5b828201905092915050565b60006124a182612565565b91506124ac83612565565b9250826124bc576124bb6126ba565b5b828204905092915050565b60006124d282612565565b91506124dd83612565565b9250828210156124f0576124ef61268b565b5b828203905092915050565b600061250682612545565b9050919050565b60008115159050919050565b60007fffffffff0000000000000000000000000000000000000000000000000000000082169050919050565b600073ffffffffffffffffffffffffffffffffffffffff82169050919050565b6000819050919050565b82818337600083830152505050565b60005b8381101561259c578082015181840152602081019050612581565b838111156125ab576000848401525b50505050565b600060028204905060018216806125c957607f821691505b602082108114156125dd576125dc6126e9565b5b50919050565b60006125ee82612565565b91507fffffffffffffffffffffffffffffffffffffffffffffffffffffffffffffffff8214156126215761262061268b565b5b600182019050919050565b60006126378261263e565b9050919050565b600061264982612758565b9050919050565b6000819050919050565b600061266582612565565b915061267083612565565b9250826126805761267f6126ba565b5b828206905092915050565b7f4e487b7100000000000000000000000000000000000000000000000000000000600052601160045260246000fd5b7f4e487b7100000000000000000000000000000000000000000000000000000000600052601260045260246000fd5b7f4e487b7100000000000000000000000000000000000000000000000000000000600052602260045260246000fd5b7f4e487b7100000000000000000000000000000000000000000000000000000000600052604160045260246000fd5b6000601f19601f8301169050919050565b60008160601b9050919050565b61276e816124fb565b811461277957600080fd5b50565b6127858161250d565b811461279057600080fd5b50565b61279c81612519565b81146127a757600080fd5b50565b6127b381612565565b81146127be57600080fd5b5056fea264697066735822122085c70b4317d0446e445d6ece85b4fe2c625e697735b9dafb7bc95d613131871464736f6c63430008000033",
  "immutableReferences": {},
  "source": "// SPDX-License-Identifier: MIT\npragma solidity ^0.8.0;\n\nimport \"../node_modules/@openzeppelin/contracts/token/ERC721/ERC721.sol\";\nimport \"../node_modules/@openzeppelin/contracts/utils/Strings.sol\";\n\ncontract Ticket is ERC721 {\n    using Strings for uint256;\n    // Mapping from ticket Id to ticket QR code\n    mapping(uint256 => uint256) private _tokenIdQRcodeMapping;\n\n    // Number of ticket are minted\n    uint256 private _ticketCount = 0;\n\n    // Metadata base url\n    string private _theBaseURI;\n\n    constructor(string memory __theBaseURI) ERC721(\"Ticket\", \"Ticket\") {\n        _theBaseURI = __theBaseURI;\n    }\n\n    function _baseURI() internal view override returns (string memory) {\n        return _theBaseURI;\n    }\n\n    // getter\n    function getQRcode(uint256 _tokenId) internal view returns (string memory) {\n        string memory tokenIdString = _tokenId.toString();\n        string memory _codeString = _tokenIdQRcodeMapping[_tokenId].toString();\n        return string(abi.encodePacked(\"ticket:\", tokenIdString, \"=\", _codeString));\n    }\n\n    function getTicketCount() public view returns (uint256) {\n        return _ticketCount;\n    }\n\n    /**\n     * @dev See {IERC721-safeTransferFrom}.\n     */\n    function safeTransferFrom(\n        address _from,\n        address _to,\n        uint256 _tokenId\n    ) public override {\n        renewQRcode(_tokenId, _to);\n        safeTransferFrom(_from, _to, _tokenId, \"\");\n    }\n\n    /**\n     * @dev validate QRcode with token id and QRcode\n     * Requirements:\n     *\n     * - `tokenId` must not exist.\n     * - If `to` refers to a smart contract, it must implement {IERC721Receiver-onERC721Received}, which is called upon a safe transfer.\n     *\n     */\n    function validateQRcode(uint256 _tokenId, uint256 _code)\n        external\n        view\n        returns (bool)\n    {\n        if (_code == _tokenIdQRcodeMapping[_tokenId]) {\n            return true;\n        } else {\n            return false;\n        }\n    }\n\n    /**\n     * @dev renew QRcode with token id and new address\n     * Requirements:\n     *\n     * - `tokenId` must not exist.\n     * - If `to` refers to a smart contract, it must implement {IERC721Receiver-onERC721Received}, which is called upon a safe transfer.\n     *\n     */\n\n    function renewQRcode(uint256 _tokenId, address _newTicketOwner) internal {\n        require(_tokenIdQRcodeMapping[_tokenId] != 0, \"token need to exist\");\n        require(\n            _newTicketOwner != address(0),\n            \"newTicketOwner need to be no null\"\n        );\n        require(\n            msg.sender == ownerOf(_tokenId),\n            \"msg.sender need to be Owner to change QRcode\"\n        );\n        _tokenIdQRcodeMapping[_tokenId] = uint256(\n            keccak256(\n                abi.encodePacked(block.timestamp, _newTicketOwner, _tokenId)\n            )\n        );\n    }\n\n    /**\n     * @dev mint ticket with no args\n     * Requirements:\n     *\n     * - `tokenId` must not exist.\n     * - If `to` refers to a smart contract, it must implement {IERC721Receiver-onERC721Received}, which is called upon a safe transfer.\n     *\n     */\n    function mint() internal {\n        _safeMint(msg.sender, _ticketCount);\n        // add qrcode\n        _tokenIdQRcodeMapping[_ticketCount] = uint256(\n            keccak256(\n                abi.encodePacked(block.timestamp, msg.sender, _ticketCount)\n            )\n        );\n        _ticketCount += 1;\n    }\n}\n\ncontract SimpleTicket is Ticket(\"http://localhost:3000/api/v1/\") {\n    function renewQRcode_(uint256 _tokenId, address _newTicketHolder) external {\n        renewQRcode(_tokenId, _newTicketHolder);\n    }\n\n    function getQRcode_(uint256 _tokenId)\n        external\n        view\n        returns (string memory)\n    {\n        return getQRcode(_tokenId);\n    }\n\n    function mint_() external {\n        mint();\n    }\n}\n",
  "sourcePath": "/Users/yiulapsang/Desktop/workspace/blockchain/Ticket/contract/contracts/Ticket.sol",
  "compiler": {
    "name": "solc",
    "version": "0.8.0+commit.c7dfd78e.Emscripten.clang"
  },
  "schemaVersion": "3.4.1",
  "updatedAt": "2021-05-29T03:06:31.352Z",
  "devdoc": {
    "kind": "dev",
    "methods": {
      "approve(address,uint256)": {
        "details": "See {IERC721-approve}."
      },
      "balanceOf(address)": {
        "details": "See {IERC721-balanceOf}."
      },
      "getApproved(uint256)": {
        "details": "See {IERC721-getApproved}."
      },
      "isApprovedForAll(address,address)": {
        "details": "See {IERC721-isApprovedForAll}."
      },
      "name()": {
        "details": "See {IERC721Metadata-name}."
      },
      "ownerOf(uint256)": {
        "details": "See {IERC721-ownerOf}."
      },
      "safeTransferFrom(address,address,uint256)": {
        "details": "See {IERC721-safeTransferFrom}."
      },
      "safeTransferFrom(address,address,uint256,bytes)": {
        "details": "See {IERC721-safeTransferFrom}."
      },
      "setApprovalForAll(address,bool)": {
        "details": "See {IERC721-setApprovalForAll}."
      },
      "supportsInterface(bytes4)": {
        "details": "See {IERC165-supportsInterface}."
      },
      "symbol()": {
        "details": "See {IERC721Metadata-symbol}."
      },
      "tokenURI(uint256)": {
        "details": "See {IERC721Metadata-tokenURI}."
      },
      "transferFrom(address,address,uint256)": {
        "details": "See {IERC721-transferFrom}."
      },
      "validateQRcode(uint256,uint256)": {
        "details": "validate QRcode with token id and QRcode Requirements: - `tokenId` must not exist. - If `to` refers to a smart contract, it must implement {IERC721Receiver-onERC721Received}, which is called upon a safe transfer."
      }
    },
    "version": 1
  },
  "userdoc": {
    "kind": "user",
    "methods": {},
    "version": 1
  }
}