{
  "contractName": "Ticket",
  "abi": [
    {
      "inputs": [
        {
          "internalType": "string",
          "name": "__theBaseURI",
          "type": "string"
        }
      ],
      "stateMutability": "nonpayable",
      "type": "constructor"
    },
    {
      "anonymous": false,
      "inputs": [
        {
          "indexed": true,
          "internalType": "address",
          "name": "owner",
          "type": "address"
        },
        {
          "indexed": true,
          "internalType": "address",
          "name": "approved",
          "type": "address"
        },
        {
          "indexed": true,
          "internalType": "uint256",
          "name": "tokenId",
          "type": "uint256"
        }
      ],
      "name": "Approval",
      "type": "event"
    },
    {
      "anonymous": false,
      "inputs": [
        {
          "indexed": true,
          "internalType": "address",
          "name": "owner",
          "type": "address"
        },
        {
          "indexed": true,
          "internalType": "address",
          "name": "operator",
          "type": "address"
        },
        {
          "indexed": false,
          "internalType": "bool",
          "name": "approved",
          "type": "bool"
        }
      ],
      "name": "ApprovalForAll",
      "type": "event"
    },
    {
      "anonymous": false,
      "inputs": [
        {
          "indexed": true,
          "internalType": "address",
          "name": "from",
          "type": "address"
        },
        {
          "indexed": true,
          "internalType": "address",
          "name": "to",
          "type": "address"
        },
        {
          "indexed": true,
          "internalType": "uint256",
          "name": "tokenId",
          "type": "uint256"
        }
      ],
      "name": "Transfer",
      "type": "event"
    },
    {
      "inputs": [
        {
          "internalType": "address",
          "name": "to",
          "type": "address"
        },
        {
          "internalType": "uint256",
          "name": "tokenId",
          "type": "uint256"
        }
      ],
      "name": "approve",
      "outputs": [],
      "stateMutability": "nonpayable",
      "type": "function"
    },
    {
      "inputs": [
        {
          "internalType": "address",
          "name": "owner",
          "type": "address"
        }
      ],
      "name": "balanceOf",
      "outputs": [
        {
          "internalType": "uint256",
          "name": "",
          "type": "uint256"
        }
      ],
      "stateMutability": "view",
      "type": "function"
    },
    {
      "inputs": [
        {
          "internalType": "uint256",
          "name": "tokenId",
          "type": "uint256"
        }
      ],
      "name": "getApproved",
      "outputs": [
        {
          "internalType": "address",
          "name": "",
          "type": "address"
        }
      ],
      "stateMutability": "view",
      "type": "function"
    },
    {
      "inputs": [
        {
          "internalType": "string",
          "name": "category",
          "type": "string"
        }
      ],
      "name": "getTicketType",
      "outputs": [
        {
          "internalType": "string",
          "name": "",
          "type": "string"
        },
        {
          "internalType": "uint256",
          "name": "",
          "type": "uint256"
        },
        {
          "internalType": "uint256",
          "name": "",
          "type": "uint256"
        },
        {
          "internalType": "uint256",
          "name": "",
          "type": "uint256"
        }
      ],
      "stateMutability": "view",
      "type": "function"
    },
    {
      "inputs": [],
      "name": "getTypeNames",
      "outputs": [
        {
          "internalType": "string[]",
          "name": "",
          "type": "string[]"
        }
      ],
      "stateMutability": "view",
      "type": "function"
    },
    {
      "inputs": [
        {
          "internalType": "address",
          "name": "owner",
          "type": "address"
        },
        {
          "internalType": "address",
          "name": "operator",
          "type": "address"
        }
      ],
      "name": "isApprovedForAll",
      "outputs": [
        {
          "internalType": "bool",
          "name": "",
          "type": "bool"
        }
      ],
      "stateMutability": "view",
      "type": "function"
    },
    {
      "inputs": [],
      "name": "name",
      "outputs": [
        {
          "internalType": "string",
          "name": "",
          "type": "string"
        }
      ],
      "stateMutability": "view",
      "type": "function"
    },
    {
      "inputs": [
        {
          "internalType": "uint256",
          "name": "tokenId",
          "type": "uint256"
        }
      ],
      "name": "ownerOf",
      "outputs": [
        {
          "internalType": "address",
          "name": "",
          "type": "address"
        }
      ],
      "stateMutability": "view",
      "type": "function"
    },
    {
      "inputs": [
        {
          "internalType": "address",
          "name": "operator",
          "type": "address"
        },
        {
          "internalType": "bool",
          "name": "approved",
          "type": "bool"
        }
      ],
      "name": "setApprovalForAll",
      "outputs": [],
      "stateMutability": "nonpayable",
      "type": "function"
    },
    {
      "inputs": [
        {
          "internalType": "bytes4",
          "name": "interfaceId",
          "type": "bytes4"
        }
      ],
      "name": "supportsInterface",
      "outputs": [
        {
          "internalType": "bool",
          "name": "",
          "type": "bool"
        }
      ],
      "stateMutability": "view",
      "type": "function"
    },
    {
      "inputs": [],
      "name": "symbol",
      "outputs": [
        {
          "internalType": "string",
          "name": "",
          "type": "string"
        }
      ],
      "stateMutability": "view",
      "type": "function"
    },
    {
      "inputs": [
        {
          "internalType": "string",
          "name": "",
          "type": "string"
        }
      ],
      "name": "ticketTypes",
      "outputs": [
        {
          "internalType": "string",
          "name": "category",
          "type": "string"
        },
        {
          "internalType": "uint256",
          "name": "price",
          "type": "uint256"
        },
        {
          "internalType": "uint256",
          "name": "maximum",
          "type": "uint256"
        },
        {
          "internalType": "uint256",
          "name": "available",
          "type": "uint256"
        }
      ],
      "stateMutability": "view",
      "type": "function"
    },
    {
      "inputs": [
        {
          "internalType": "uint256",
          "name": "tokenId",
          "type": "uint256"
        }
      ],
      "name": "tokenURI",
      "outputs": [
        {
          "internalType": "string",
          "name": "",
          "type": "string"
        }
      ],
      "stateMutability": "view",
      "type": "function"
    },
    {
      "inputs": [
        {
          "internalType": "address",
          "name": "from",
          "type": "address"
        },
        {
          "internalType": "address",
          "name": "to",
          "type": "address"
        },
        {
          "internalType": "uint256",
          "name": "tokenId",
          "type": "uint256"
        }
      ],
      "name": "transferFrom",
      "outputs": [],
      "stateMutability": "nonpayable",
      "type": "function"
    },
    {
      "inputs": [],
      "name": "typeAmount",
      "outputs": [
        {
          "internalType": "uint256",
          "name": "",
          "type": "uint256"
        }
      ],
      "stateMutability": "view",
      "type": "function"
    },
    {
      "inputs": [
        {
          "internalType": "uint256",
          "name": "",
          "type": "uint256"
        }
      ],
      "name": "typeNames",
      "outputs": [
        {
          "internalType": "string",
          "name": "",
          "type": "string"
        }
      ],
      "stateMutability": "view",
      "type": "function"
    },
    {
      "inputs": [],
      "name": "getTicketCount",
      "outputs": [
        {
          "internalType": "uint256",
          "name": "",
          "type": "uint256"
        }
      ],
      "stateMutability": "view",
      "type": "function"
    },
    {
      "inputs": [
        {
          "internalType": "address",
          "name": "_from",
          "type": "address"
        },
        {
          "internalType": "address",
          "name": "_to",
          "type": "address"
        },
        {
          "internalType": "uint256",
          "name": "_tokenId",
          "type": "uint256"
        }
      ],
      "name": "safeTransferFrom",
      "outputs": [],
      "stateMutability": "nonpayable",
      "type": "function"
    },
    {
      "inputs": [
        {
          "internalType": "address",
          "name": "from",
          "type": "address"
        },
        {
          "internalType": "address",
          "name": "to",
          "type": "address"
        },
        {
          "internalType": "uint256",
          "name": "tokenId",
          "type": "uint256"
        },
        {
          "internalType": "bytes",
          "name": "_data",
          "type": "bytes"
        }
      ],
      "name": "safeTransferFrom",
      "outputs": [],
      "stateMutability": "nonpayable",
      "type": "function"
    },
    {
      "inputs": [
        {
          "internalType": "uint256",
          "name": "_tokenId",
          "type": "uint256"
        },
        {
          "internalType": "uint256",
          "name": "_code",
          "type": "uint256"
        }
      ],
      "name": "validateQRcode",
      "outputs": [
        {
          "internalType": "bool",
          "name": "",
          "type": "bool"
        }
      ],
      "stateMutability": "view",
      "type": "function"
    }
  ],
  "bytecode": "0x60806040526000600a553480156200001657600080fd5b50604051620032903803806200329083398181016040528101906200003c91906200021e565b6040518060400160405280600681526020017f5469636b657400000000000000000000000000000000000000000000000000008152506040518060400160405280600681526020017f5469636b657400000000000000000000000000000000000000000000000000008152508160009080519060200190620000c0929190620000fc565b508060019080519060200190620000d9929190620000fc565b50505080600b9080519060200190620000f4929190620000fc565b505062000394565b8280546200010a9062000300565b90600052602060002090601f0160209004810192826200012e57600085556200017a565b82601f106200014957805160ff19168380011785556200017a565b828001600101855582156200017a579182015b82811115620001795782518255916020019190600101906200015c565b5b5090506200018991906200018d565b5090565b5b80821115620001a85760008160009055506001016200018e565b5090565b6000620001c3620001bd8462000297565b62000263565b905082815260208101848484011115620001dc57600080fd5b620001e9848285620002ca565b509392505050565b600082601f8301126200020357600080fd5b815162000215848260208601620001ac565b91505092915050565b6000602082840312156200023157600080fd5b600082015167ffffffffffffffff8111156200024c57600080fd5b6200025a84828501620001f1565b91505092915050565b6000604051905081810181811067ffffffffffffffff821117156200028d576200028c62000365565b5b8060405250919050565b600067ffffffffffffffff821115620002b557620002b462000365565b5b601f19601f8301169050602081019050919050565b60005b83811015620002ea578082015181840152602081019050620002cd565b83811115620002fa576000848401525b50505050565b600060028204905060018216806200031957607f821691505b6020821081141562000330576200032f62000336565b5b50919050565b7f4e487b7100000000000000000000000000000000000000000000000000000000600052602260045260246000fd5b7f4e487b7100000000000000000000000000000000000000000000000000000000600052604160045260246000fd5b612eec80620003a46000396000f3fe608060405234801561001057600080fd5b506004361061012c5760003560e01c806372772e45116100ad578063a22cb46511610071578063a22cb46514610383578063b1b1cf481461039f578063b88d4fde146103bd578063c87b56dd146103d9578063e985e9c5146104095761012c565b806372772e45146102b45780637baec452146102e457806388d540041461030257806395d89b41146103355780639732f1d5146103535761012c565b806323b872dd116100f457806323b872dd146101e957806329ea0b281461020557806342842e0e146102385780636352211e1461025457806370a08231146102845761012c565b806301ffc9a71461013157806306fdde0314610161578063081812fc1461017f578063095ea7b3146101af57806321c63a47146101cb575b600080fd5b61014b60048036038101906101469190611e2c565b610439565b6040516101589190612793565b60405180910390f35b61016961051b565b60405161017691906127ae565b60405180910390f35b61019960048036038101906101949190611ebf565b6105ad565b6040516101a6919061270a565b60405180910390f35b6101c960048036038101906101c49190611df0565b610632565b005b6101d361074a565b6040516101e091906129fc565b60405180910390f35b61020360048036038101906101fe9190611cea565b610754565b005b61021f600480360381019061021a9190611e7e565b6107b4565b60405161022f94939291906127d0565b60405180910390f35b610252600480360381019061024d9190611cea565b610882565b005b61026e60048036038101906102699190611ebf565b6108ac565b60405161027b919061270a565b60405180910390f35b61029e60048036038101906102999190611c85565b61095e565b6040516102ab91906129fc565b60405180910390f35b6102ce60048036038101906102c99190611ee8565b610a16565b6040516102db9190612793565b60405180910390f35b6102ec610a47565b6040516102f991906129fc565b60405180910390f35b61031c60048036038101906103179190611e7e565b610a4d565b60405161032c94939291906127d0565b60405180910390f35b61033d610b76565b60405161034a91906127ae565b60405180910390f35b61036d60048036038101906103689190611ebf565b610c08565b60405161037a91906127ae565b60405180910390f35b61039d60048036038101906103989190611db4565b610cb4565b005b6103a7610e35565b6040516103b49190612771565b60405180910390f35b6103d760048036038101906103d29190611d39565b610f0e565b005b6103f360048036038101906103ee9190611ebf565b610f70565b60405161040091906127ae565b60405180910390f35b610423600480360381019061041e9190611cae565b611017565b6040516104309190612793565b60405180910390f35b60007f80ac58cd000000000000000000000000000000000000000000000000000000007bffffffffffffffffffffffffffffffffffffffffffffffffffffffff1916827bffffffffffffffffffffffffffffffffffffffffffffffffffffffff1916148061050457507f5b5e139f000000000000000000000000000000000000000000000000000000007bffffffffffffffffffffffffffffffffffffffffffffffffffffffff1916827bffffffffffffffffffffffffffffffffffffffffffffffffffffffff1916145b806105145750610513826110ab565b5b9050919050565b60606000805461052a90612ca6565b80601f016020809104026020016040519081016040528092919081815260200182805461055690612ca6565b80156105a35780601f10610578576101008083540402835291602001916105a3565b820191906000526020600020905b81548152906001019060200180831161058657829003601f168201915b5050505050905090565b60006105b882611115565b6105f7576040517f08c379a00000000000000000000000000000000000000000000000000000000081526004016105ee9061293c565b60405180910390fd5b6004600083815260200190815260200160002060009054906101000a900473ffffffffffffffffffffffffffffffffffffffff169050919050565b600061063d826108ac565b90508073ffffffffffffffffffffffffffffffffffffffff168373ffffffffffffffffffffffffffffffffffffffff1614156106ae576040517f08c379a00000000000000000000000000000000000000000000000000000000081526004016106a5906129bc565b60405180910390fd5b8073ffffffffffffffffffffffffffffffffffffffff166106cd611181565b73ffffffffffffffffffffffffffffffffffffffff1614806106fc57506106fb816106f6611181565b611017565b5b61073b576040517f08c379a0000000000000000000000000000000000000000000000000000000008152600401610732906128dc565b60405180910390fd5b6107458383611189565b505050565b6000600a54905090565b61076561075f611181565b82611242565b6107a4576040517f08c379a000000000000000000000000000000000000000000000000000000000815260040161079b906129dc565b60405180910390fd5b6107af838383611320565b505050565b6006818051602081018201805184825260208301602085012081835280955050505050506000915090508060000180546107ed90612ca6565b80601f016020809104026020016040519081016040528092919081815260200182805461081990612ca6565b80156108665780601f1061083b57610100808354040283529160200191610866565b820191906000526020600020905b81548152906001019060200180831161084957829003601f168201915b5050505050908060010154908060020154908060030154905084565b61088c818361157c565b6108a783838360405180602001604052806000815250610f0e565b505050565b6000806002600084815260200190815260200160002060009054906101000a900473ffffffffffffffffffffffffffffffffffffffff169050600073ffffffffffffffffffffffffffffffffffffffff168173ffffffffffffffffffffffffffffffffffffffff161415610955576040517f08c379a000000000000000000000000000000000000000000000000000000000815260040161094c9061291c565b60405180910390fd5b80915050919050565b60008073ffffffffffffffffffffffffffffffffffffffff168273ffffffffffffffffffffffffffffffffffffffff1614156109cf576040517f08c379a00000000000000000000000000000000000000000000000000000000081526004016109c6906128fc565b60405180910390fd5b600360008373ffffffffffffffffffffffffffffffffffffffff1673ffffffffffffffffffffffffffffffffffffffff168152602001908152602001600020549050919050565b60006009600084815260200190815260200160002054821415610a3c5760019050610a41565b600090505b92915050565b60085481565b60606000806000600685604051610a649190612692565b9081526020016040518091039020600001600686604051610a859190612692565b908152602001604051809103902060010154600687604051610aa79190612692565b908152602001604051809103902060020154600688604051610ac99190612692565b908152602001604051809103902060030154838054610ae790612ca6565b80601f0160208091040260200160405190810160405280929190818152602001828054610b1390612ca6565b8015610b605780601f10610b3557610100808354040283529160200191610b60565b820191906000526020600020905b815481529060010190602001808311610b4357829003601f168201915b5050505050935093509350935093509193509193565b606060018054610b8590612ca6565b80601f0160208091040260200160405190810160405280929190818152602001828054610bb190612ca6565b8015610bfe5780601f10610bd357610100808354040283529160200191610bfe565b820191906000526020600020905b815481529060010190602001808311610be157829003601f168201915b5050505050905090565b60078181548110610c1857600080fd5b906000526020600020016000915090508054610c3390612ca6565b80601f0160208091040260200160405190810160405280929190818152602001828054610c5f90612ca6565b8015610cac5780601f10610c8157610100808354040283529160200191610cac565b820191906000526020600020905b815481529060010190602001808311610c8f57829003601f168201915b505050505081565b610cbc611181565b73ffffffffffffffffffffffffffffffffffffffff168273ffffffffffffffffffffffffffffffffffffffff161415610d2a576040517f08c379a0000000000000000000000000000000000000000000000000000000008152600401610d219061289c565b60405180910390fd5b8060056000610d37611181565b73ffffffffffffffffffffffffffffffffffffffff1673ffffffffffffffffffffffffffffffffffffffff16815260200190815260200160002060008473ffffffffffffffffffffffffffffffffffffffff1673ffffffffffffffffffffffffffffffffffffffff16815260200190815260200160002060006101000a81548160ff0219169083151502179055508173ffffffffffffffffffffffffffffffffffffffff16610de4611181565b73ffffffffffffffffffffffffffffffffffffffff167f17307eab39ab6107e8899845ad3d59bd9653f200f220920489ca2b5937696c3183604051610e299190612793565b60405180910390a35050565b60606007805480602002602001604051908101604052809291908181526020016000905b82821015610f05578382906000526020600020018054610e7890612ca6565b80601f0160208091040260200160405190810160405280929190818152602001828054610ea490612ca6565b8015610ef15780601f10610ec657610100808354040283529160200191610ef1565b820191906000526020600020905b815481529060010190602001808311610ed457829003601f168201915b505050505081526020019060010190610e59565b50505050905090565b610f1f610f19611181565b83611242565b610f5e576040517f08c379a0000000000000000000000000000000000000000000000000000000008152600401610f55906129dc565b60405180910390fd5b610f6a84848484611702565b50505050565b6060610f7b82611115565b610fba576040517f08c379a0000000000000000000000000000000000000000000000000000000008152600401610fb19061299c565b60405180910390fd5b6000610fc461175e565b90506000815111610fe4576040518060200160405280600081525061100f565b80610fee846117f0565b604051602001610fff9291906126a9565b6040516020818303038152906040525b915050919050565b6000600560008473ffffffffffffffffffffffffffffffffffffffff1673ffffffffffffffffffffffffffffffffffffffff16815260200190815260200160002060008373ffffffffffffffffffffffffffffffffffffffff1673ffffffffffffffffffffffffffffffffffffffff16815260200190815260200160002060009054906101000a900460ff16905092915050565b60007f01ffc9a7000000000000000000000000000000000000000000000000000000007bffffffffffffffffffffffffffffffffffffffffffffffffffffffff1916827bffffffffffffffffffffffffffffffffffffffffffffffffffffffff1916149050919050565b60008073ffffffffffffffffffffffffffffffffffffffff166002600084815260200190815260200160002060009054906101000a900473ffffffffffffffffffffffffffffffffffffffff1673ffffffffffffffffffffffffffffffffffffffff1614159050919050565b600033905090565b816004600083815260200190815260200160002060006101000a81548173ffffffffffffffffffffffffffffffffffffffff021916908373ffffffffffffffffffffffffffffffffffffffff160217905550808273ffffffffffffffffffffffffffffffffffffffff166111fc836108ac565b73ffffffffffffffffffffffffffffffffffffffff167f8c5be1e5ebec7d5bd14f71427d1e84f3dd0314c0f7b2291e5b200ac8c7c3b92560405160405180910390a45050565b600061124d82611115565b61128c576040517f08c379a0000000000000000000000000000000000000000000000000000000008152600401611283906128bc565b60405180910390fd5b6000611297836108ac565b90508073ffffffffffffffffffffffffffffffffffffffff168473ffffffffffffffffffffffffffffffffffffffff16148061130657508373ffffffffffffffffffffffffffffffffffffffff166112ee846105ad565b73ffffffffffffffffffffffffffffffffffffffff16145b8061131757506113168185611017565b5b91505092915050565b8273ffffffffffffffffffffffffffffffffffffffff16611340826108ac565b73ffffffffffffffffffffffffffffffffffffffff1614611396576040517f08c379a000000000000000000000000000000000000000000000000000000000815260040161138d9061297c565b60405180910390fd5b600073ffffffffffffffffffffffffffffffffffffffff168273ffffffffffffffffffffffffffffffffffffffff161415611406576040517f08c379a00000000000000000000000000000000000000000000000000000000081526004016113fd9061287c565b60405180910390fd5b61141183838361199d565b61141c600082611189565b6001600360008573ffffffffffffffffffffffffffffffffffffffff1673ffffffffffffffffffffffffffffffffffffffff168152602001908152602001600020600082825461146c9190612bbc565b925050819055506001600360008473ffffffffffffffffffffffffffffffffffffffff1673ffffffffffffffffffffffffffffffffffffffff16815260200190815260200160002060008282546114c39190612b35565b92505081905550816002600083815260200190815260200160002060006101000a81548173ffffffffffffffffffffffffffffffffffffffff021916908373ffffffffffffffffffffffffffffffffffffffff160217905550808273ffffffffffffffffffffffffffffffffffffffff168473ffffffffffffffffffffffffffffffffffffffff167fddf252ad1be2c89b69c2b068fc378daa952ba7f163c4a11628f55a4df523b3ef60405160405180910390a4505050565b6000600960008481526020019081526020016000205414156115d3576040517f08c379a00000000000000000000000000000000000000000000000000000000081526004016115ca9061295c565b60405180910390fd5b600073ffffffffffffffffffffffffffffffffffffffff168173ffffffffffffffffffffffffffffffffffffffff161415611643576040517f08c379a000000000000000000000000000000000000000000000000000000000815260040161163a9061285c565b60405180910390fd5b61164c826108ac565b73ffffffffffffffffffffffffffffffffffffffff163373ffffffffffffffffffffffffffffffffffffffff16146116b9576040517f08c379a00000000000000000000000000000000000000000000000000000000081526004016116b09061281c565b60405180910390fd5b4281836040516020016116ce939291906126cd565b6040516020818303038152906040528051906020012060001c60096000848152602001908152602001600020819055505050565b61170d848484611320565b611719848484846119a2565b611758576040517f08c379a000000000000000000000000000000000000000000000000000000000815260040161174f9061283c565b60405180910390fd5b50505050565b6060600b805461176d90612ca6565b80601f016020809104026020016040519081016040528092919081815260200182805461179990612ca6565b80156117e65780601f106117bb576101008083540402835291602001916117e6565b820191906000526020600020905b8154815290600101906020018083116117c957829003601f168201915b5050505050905090565b60606000821415611838576040518060400160405280600181526020017f30000000000000000000000000000000000000000000000000000000000000008152509050611998565b600082905060005b6000821461186a57808061185390612cd8565b915050600a826118639190612b8b565b9150611840565b60008167ffffffffffffffff8111156118ac577f4e487b7100000000000000000000000000000000000000000000000000000000600052604160045260246000fd5b6040519080825280601f01601f1916602001820160405280156118de5781602001600182028036833780820191505090505b5090505b60008514611991576001826118f79190612bbc565b9150600a856119069190612d4f565b60306119129190612b35565b60f81b81838151811061194e577f4e487b7100000000000000000000000000000000000000000000000000000000600052603260045260246000fd5b60200101907effffffffffffffffffffffffffffffffffffffffffffffffffffffffffffff1916908160001a905350600a8561198a9190612b8b565b94506118e2565b8093505050505b919050565b505050565b60006119c38473ffffffffffffffffffffffffffffffffffffffff16611b39565b15611b2c578373ffffffffffffffffffffffffffffffffffffffff1663150b7a026119ec611181565b8786866040518563ffffffff1660e01b8152600401611a0e9493929190612725565b602060405180830381600087803b158015611a2857600080fd5b505af1925050508015611a5957506040513d601f19601f82011682018060405250810190611a569190611e55565b60015b611adc573d8060008114611a89576040519150601f19603f3d011682016040523d82523d6000602084013e611a8e565b606091505b50600081511415611ad4576040517f08c379a0000000000000000000000000000000000000000000000000000000008152600401611acb9061283c565b60405180910390fd5b805181602001fd5b63150b7a0260e01b7bffffffffffffffffffffffffffffffffffffffffffffffffffffffff1916817bffffffffffffffffffffffffffffffffffffffffffffffffffffffff191614915050611b31565b600190505b949350505050565b600080823b905060008111915050919050565b6000611b5f611b5a84612a48565b612a17565b905082815260208101848484011115611b7757600080fd5b611b82848285612c64565b509392505050565b6000611b9d611b9884612a78565b612a17565b905082815260208101848484011115611bb557600080fd5b611bc0848285612c64565b509392505050565b600081359050611bd781612e5a565b92915050565b600081359050611bec81612e71565b92915050565b600081359050611c0181612e88565b92915050565b600081519050611c1681612e88565b92915050565b600082601f830112611c2d57600080fd5b8135611c3d848260208601611b4c565b91505092915050565b600082601f830112611c5757600080fd5b8135611c67848260208601611b8a565b91505092915050565b600081359050611c7f81612e9f565b92915050565b600060208284031215611c9757600080fd5b6000611ca584828501611bc8565b91505092915050565b60008060408385031215611cc157600080fd5b6000611ccf85828601611bc8565b9250506020611ce085828601611bc8565b9150509250929050565b600080600060608486031215611cff57600080fd5b6000611d0d86828701611bc8565b9350506020611d1e86828701611bc8565b9250506040611d2f86828701611c70565b9150509250925092565b60008060008060808587031215611d4f57600080fd5b6000611d5d87828801611bc8565b9450506020611d6e87828801611bc8565b9350506040611d7f87828801611c70565b925050606085013567ffffffffffffffff811115611d9c57600080fd5b611da887828801611c1c565b91505092959194509250565b60008060408385031215611dc757600080fd5b6000611dd585828601611bc8565b9250506020611de685828601611bdd565b9150509250929050565b60008060408385031215611e0357600080fd5b6000611e1185828601611bc8565b9250506020611e2285828601611c70565b9150509250929050565b600060208284031215611e3e57600080fd5b6000611e4c84828501611bf2565b91505092915050565b600060208284031215611e6757600080fd5b6000611e7584828501611c07565b91505092915050565b600060208284031215611e9057600080fd5b600082013567ffffffffffffffff811115611eaa57600080fd5b611eb684828501611c46565b91505092915050565b600060208284031215611ed157600080fd5b6000611edf84828501611c70565b91505092915050565b60008060408385031215611efb57600080fd5b6000611f0985828601611c70565b9250506020611f1a85828601611c70565b9150509250929050565b6000611f30838361201b565b905092915050565b611f4181612bf0565b82525050565b611f58611f5382612bf0565b612d21565b82525050565b6000611f6982612ab8565b611f738185612ae6565b935083602082028501611f8585612aa8565b8060005b85811015611fc15784840389528151611fa28582611f24565b9450611fad83612ad9565b925060208a01995050600181019050611f89565b50829750879550505050505092915050565b611fdc81612c02565b82525050565b6000611fed82612ac3565b611ff78185612af7565b9350612007818560208601612c73565b61201081612e3c565b840191505092915050565b600061202682612ace565b6120308185612b08565b9350612040818560208601612c73565b61204981612e3c565b840191505092915050565b600061205f82612ace565b6120698185612b19565b9350612079818560208601612c73565b61208281612e3c565b840191505092915050565b600061209882612ace565b6120a28185612b2a565b93506120b2818560208601612c73565b80840191505092915050565b60006120cb602c83612b19565b91507f6d73672e73656e646572206e65656420746f206265204f776e657220746f206360008301527f68616e6765205152636f646500000000000000000000000000000000000000006020830152604082019050919050565b6000612131603283612b19565b91507f4552433732313a207472616e7366657220746f206e6f6e20455243373231526560008301527f63656976657220696d706c656d656e74657200000000000000000000000000006020830152604082019050919050565b6000612197602183612b19565b91507f6e65775469636b65744f776e6572206e65656420746f206265206e6f206e756c60008301527f6c000000000000000000000000000000000000000000000000000000000000006020830152604082019050919050565b60006121fd602483612b19565b91507f4552433732313a207472616e7366657220746f20746865207a65726f2061646460008301527f72657373000000000000000000000000000000000000000000000000000000006020830152604082019050919050565b6000612263601983612b19565b91507f4552433732313a20617070726f766520746f2063616c6c6572000000000000006000830152602082019050919050565b60006122a3602c83612b19565b91507f4552433732313a206f70657261746f7220717565727920666f72206e6f6e657860008301527f697374656e7420746f6b656e00000000000000000000000000000000000000006020830152604082019050919050565b6000612309603883612b19565b91507f4552433732313a20617070726f76652063616c6c6572206973206e6f74206f7760008301527f6e6572206e6f7220617070726f76656420666f7220616c6c00000000000000006020830152604082019050919050565b600061236f602a83612b19565b91507f4552433732313a2062616c616e636520717565727920666f7220746865207a6560008301527f726f2061646472657373000000000000000000000000000000000000000000006020830152604082019050919050565b60006123d5602983612b19565b91507f4552433732313a206f776e657220717565727920666f72206e6f6e657869737460008301527f656e7420746f6b656e00000000000000000000000000000000000000000000006020830152604082019050919050565b600061243b602c83612b19565b91507f4552433732313a20617070726f76656420717565727920666f72206e6f6e657860008301527f697374656e7420746f6b656e00000000000000000000000000000000000000006020830152604082019050919050565b60006124a1601383612b19565b91507f746f6b656e206e65656420746f206578697374000000000000000000000000006000830152602082019050919050565b60006124e1602983612b19565b91507f4552433732313a207472616e73666572206f6620746f6b656e2074686174206960008301527f73206e6f74206f776e00000000000000000000000000000000000000000000006020830152604082019050919050565b6000612547602f83612b19565b91507f4552433732314d657461646174613a2055524920717565727920666f72206e6f60008301527f6e6578697374656e7420746f6b656e00000000000000000000000000000000006020830152604082019050919050565b60006125ad602183612b19565b91507f4552433732313a20617070726f76616c20746f2063757272656e74206f776e6560008301527f72000000000000000000000000000000000000000000000000000000000000006020830152604082019050919050565b6000612613603183612b19565b91507f4552433732313a207472616e736665722063616c6c6572206973206e6f74206f60008301527f776e6572206e6f7220617070726f7665640000000000000000000000000000006020830152604082019050919050565b61267581612c5a565b82525050565b61268c61268782612c5a565b612d45565b82525050565b600061269e828461208d565b915081905092915050565b60006126b5828561208d565b91506126c1828461208d565b91508190509392505050565b60006126d9828661267b565b6020820191506126e98285611f47565b6014820191506126f9828461267b565b602082019150819050949350505050565b600060208201905061271f6000830184611f38565b92915050565b600060808201905061273a6000830187611f38565b6127476020830186611f38565b612754604083018561266c565b81810360608301526127668184611fe2565b905095945050505050565b6000602082019050818103600083015261278b8184611f5e565b905092915050565b60006020820190506127a86000830184611fd3565b92915050565b600060208201905081810360008301526127c88184612054565b905092915050565b600060808201905081810360008301526127ea8187612054565b90506127f9602083018661266c565b612806604083018561266c565b612813606083018461266c565b95945050505050565b60006020820190508181036000830152612835816120be565b9050919050565b6000602082019050818103600083015261285581612124565b9050919050565b600060208201905081810360008301526128758161218a565b9050919050565b60006020820190508181036000830152612895816121f0565b9050919050565b600060208201905081810360008301526128b581612256565b9050919050565b600060208201905081810360008301526128d581612296565b9050919050565b600060208201905081810360008301526128f5816122fc565b9050919050565b6000602082019050818103600083015261291581612362565b9050919050565b60006020820190508181036000830152612935816123c8565b9050919050565b600060208201905081810360008301526129558161242e565b9050919050565b6000602082019050818103600083015261297581612494565b9050919050565b60006020820190508181036000830152612995816124d4565b9050919050565b600060208201905081810360008301526129b58161253a565b9050919050565b600060208201905081810360008301526129d5816125a0565b9050919050565b600060208201905081810360008301526129f581612606565b9050919050565b6000602082019050612a11600083018461266c565b92915050565b6000604051905081810181811067ffffffffffffffff82111715612a3e57612a3d612e0d565b5b8060405250919050565b600067ffffffffffffffff821115612a6357612a62612e0d565b5b601f19601f8301169050602081019050919050565b600067ffffffffffffffff821115612a9357612a92612e0d565b5b601f19601f8301169050602081019050919050565b6000819050602082019050919050565b600081519050919050565b600081519050919050565b600081519050919050565b6000602082019050919050565b600082825260208201905092915050565b600082825260208201905092915050565b600082825260208201905092915050565b600082825260208201905092915050565b600081905092915050565b6000612b4082612c5a565b9150612b4b83612c5a565b9250827fffffffffffffffffffffffffffffffffffffffffffffffffffffffffffffffff03821115612b8057612b7f612d80565b5b828201905092915050565b6000612b9682612c5a565b9150612ba183612c5a565b925082612bb157612bb0612daf565b5b828204905092915050565b6000612bc782612c5a565b9150612bd283612c5a565b925082821015612be557612be4612d80565b5b828203905092915050565b6000612bfb82612c3a565b9050919050565b60008115159050919050565b60007fffffffff0000000000000000000000000000000000000000000000000000000082169050919050565b600073ffffffffffffffffffffffffffffffffffffffff82169050919050565b6000819050919050565b82818337600083830152505050565b60005b83811015612c91578082015181840152602081019050612c76565b83811115612ca0576000848401525b50505050565b60006002820490506001821680612cbe57607f821691505b60208210811415612cd257612cd1612dde565b5b50919050565b6000612ce382612c5a565b91507fffffffffffffffffffffffffffffffffffffffffffffffffffffffffffffffff821415612d1657612d15612d80565b5b600182019050919050565b6000612d2c82612d33565b9050919050565b6000612d3e82612e4d565b9050919050565b6000819050919050565b6000612d5a82612c5a565b9150612d6583612c5a565b925082612d7557612d74612daf565b5b828206905092915050565b7f4e487b7100000000000000000000000000000000000000000000000000000000600052601160045260246000fd5b7f4e487b7100000000000000000000000000000000000000000000000000000000600052601260045260246000fd5b7f4e487b7100000000000000000000000000000000000000000000000000000000600052602260045260246000fd5b7f4e487b7100000000000000000000000000000000000000000000000000000000600052604160045260246000fd5b6000601f19601f8301169050919050565b60008160601b9050919050565b612e6381612bf0565b8114612e6e57600080fd5b50565b612e7a81612c02565b8114612e8557600080fd5b50565b612e9181612c0e565b8114612e9c57600080fd5b50565b612ea881612c5a565b8114612eb357600080fd5b5056fea2646970667358221220e7364697f4cfc2e8dca4609e9626bf6aa4811c1aaca1fd1e10ec8a812b7d1d6e64736f6c63430008000033",
  "immutableReferences": {},
  "source": "// SPDX-License-Identifier: MIT\npragma solidity ^0.8.0;\n\nimport \"./TicketData.sol\";\nimport \"../node_modules/@openzeppelin/contracts/token/ERC721/ERC721.sol\";\nimport \"../node_modules/@openzeppelin/contracts/utils/Strings.sol\";\n\ncontract Ticket is ERC721, TicketData {\n    using Strings for uint256;\n    // Mapping from ticket Id to ticket QR code\n    mapping(uint256 => uint256) private _tokenIdQRcodeMapping;\n\n    // Number of ticket are minted\n    uint256 private _ticketCount = 0;\n\n    // Metadata base url\n    string private _theBaseURI;\n\n    constructor(string memory __theBaseURI) ERC721(\"Ticket\", \"Ticket\") {\n        _theBaseURI = __theBaseURI;\n    }\n\n    function _baseURI() internal view override returns (string memory) {\n        return _theBaseURI;\n    }\n\n    // getter\n    function getQRcode(uint256 _tokenId) internal view returns (string memory) {\n        string memory tokenIdString = _tokenId.toString();\n        string memory _codeString = _tokenIdQRcodeMapping[_tokenId].toString();\n        return string(abi.encodePacked(\"ticket:\", tokenIdString, \"=\", _codeString));\n    }\n\n    function getTicketCount() public view returns (uint256) {\n        return _ticketCount;\n    }\n\n    /**\n     * @dev See {IERC721-safeTransferFrom}.\n     */\n    function safeTransferFrom(\n        address _from,\n        address _to,\n        uint256 _tokenId\n    ) public override {\n        renewQRcode(_tokenId, _to);\n        safeTransferFrom(_from, _to, _tokenId, \"\");\n    }\n\n    /**\n     * @dev validate QRcode with token id and QRcode\n     * Requirements:\n     *\n     * - `tokenId` must not exist.\n     * - If `to` refers to a smart contract, it must implement {IERC721Receiver-onERC721Received}, which is called upon a safe transfer.\n     *\n     */\n    function validateQRcode(uint256 _tokenId, uint256 _code)\n        external\n        view\n        returns (bool)\n    {\n        if (_code == _tokenIdQRcodeMapping[_tokenId]) {\n            return true;\n        } else {\n            return false;\n        }\n    }\n\n    /**\n     * @dev renew QRcode with token id and new address\n     * Requirements:\n     *\n     * - `tokenId` must not exist.\n     * - If `to` refers to a smart contract, it must implement {IERC721Receiver-onERC721Received}, which is called upon a safe transfer.\n     *\n     */\n\n    function renewQRcode(uint256 _tokenId, address _newTicketOwner) internal {\n        require(_tokenIdQRcodeMapping[_tokenId] != 0, \"token need to exist\");\n        require(\n            _newTicketOwner != address(0),\n            \"newTicketOwner need to be no null\"\n        );\n        require(\n            msg.sender == ownerOf(_tokenId),\n            \"msg.sender need to be Owner to change QRcode\"\n        );\n        _tokenIdQRcodeMapping[_tokenId] = uint256(\n            keccak256(\n                abi.encodePacked(block.timestamp, _newTicketOwner, _tokenId)\n            )\n        );\n    }\n\n    /**\n     * @dev mint ticket with no args\n     * Requirements:\n     *\n     * - `tokenId` must not exist.\n     * - If `to` refers to a smart contract, it must implement {IERC721Receiver-onERC721Received}, which is called upon a safe transfer.\n     *\n     */\n    function mint(string memory category) internal returns (uint256){\n        require(ticketTypes[category].available > 0,\"Your ticket category is not available...\");\n        _safeMint(msg.sender, _ticketCount);\n        // add qrcode\n        _tokenIdQRcodeMapping[_ticketCount] = uint256(\n            keccak256(\n                abi.encodePacked(block.timestamp, msg.sender, _ticketCount)\n            )\n        );\n        _ticketCount += 1;\n        decrease(category);\n        return _ticketCount;\n    }\n}\n\ncontract SimpleTicket is Ticket {\n    constructor(string memory __theBaseURI) Ticket(__theBaseURI) public{\n\n    }\n    function renewQRcode_(uint256 _tokenId, address _newTicketHolder) external {\n        renewQRcode(_tokenId, _newTicketHolder);\n    }\n\n    function getQRcode_(uint256 _tokenId)\n        external\n        view\n        returns (string memory)\n    {\n        return getQRcode(_tokenId);\n    }\n\n    function mint_(string memory category) external returns (uint256){\n        return mint(category);\n    }\n\n    function register_(string memory category, uint256 price, uint256 maximum) external{\n        register(category,  price,  maximum);\n    }\n}\n",
  "sourcePath": "/Users/yiulapsang/Desktop/workspace/blockchain/Ticket/contract/contracts/Ticket.sol",
  "compiler": {
    "name": "solc",
    "version": "0.8.0+commit.c7dfd78e.Emscripten.clang"
  },
  "schemaVersion": "3.4.1",
  "updatedAt": "2021-06-04T10:05:28.279Z",
  "devdoc": {
    "kind": "dev",
    "methods": {
      "approve(address,uint256)": {
        "details": "See {IERC721-approve}."
      },
      "balanceOf(address)": {
        "details": "See {IERC721-balanceOf}."
      },
      "getApproved(uint256)": {
        "details": "See {IERC721-getApproved}."
      },
      "isApprovedForAll(address,address)": {
        "details": "See {IERC721-isApprovedForAll}."
      },
      "name()": {
        "details": "See {IERC721Metadata-name}."
      },
      "ownerOf(uint256)": {
        "details": "See {IERC721-ownerOf}."
      },
      "safeTransferFrom(address,address,uint256)": {
        "details": "See {IERC721-safeTransferFrom}."
      },
      "safeTransferFrom(address,address,uint256,bytes)": {
        "details": "See {IERC721-safeTransferFrom}."
      },
      "setApprovalForAll(address,bool)": {
        "details": "See {IERC721-setApprovalForAll}."
      },
      "supportsInterface(bytes4)": {
        "details": "See {IERC165-supportsInterface}."
      },
      "symbol()": {
        "details": "See {IERC721Metadata-symbol}."
      },
      "tokenURI(uint256)": {
        "details": "See {IERC721Metadata-tokenURI}."
      },
      "transferFrom(address,address,uint256)": {
        "details": "See {IERC721-transferFrom}."
      },
      "validateQRcode(uint256,uint256)": {
        "details": "validate QRcode with token id and QRcode Requirements: - `tokenId` must not exist. - If `to` refers to a smart contract, it must implement {IERC721Receiver-onERC721Received}, which is called upon a safe transfer."
      }
    },
    "version": 1
  },
  "userdoc": {
    "kind": "user",
    "methods": {},
    "version": 1
  }
}