{
  "contractName": "Ticket",
  "abi": [
    {
      "inputs": [
        {
          "internalType": "string",
          "name": "__theBaseURI",
          "type": "string"
        }
      ],
      "stateMutability": "nonpayable",
      "type": "constructor"
    },
    {
      "anonymous": false,
      "inputs": [
        {
          "indexed": true,
          "internalType": "address",
          "name": "owner",
          "type": "address"
        },
        {
          "indexed": true,
          "internalType": "address",
          "name": "approved",
          "type": "address"
        },
        {
          "indexed": true,
          "internalType": "uint256",
          "name": "tokenId",
          "type": "uint256"
        }
      ],
      "name": "Approval",
      "type": "event"
    },
    {
      "anonymous": false,
      "inputs": [
        {
          "indexed": true,
          "internalType": "address",
          "name": "owner",
          "type": "address"
        },
        {
          "indexed": true,
          "internalType": "address",
          "name": "operator",
          "type": "address"
        },
        {
          "indexed": false,
          "internalType": "bool",
          "name": "approved",
          "type": "bool"
        }
      ],
      "name": "ApprovalForAll",
      "type": "event"
    },
    {
      "anonymous": false,
      "inputs": [
        {
          "indexed": true,
          "internalType": "address",
          "name": "from",
          "type": "address"
        },
        {
          "indexed": true,
          "internalType": "address",
          "name": "to",
          "type": "address"
        },
        {
          "indexed": true,
          "internalType": "uint256",
          "name": "tokenId",
          "type": "uint256"
        }
      ],
      "name": "Transfer",
      "type": "event"
    },
    {
      "inputs": [
        {
          "internalType": "address",
          "name": "to",
          "type": "address"
        },
        {
          "internalType": "uint256",
          "name": "tokenId",
          "type": "uint256"
        }
      ],
      "name": "approve",
      "outputs": [],
      "stateMutability": "nonpayable",
      "type": "function"
    },
    {
      "inputs": [
        {
          "internalType": "address",
          "name": "owner",
          "type": "address"
        }
      ],
      "name": "balanceOf",
      "outputs": [
        {
          "internalType": "uint256",
          "name": "",
          "type": "uint256"
        }
      ],
      "stateMutability": "view",
      "type": "function"
    },
    {
      "inputs": [
        {
          "internalType": "uint256",
          "name": "tokenId",
          "type": "uint256"
        }
      ],
      "name": "getApproved",
      "outputs": [
        {
          "internalType": "address",
          "name": "",
          "type": "address"
        }
      ],
      "stateMutability": "view",
      "type": "function"
    },
    {
      "inputs": [
        {
          "internalType": "address",
          "name": "owner",
          "type": "address"
        },
        {
          "internalType": "address",
          "name": "operator",
          "type": "address"
        }
      ],
      "name": "isApprovedForAll",
      "outputs": [
        {
          "internalType": "bool",
          "name": "",
          "type": "bool"
        }
      ],
      "stateMutability": "view",
      "type": "function"
    },
    {
      "inputs": [],
      "name": "name",
      "outputs": [
        {
          "internalType": "string",
          "name": "",
          "type": "string"
        }
      ],
      "stateMutability": "view",
      "type": "function"
    },
    {
      "inputs": [
        {
          "internalType": "uint256",
          "name": "tokenId",
          "type": "uint256"
        }
      ],
      "name": "ownerOf",
      "outputs": [
        {
          "internalType": "address",
          "name": "",
          "type": "address"
        }
      ],
      "stateMutability": "view",
      "type": "function"
    },
    {
      "inputs": [
        {
          "internalType": "address",
          "name": "operator",
          "type": "address"
        },
        {
          "internalType": "bool",
          "name": "approved",
          "type": "bool"
        }
      ],
      "name": "setApprovalForAll",
      "outputs": [],
      "stateMutability": "nonpayable",
      "type": "function"
    },
    {
      "inputs": [
        {
          "internalType": "bytes4",
          "name": "interfaceId",
          "type": "bytes4"
        }
      ],
      "name": "supportsInterface",
      "outputs": [
        {
          "internalType": "bool",
          "name": "",
          "type": "bool"
        }
      ],
      "stateMutability": "view",
      "type": "function"
    },
    {
      "inputs": [],
      "name": "symbol",
      "outputs": [
        {
          "internalType": "string",
          "name": "",
          "type": "string"
        }
      ],
      "stateMutability": "view",
      "type": "function"
    },
    {
      "inputs": [
        {
          "internalType": "uint256",
          "name": "tokenId",
          "type": "uint256"
        }
      ],
      "name": "tokenURI",
      "outputs": [
        {
          "internalType": "string",
          "name": "",
          "type": "string"
        }
      ],
      "stateMutability": "view",
      "type": "function"
    },
    {
      "inputs": [
        {
          "internalType": "address",
          "name": "from",
          "type": "address"
        },
        {
          "internalType": "address",
          "name": "to",
          "type": "address"
        },
        {
          "internalType": "uint256",
          "name": "tokenId",
          "type": "uint256"
        }
      ],
      "name": "transferFrom",
      "outputs": [],
      "stateMutability": "nonpayable",
      "type": "function"
    },
    {
      "inputs": [],
      "name": "getTicketCount",
      "outputs": [
        {
          "internalType": "uint256",
          "name": "",
          "type": "uint256"
        }
      ],
      "stateMutability": "view",
      "type": "function"
    },
    {
      "inputs": [
        {
          "internalType": "address",
          "name": "_from",
          "type": "address"
        },
        {
          "internalType": "address",
          "name": "_to",
          "type": "address"
        },
        {
          "internalType": "uint256",
          "name": "_tokenId",
          "type": "uint256"
        }
      ],
      "name": "safeTransferFrom",
      "outputs": [],
      "stateMutability": "nonpayable",
      "type": "function"
    },
    {
      "inputs": [
        {
          "internalType": "address",
          "name": "from",
          "type": "address"
        },
        {
          "internalType": "address",
          "name": "to",
          "type": "address"
        },
        {
          "internalType": "uint256",
          "name": "tokenId",
          "type": "uint256"
        },
        {
          "internalType": "bytes",
          "name": "_data",
          "type": "bytes"
        }
      ],
      "name": "safeTransferFrom",
      "outputs": [],
      "stateMutability": "nonpayable",
      "type": "function"
    }
  ],
  "bytecode": "0x608060405260006007553480156200001657600080fd5b5060405162002af438038062002af483398181016040528101906200003c91906200021e565b6040518060400160405280600681526020017f5469636b657400000000000000000000000000000000000000000000000000008152506040518060400160405280600681526020017f5469636b657400000000000000000000000000000000000000000000000000008152508160009080519060200190620000c0929190620000fc565b508060019080519060200190620000d9929190620000fc565b5050508060089080519060200190620000f4929190620000fc565b505062000394565b8280546200010a9062000300565b90600052602060002090601f0160209004810192826200012e57600085556200017a565b82601f106200014957805160ff19168380011785556200017a565b828001600101855582156200017a579182015b82811115620001795782518255916020019190600101906200015c565b5b5090506200018991906200018d565b5090565b5b80821115620001a85760008160009055506001016200018e565b5090565b6000620001c3620001bd8462000297565b62000263565b905082815260208101848484011115620001dc57600080fd5b620001e9848285620002ca565b509392505050565b600082601f8301126200020357600080fd5b815162000215848260208601620001ac565b91505092915050565b6000602082840312156200023157600080fd5b600082015167ffffffffffffffff8111156200024c57600080fd5b6200025a84828501620001f1565b91505092915050565b6000604051905081810181811067ffffffffffffffff821117156200028d576200028c62000365565b5b8060405250919050565b600067ffffffffffffffff821115620002b557620002b462000365565b5b601f19601f8301169050602081019050919050565b60005b83811015620002ea578082015181840152602081019050620002cd565b83811115620002fa576000848401525b50505050565b600060028204905060018216806200031957607f821691505b6020821081141562000330576200032f62000336565b5b50919050565b7f4e487b7100000000000000000000000000000000000000000000000000000000600052602260045260246000fd5b7f4e487b7100000000000000000000000000000000000000000000000000000000600052604160045260246000fd5b61275080620003a46000396000f3fe608060405234801561001057600080fd5b50600436106100ea5760003560e01c80636352211e1161008c578063a22cb46511610066578063a22cb4651461025d578063b88d4fde14610279578063c87b56dd14610295578063e985e9c5146102c5576100ea565b80636352211e146101df57806370a082311461020f57806395d89b411461023f576100ea565b8063095ea7b3116100c8578063095ea7b31461016d57806321c63a471461018957806323b872dd146101a757806342842e0e146101c3576100ea565b806301ffc9a7146100ef57806306fdde031461011f578063081812fc1461013d575b600080fd5b610109600480360381019061010491906118ce565b6102f5565b60405161011691906120bd565b60405180910390f35b6101276103d7565b60405161013491906120d8565b60405180910390f35b61015760048036038101906101529190611920565b610469565b6040516101649190612056565b60405180910390f35b61018760048036038101906101829190611892565b6104ee565b005b610191610606565b60405161019e91906122da565b60405180910390f35b6101c160048036038101906101bc919061178c565b610610565b005b6101dd60048036038101906101d8919061178c565b610670565b005b6101f960048036038101906101f49190611920565b61069a565b6040516102069190612056565b60405180910390f35b61022960048036038101906102249190611727565b61074c565b60405161023691906122da565b60405180910390f35b610247610804565b60405161025491906120d8565b60405180910390f35b61027760048036038101906102729190611856565b610896565b005b610293600480360381019061028e91906117db565b610a17565b005b6102af60048036038101906102aa9190611920565b610a79565b6040516102bc91906120d8565b60405180910390f35b6102df60048036038101906102da9190611750565b610b20565b6040516102ec91906120bd565b60405180910390f35b60007f80ac58cd000000000000000000000000000000000000000000000000000000007bffffffffffffffffffffffffffffffffffffffffffffffffffffffff1916827bffffffffffffffffffffffffffffffffffffffffffffffffffffffff191614806103c057507f5b5e139f000000000000000000000000000000000000000000000000000000007bffffffffffffffffffffffffffffffffffffffffffffffffffffffff1916827bffffffffffffffffffffffffffffffffffffffffffffffffffffffff1916145b806103d057506103cf82610bb4565b5b9050919050565b6060600080546103e69061250a565b80601f01602080910402602001604051908101604052809291908181526020018280546104129061250a565b801561045f5780601f106104345761010080835404028352916020019161045f565b820191906000526020600020905b81548152906001019060200180831161044257829003601f168201915b5050505050905090565b600061047482610c1e565b6104b3576040517f08c379a00000000000000000000000000000000000000000000000000000000081526004016104aa9061221a565b60405180910390fd5b6004600083815260200190815260200160002060009054906101000a900473ffffffffffffffffffffffffffffffffffffffff169050919050565b60006104f98261069a565b90508073ffffffffffffffffffffffffffffffffffffffff168373ffffffffffffffffffffffffffffffffffffffff16141561056a576040517f08c379a00000000000000000000000000000000000000000000000000000000081526004016105619061229a565b60405180910390fd5b8073ffffffffffffffffffffffffffffffffffffffff16610589610c8a565b73ffffffffffffffffffffffffffffffffffffffff1614806105b857506105b7816105b2610c8a565b610b20565b5b6105f7576040517f08c379a00000000000000000000000000000000000000000000000000000000081526004016105ee906121ba565b60405180910390fd5b6106018383610c92565b505050565b6000600754905090565b61062161061b610c8a565b82610d4b565b610660576040517f08c379a0000000000000000000000000000000000000000000000000000000008152600401610657906122ba565b60405180910390fd5b61066b838383610e29565b505050565b61067a8183611085565b61069583838360405180602001604052806000815250610a17565b505050565b6000806002600084815260200190815260200160002060009054906101000a900473ffffffffffffffffffffffffffffffffffffffff169050600073ffffffffffffffffffffffffffffffffffffffff168173ffffffffffffffffffffffffffffffffffffffff161415610743576040517f08c379a000000000000000000000000000000000000000000000000000000000815260040161073a906121fa565b60405180910390fd5b80915050919050565b60008073ffffffffffffffffffffffffffffffffffffffff168273ffffffffffffffffffffffffffffffffffffffff1614156107bd576040517f08c379a00000000000000000000000000000000000000000000000000000000081526004016107b4906121da565b60405180910390fd5b600360008373ffffffffffffffffffffffffffffffffffffffff1673ffffffffffffffffffffffffffffffffffffffff168152602001908152602001600020549050919050565b6060600180546108139061250a565b80601f016020809104026020016040519081016040528092919081815260200182805461083f9061250a565b801561088c5780601f106108615761010080835404028352916020019161088c565b820191906000526020600020905b81548152906001019060200180831161086f57829003601f168201915b5050505050905090565b61089e610c8a565b73ffffffffffffffffffffffffffffffffffffffff168273ffffffffffffffffffffffffffffffffffffffff16141561090c576040517f08c379a00000000000000000000000000000000000000000000000000000000081526004016109039061217a565b60405180910390fd5b8060056000610919610c8a565b73ffffffffffffffffffffffffffffffffffffffff1673ffffffffffffffffffffffffffffffffffffffff16815260200190815260200160002060008473ffffffffffffffffffffffffffffffffffffffff1673ffffffffffffffffffffffffffffffffffffffff16815260200190815260200160002060006101000a81548160ff0219169083151502179055508173ffffffffffffffffffffffffffffffffffffffff166109c6610c8a565b73ffffffffffffffffffffffffffffffffffffffff167f17307eab39ab6107e8899845ad3d59bd9653f200f220920489ca2b5937696c3183604051610a0b91906120bd565b60405180910390a35050565b610a28610a22610c8a565b83610d4b565b610a67576040517f08c379a0000000000000000000000000000000000000000000000000000000008152600401610a5e906122ba565b60405180910390fd5b610a738484848461120c565b50505050565b6060610a8482610c1e565b610ac3576040517f08c379a0000000000000000000000000000000000000000000000000000000008152600401610aba9061227a565b60405180910390fd5b6000610acd611268565b90506000815111610aed5760405180602001604052806000815250610b18565b80610af7846112fa565b604051602001610b08929190611ff5565b6040516020818303038152906040525b915050919050565b6000600560008473ffffffffffffffffffffffffffffffffffffffff1673ffffffffffffffffffffffffffffffffffffffff16815260200190815260200160002060008373ffffffffffffffffffffffffffffffffffffffff1673ffffffffffffffffffffffffffffffffffffffff16815260200190815260200160002060009054906101000a900460ff16905092915050565b60007f01ffc9a7000000000000000000000000000000000000000000000000000000007bffffffffffffffffffffffffffffffffffffffffffffffffffffffff1916827bffffffffffffffffffffffffffffffffffffffffffffffffffffffff1916149050919050565b60008073ffffffffffffffffffffffffffffffffffffffff166002600084815260200190815260200160002060009054906101000a900473ffffffffffffffffffffffffffffffffffffffff1673ffffffffffffffffffffffffffffffffffffffff1614159050919050565b600033905090565b816004600083815260200190815260200160002060006101000a81548173ffffffffffffffffffffffffffffffffffffffff021916908373ffffffffffffffffffffffffffffffffffffffff160217905550808273ffffffffffffffffffffffffffffffffffffffff16610d058361069a565b73ffffffffffffffffffffffffffffffffffffffff167f8c5be1e5ebec7d5bd14f71427d1e84f3dd0314c0f7b2291e5b200ac8c7c3b92560405160405180910390a45050565b6000610d5682610c1e565b610d95576040517f08c379a0000000000000000000000000000000000000000000000000000000008152600401610d8c9061219a565b60405180910390fd5b6000610da08361069a565b90508073ffffffffffffffffffffffffffffffffffffffff168473ffffffffffffffffffffffffffffffffffffffff161480610e0f57508373ffffffffffffffffffffffffffffffffffffffff16610df784610469565b73ffffffffffffffffffffffffffffffffffffffff16145b80610e205750610e1f8185610b20565b5b91505092915050565b8273ffffffffffffffffffffffffffffffffffffffff16610e498261069a565b73ffffffffffffffffffffffffffffffffffffffff1614610e9f576040517f08c379a0000000000000000000000000000000000000000000000000000000008152600401610e969061225a565b60405180910390fd5b600073ffffffffffffffffffffffffffffffffffffffff168273ffffffffffffffffffffffffffffffffffffffff161415610f0f576040517f08c379a0000000000000000000000000000000000000000000000000000000008152600401610f069061215a565b60405180910390fd5b610f1a8383836114a7565b610f25600082610c92565b6001600360008573ffffffffffffffffffffffffffffffffffffffff1673ffffffffffffffffffffffffffffffffffffffff1681526020019081526020016000206000828254610f759190612420565b925050819055506001600360008473ffffffffffffffffffffffffffffffffffffffff1673ffffffffffffffffffffffffffffffffffffffff1681526020019081526020016000206000828254610fcc9190612399565b92505081905550816002600083815260200190815260200160002060006101000a81548173ffffffffffffffffffffffffffffffffffffffff021916908373ffffffffffffffffffffffffffffffffffffffff160217905550808273ffffffffffffffffffffffffffffffffffffffff168473ffffffffffffffffffffffffffffffffffffffff167fddf252ad1be2c89b69c2b068fc378daa952ba7f163c4a11628f55a4df523b3ef60405160405180910390a4505050565b6000801b600660008481526020019081526020016000205414156110de576040517f08c379a00000000000000000000000000000000000000000000000000000000081526004016110d59061223a565b60405180910390fd5b600073ffffffffffffffffffffffffffffffffffffffff168173ffffffffffffffffffffffffffffffffffffffff16141561114e576040517f08c379a00000000000000000000000000000000000000000000000000000000081526004016111459061213a565b60405180910390fd5b6111578261069a565b73ffffffffffffffffffffffffffffffffffffffff163373ffffffffffffffffffffffffffffffffffffffff16146111c4576040517f08c379a00000000000000000000000000000000000000000000000000000000081526004016111bb906120fa565b60405180910390fd5b42816007546040516020016111db93929190612019565b6040516020818303038152906040528051906020012060066000848152602001908152602001600020819055505050565b611217848484610e29565b611223848484846114ac565b611262576040517f08c379a00000000000000000000000000000000000000000000000000000000081526004016112599061211a565b60405180910390fd5b50505050565b6060600880546112779061250a565b80601f01602080910402602001604051908101604052809291908181526020018280546112a39061250a565b80156112f05780601f106112c5576101008083540402835291602001916112f0565b820191906000526020600020905b8154815290600101906020018083116112d357829003601f168201915b5050505050905090565b60606000821415611342576040518060400160405280600181526020017f300000000000000000000000000000000000000000000000000000000000000081525090506114a2565b600082905060005b6000821461137457808061135d9061253c565b915050600a8261136d91906123ef565b915061134a565b60008167ffffffffffffffff8111156113b6577f4e487b7100000000000000000000000000000000000000000000000000000000600052604160045260246000fd5b6040519080825280601f01601f1916602001820160405280156113e85781602001600182028036833780820191505090505b5090505b6000851461149b576001826114019190612420565b9150600a8561141091906125b3565b603061141c9190612399565b60f81b818381518110611458577f4e487b7100000000000000000000000000000000000000000000000000000000600052603260045260246000fd5b60200101907effffffffffffffffffffffffffffffffffffffffffffffffffffffffffffff1916908160001a905350600a8561149491906123ef565b94506113ec565b8093505050505b919050565b505050565b60006114cd8473ffffffffffffffffffffffffffffffffffffffff16611643565b15611636578373ffffffffffffffffffffffffffffffffffffffff1663150b7a026114f6610c8a565b8786866040518563ffffffff1660e01b81526004016115189493929190612071565b602060405180830381600087803b15801561153257600080fd5b505af192505050801561156357506040513d601f19601f8201168201806040525081019061156091906118f7565b60015b6115e6573d8060008114611593576040519150601f19603f3d011682016040523d82523d6000602084013e611598565b606091505b506000815114156115de576040517f08c379a00000000000000000000000000000000000000000000000000000000081526004016115d59061211a565b60405180910390fd5b805181602001fd5b63150b7a0260e01b7bffffffffffffffffffffffffffffffffffffffffffffffffffffffff1916817bffffffffffffffffffffffffffffffffffffffffffffffffffffffff19161491505061163b565b600190505b949350505050565b600080823b905060008111915050919050565b600061166961166484612326565b6122f5565b90508281526020810184848401111561168157600080fd5b61168c8482856124c8565b509392505050565b6000813590506116a3816126be565b92915050565b6000813590506116b8816126d5565b92915050565b6000813590506116cd816126ec565b92915050565b6000815190506116e2816126ec565b92915050565b600082601f8301126116f957600080fd5b8135611709848260208601611656565b91505092915050565b60008135905061172181612703565b92915050565b60006020828403121561173957600080fd5b600061174784828501611694565b91505092915050565b6000806040838503121561176357600080fd5b600061177185828601611694565b925050602061178285828601611694565b9150509250929050565b6000806000606084860312156117a157600080fd5b60006117af86828701611694565b93505060206117c086828701611694565b92505060406117d186828701611712565b9150509250925092565b600080600080608085870312156117f157600080fd5b60006117ff87828801611694565b945050602061181087828801611694565b935050604061182187828801611712565b925050606085013567ffffffffffffffff81111561183e57600080fd5b61184a878288016116e8565b91505092959194509250565b6000806040838503121561186957600080fd5b600061187785828601611694565b9250506020611888858286016116a9565b9150509250929050565b600080604083850312156118a557600080fd5b60006118b385828601611694565b92505060206118c485828601611712565b9150509250929050565b6000602082840312156118e057600080fd5b60006118ee848285016116be565b91505092915050565b60006020828403121561190957600080fd5b6000611917848285016116d3565b91505092915050565b60006020828403121561193257600080fd5b600061194084828501611712565b91505092915050565b61195281612454565b82525050565b61196961196482612454565b612585565b82525050565b61197881612466565b82525050565b600061198982612356565b611993818561236c565b93506119a38185602086016124d7565b6119ac816126a0565b840191505092915050565b60006119c282612361565b6119cc818561237d565b93506119dc8185602086016124d7565b6119e5816126a0565b840191505092915050565b60006119fb82612361565b611a05818561238e565b9350611a158185602086016124d7565b80840191505092915050565b6000611a2e602c8361237d565b91507f6d73672e73656e646572206e65656420746f206265204f776e657220746f206360008301527f68616e6765205152636f646500000000000000000000000000000000000000006020830152604082019050919050565b6000611a9460328361237d565b91507f4552433732313a207472616e7366657220746f206e6f6e20455243373231526560008301527f63656976657220696d706c656d656e74657200000000000000000000000000006020830152604082019050919050565b6000611afa60218361237d565b91507f6e65775469636b65744f776e6572206e65656420746f206265206e6f206e756c60008301527f6c000000000000000000000000000000000000000000000000000000000000006020830152604082019050919050565b6000611b6060248361237d565b91507f4552433732313a207472616e7366657220746f20746865207a65726f2061646460008301527f72657373000000000000000000000000000000000000000000000000000000006020830152604082019050919050565b6000611bc660198361237d565b91507f4552433732313a20617070726f766520746f2063616c6c6572000000000000006000830152602082019050919050565b6000611c06602c8361237d565b91507f4552433732313a206f70657261746f7220717565727920666f72206e6f6e657860008301527f697374656e7420746f6b656e00000000000000000000000000000000000000006020830152604082019050919050565b6000611c6c60388361237d565b91507f4552433732313a20617070726f76652063616c6c6572206973206e6f74206f7760008301527f6e6572206e6f7220617070726f76656420666f7220616c6c00000000000000006020830152604082019050919050565b6000611cd2602a8361237d565b91507f4552433732313a2062616c616e636520717565727920666f7220746865207a6560008301527f726f2061646472657373000000000000000000000000000000000000000000006020830152604082019050919050565b6000611d3860298361237d565b91507f4552433732313a206f776e657220717565727920666f72206e6f6e657869737460008301527f656e7420746f6b656e00000000000000000000000000000000000000000000006020830152604082019050919050565b6000611d9e602c8361237d565b91507f4552433732313a20617070726f76656420717565727920666f72206e6f6e657860008301527f697374656e7420746f6b656e00000000000000000000000000000000000000006020830152604082019050919050565b6000611e0460138361237d565b91507f746f6b656e206e65656420746f206578697374000000000000000000000000006000830152602082019050919050565b6000611e4460298361237d565b91507f4552433732313a207472616e73666572206f6620746f6b656e2074686174206960008301527f73206e6f74206f776e00000000000000000000000000000000000000000000006020830152604082019050919050565b6000611eaa602f8361237d565b91507f4552433732314d657461646174613a2055524920717565727920666f72206e6f60008301527f6e6578697374656e7420746f6b656e00000000000000000000000000000000006020830152604082019050919050565b6000611f1060218361237d565b91507f4552433732313a20617070726f76616c20746f2063757272656e74206f776e6560008301527f72000000000000000000000000000000000000000000000000000000000000006020830152604082019050919050565b6000611f7660318361237d565b91507f4552433732313a207472616e736665722063616c6c6572206973206e6f74206f60008301527f776e6572206e6f7220617070726f7665640000000000000000000000000000006020830152604082019050919050565b611fd8816124be565b82525050565b611fef611fea826124be565b6125a9565b82525050565b600061200182856119f0565b915061200d82846119f0565b91508190509392505050565b60006120258286611fde565b6020820191506120358285611958565b6014820191506120458284611fde565b602082019150819050949350505050565b600060208201905061206b6000830184611949565b92915050565b60006080820190506120866000830187611949565b6120936020830186611949565b6120a06040830185611fcf565b81810360608301526120b2818461197e565b905095945050505050565b60006020820190506120d2600083018461196f565b92915050565b600060208201905081810360008301526120f281846119b7565b905092915050565b6000602082019050818103600083015261211381611a21565b9050919050565b6000602082019050818103600083015261213381611a87565b9050919050565b6000602082019050818103600083015261215381611aed565b9050919050565b6000602082019050818103600083015261217381611b53565b9050919050565b6000602082019050818103600083015261219381611bb9565b9050919050565b600060208201905081810360008301526121b381611bf9565b9050919050565b600060208201905081810360008301526121d381611c5f565b9050919050565b600060208201905081810360008301526121f381611cc5565b9050919050565b6000602082019050818103600083015261221381611d2b565b9050919050565b6000602082019050818103600083015261223381611d91565b9050919050565b6000602082019050818103600083015261225381611df7565b9050919050565b6000602082019050818103600083015261227381611e37565b9050919050565b6000602082019050818103600083015261229381611e9d565b9050919050565b600060208201905081810360008301526122b381611f03565b9050919050565b600060208201905081810360008301526122d381611f69565b9050919050565b60006020820190506122ef6000830184611fcf565b92915050565b6000604051905081810181811067ffffffffffffffff8211171561231c5761231b612671565b5b8060405250919050565b600067ffffffffffffffff82111561234157612340612671565b5b601f19601f8301169050602081019050919050565b600081519050919050565b600081519050919050565b600082825260208201905092915050565b600082825260208201905092915050565b600081905092915050565b60006123a4826124be565b91506123af836124be565b9250827fffffffffffffffffffffffffffffffffffffffffffffffffffffffffffffffff038211156123e4576123e36125e4565b5b828201905092915050565b60006123fa826124be565b9150612405836124be565b92508261241557612414612613565b5b828204905092915050565b600061242b826124be565b9150612436836124be565b925082821015612449576124486125e4565b5b828203905092915050565b600061245f8261249e565b9050919050565b60008115159050919050565b60007fffffffff0000000000000000000000000000000000000000000000000000000082169050919050565b600073ffffffffffffffffffffffffffffffffffffffff82169050919050565b6000819050919050565b82818337600083830152505050565b60005b838110156124f55780820151818401526020810190506124da565b83811115612504576000848401525b50505050565b6000600282049050600182168061252257607f821691505b6020821081141561253657612535612642565b5b50919050565b6000612547826124be565b91507fffffffffffffffffffffffffffffffffffffffffffffffffffffffffffffffff82141561257a576125796125e4565b5b600182019050919050565b600061259082612597565b9050919050565b60006125a2826126b1565b9050919050565b6000819050919050565b60006125be826124be565b91506125c9836124be565b9250826125d9576125d8612613565b5b828206905092915050565b7f4e487b7100000000000000000000000000000000000000000000000000000000600052601160045260246000fd5b7f4e487b7100000000000000000000000000000000000000000000000000000000600052601260045260246000fd5b7f4e487b7100000000000000000000000000000000000000000000000000000000600052602260045260246000fd5b7f4e487b7100000000000000000000000000000000000000000000000000000000600052604160045260246000fd5b6000601f19601f8301169050919050565b60008160601b9050919050565b6126c781612454565b81146126d257600080fd5b50565b6126de81612466565b81146126e957600080fd5b50565b6126f581612472565b811461270057600080fd5b50565b61270c816124be565b811461271757600080fd5b5056fea2646970667358221220a9a0b06c3a43ad960bcaa2d8fe54b21fc7dee4cc98a6a2ace791ea5f7e262adc64736f6c63430008000033",
  "immutableReferences": {},
  "source": "// SPDX-License-Identifier: MIT\r\npragma solidity ^0.8.0;\r\n\r\nimport \"../node_modules/@openzeppelin/contracts/token/ERC721/ERC721.sol\";\r\n\r\ncontract Ticket is ERC721 {\r\n    // Mapping from ticket Id to ticket QR code\r\n    mapping(uint256 => bytes32) private _tokenIdQRcodeMapping;\r\n\r\n        // Number of ticket are minted\r\n        uint256 private _ticketCount = 0;\r\n\r\n        // Metadata base url\r\n        string private _theBaseURI;\r\n        constructor(string memory __theBaseURI) ERC721(\"Ticket\", \"Ticket\") {\r\n            _theBaseURI = __theBaseURI;\r\n        }\r\n\r\n\r\n        function _baseURI() internal override view returns (string memory) {\r\n             return _theBaseURI;\r\n         }\r\n\r\n\r\n        // getter\r\n        function getQRcode(uint256 _tokenId) internal view returns (bytes32) {\r\n            return _tokenIdQRcodeMapping[_tokenId];\r\n        }\r\n\r\n        function getTicketCount() public view returns (uint256) {\r\n            return _ticketCount;\r\n        }\r\n\r\n    /**\r\n     * @dev See {IERC721-safeTransferFrom}.\r\n     */\r\n    function safeTransferFrom(address _from, address _to, uint256 _tokenId) public override {\r\n        renewQRcode(_tokenId, _to);\r\n        safeTransferFrom(_from, _to, _tokenId, \"\");\r\n    }\r\n\r\n    /**\r\n     * @dev renew QRcode with token id and new address\r\n     * Requirements:\r\n     *\r\n     * - `tokenId` must not exist.\r\n     * - If `to` refers to a smart contract, it must implement {IERC721Receiver-onERC721Received}, which is called upon a safe transfer.\r\n     *\r\n     */\r\n\r\n    function renewQRcode(uint256 _tokenId, address _newTicketOwner) internal {\r\n        require(\r\n            _tokenIdQRcodeMapping[_tokenId] != bytes32(0),\r\n            \"token need to exist\"\r\n        );\r\n        require(\r\n            _newTicketOwner != address(0),\r\n            \"newTicketOwner need to be no null\"\r\n        );\r\n        require(\r\n            msg.sender == ownerOf(_tokenId),\r\n            \"msg.sender need to be Owner to change QRcode\"\r\n        );\r\n        _tokenIdQRcodeMapping[_tokenId] = keccak256(\r\n            abi.encodePacked(block.timestamp, _newTicketOwner, _ticketCount)\r\n        );\r\n    }\r\n\r\n        /**\r\n        * @dev mint ticket with no args\r\n        * Requirements:\r\n        *\r\n        * - `tokenId` must not exist.\r\n        * - If `to` refers to a smart contract, it must implement {IERC721Receiver-onERC721Received}, which is called upon a safe transfer.\r\n        *\r\n        */\r\n        function mint() internal {\r\n            _safeMint(msg.sender, _ticketCount);\r\n            // add qrcode\r\n            _tokenIdQRcodeMapping[_ticketCount] = keccak256(\r\n                abi.encodePacked(block.timestamp, msg.sender, _ticketCount)\r\n            );\r\n            _ticketCount += 1;\r\n        }\r\n    }\r\n\r\n    contract SimpleTicket  is Ticket(\"http://localhost:3000/api/v1\")  {\r\n        function renewQRcode_(uint256 _tokenId, address _newTicketHolder) external {\r\n            renewQRcode(_tokenId, _newTicketHolder);\r\n        }\r\n        \r\n        function getQRcode_(uint256 _tokenId) external view returns(bytes32){\r\n            return getQRcode(_tokenId);\r\n        }\r\n\r\n        function mint_() external {\r\n            mint();\r\n        }\r\n\r\n}\r\n",
  "sourcePath": "C:/Users/yiulaps/Desktop/workspace/Ticket/contract/contracts/Ticket.sol",
  "compiler": {
    "name": "solc",
    "version": "0.8.0+commit.c7dfd78e.Emscripten.clang"
  },
  "schemaVersion": "3.3.4",
  "updatedAt": "2021-05-14T06:48:55.950Z",
  "devdoc": {
    "kind": "dev",
    "methods": {
      "approve(address,uint256)": {
        "details": "See {IERC721-approve}."
      },
      "balanceOf(address)": {
        "details": "See {IERC721-balanceOf}."
      },
      "getApproved(uint256)": {
        "details": "See {IERC721-getApproved}."
      },
      "isApprovedForAll(address,address)": {
        "details": "See {IERC721-isApprovedForAll}."
      },
      "name()": {
        "details": "See {IERC721Metadata-name}."
      },
      "ownerOf(uint256)": {
        "details": "See {IERC721-ownerOf}."
      },
      "safeTransferFrom(address,address,uint256)": {
        "details": "See {IERC721-safeTransferFrom}."
      },
      "safeTransferFrom(address,address,uint256,bytes)": {
        "details": "See {IERC721-safeTransferFrom}."
      },
      "setApprovalForAll(address,bool)": {
        "details": "See {IERC721-setApprovalForAll}."
      },
      "supportsInterface(bytes4)": {
        "details": "See {IERC165-supportsInterface}."
      },
      "symbol()": {
        "details": "See {IERC721Metadata-symbol}."
      },
      "tokenURI(uint256)": {
        "details": "See {IERC721Metadata-tokenURI}."
      },
      "transferFrom(address,address,uint256)": {
        "details": "See {IERC721-transferFrom}."
      }
    },
    "version": 1
  },
  "userdoc": {
    "kind": "user",
    "methods": {},
    "version": 1
  }
}