{
  "contractName": "TicketTest",
  "abi": [
    {
      "anonymous": false,
      "inputs": [
        {
          "indexed": true,
          "internalType": "address",
          "name": "owner",
          "type": "address"
        },
        {
          "indexed": true,
          "internalType": "address",
          "name": "approved",
          "type": "address"
        },
        {
          "indexed": true,
          "internalType": "uint256",
          "name": "tokenId",
          "type": "uint256"
        }
      ],
      "name": "Approval",
      "type": "event"
    },
    {
      "anonymous": false,
      "inputs": [
        {
          "indexed": true,
          "internalType": "address",
          "name": "owner",
          "type": "address"
        },
        {
          "indexed": true,
          "internalType": "address",
          "name": "operator",
          "type": "address"
        },
        {
          "indexed": false,
          "internalType": "bool",
          "name": "approved",
          "type": "bool"
        }
      ],
      "name": "ApprovalForAll",
      "type": "event"
    },
    {
      "anonymous": false,
      "inputs": [
        {
          "indexed": true,
          "internalType": "address",
          "name": "from",
          "type": "address"
        },
        {
          "indexed": true,
          "internalType": "address",
          "name": "to",
          "type": "address"
        },
        {
          "indexed": true,
          "internalType": "uint256",
          "name": "tokenId",
          "type": "uint256"
        }
      ],
      "name": "Transfer",
      "type": "event"
    },
    {
      "inputs": [
        {
          "internalType": "address",
          "name": "to",
          "type": "address"
        },
        {
          "internalType": "uint256",
          "name": "tokenId",
          "type": "uint256"
        }
      ],
      "name": "approve",
      "outputs": [],
      "stateMutability": "nonpayable",
      "type": "function"
    },
    {
      "inputs": [
        {
          "internalType": "address",
          "name": "owner",
          "type": "address"
        }
      ],
      "name": "balanceOf",
      "outputs": [
        {
          "internalType": "uint256",
          "name": "",
          "type": "uint256"
        }
      ],
      "stateMutability": "view",
      "type": "function"
    },
    {
      "inputs": [
        {
          "internalType": "uint256",
          "name": "tokenId",
          "type": "uint256"
        }
      ],
      "name": "getApproved",
      "outputs": [
        {
          "internalType": "address",
          "name": "",
          "type": "address"
        }
      ],
      "stateMutability": "view",
      "type": "function"
    },
    {
      "inputs": [],
      "name": "getTicketCount",
      "outputs": [
        {
          "internalType": "uint256",
          "name": "",
          "type": "uint256"
        }
      ],
      "stateMutability": "view",
      "type": "function"
    },
    {
      "inputs": [
        {
          "internalType": "address",
          "name": "owner",
          "type": "address"
        },
        {
          "internalType": "address",
          "name": "operator",
          "type": "address"
        }
      ],
      "name": "isApprovedForAll",
      "outputs": [
        {
          "internalType": "bool",
          "name": "",
          "type": "bool"
        }
      ],
      "stateMutability": "view",
      "type": "function"
    },
    {
      "inputs": [],
      "name": "name",
      "outputs": [
        {
          "internalType": "string",
          "name": "",
          "type": "string"
        }
      ],
      "stateMutability": "view",
      "type": "function"
    },
    {
      "inputs": [
        {
          "internalType": "uint256",
          "name": "tokenId",
          "type": "uint256"
        }
      ],
      "name": "ownerOf",
      "outputs": [
        {
          "internalType": "address",
          "name": "",
          "type": "address"
        }
      ],
      "stateMutability": "view",
      "type": "function"
    },
    {
      "inputs": [
        {
          "internalType": "address",
          "name": "_from",
          "type": "address"
        },
        {
          "internalType": "address",
          "name": "_to",
          "type": "address"
        },
        {
          "internalType": "uint256",
          "name": "_tokenId",
          "type": "uint256"
        }
      ],
      "name": "safeTransferFrom",
      "outputs": [],
      "stateMutability": "nonpayable",
      "type": "function"
    },
    {
      "inputs": [
        {
          "internalType": "address",
          "name": "from",
          "type": "address"
        },
        {
          "internalType": "address",
          "name": "to",
          "type": "address"
        },
        {
          "internalType": "uint256",
          "name": "tokenId",
          "type": "uint256"
        },
        {
          "internalType": "bytes",
          "name": "_data",
          "type": "bytes"
        }
      ],
      "name": "safeTransferFrom",
      "outputs": [],
      "stateMutability": "nonpayable",
      "type": "function"
    },
    {
      "inputs": [
        {
          "internalType": "address",
          "name": "operator",
          "type": "address"
        },
        {
          "internalType": "bool",
          "name": "approved",
          "type": "bool"
        }
      ],
      "name": "setApprovalForAll",
      "outputs": [],
      "stateMutability": "nonpayable",
      "type": "function"
    },
    {
      "inputs": [
        {
          "internalType": "bytes4",
          "name": "interfaceId",
          "type": "bytes4"
        }
      ],
      "name": "supportsInterface",
      "outputs": [
        {
          "internalType": "bool",
          "name": "",
          "type": "bool"
        }
      ],
      "stateMutability": "view",
      "type": "function"
    },
    {
      "inputs": [],
      "name": "symbol",
      "outputs": [
        {
          "internalType": "string",
          "name": "",
          "type": "string"
        }
      ],
      "stateMutability": "view",
      "type": "function"
    },
    {
      "inputs": [
        {
          "internalType": "uint256",
          "name": "tokenId",
          "type": "uint256"
        }
      ],
      "name": "tokenURI",
      "outputs": [
        {
          "internalType": "string",
          "name": "",
          "type": "string"
        }
      ],
      "stateMutability": "view",
      "type": "function"
    },
    {
      "inputs": [
        {
          "internalType": "address",
          "name": "from",
          "type": "address"
        },
        {
          "internalType": "address",
          "name": "to",
          "type": "address"
        },
        {
          "internalType": "uint256",
          "name": "tokenId",
          "type": "uint256"
        }
      ],
      "name": "transferFrom",
      "outputs": [],
      "stateMutability": "nonpayable",
      "type": "function"
    },
    {
      "inputs": [
        {
          "internalType": "uint256",
          "name": "_tokenId",
          "type": "uint256"
        },
        {
          "internalType": "address",
          "name": "_newTicketHolder",
          "type": "address"
        }
      ],
      "name": "renewQRcode_",
      "outputs": [],
      "stateMutability": "nonpayable",
      "type": "function"
    },
    {
      "inputs": [
        {
          "internalType": "uint256",
          "name": "_tokenId",
          "type": "uint256"
        }
      ],
      "name": "getQRcode_",
      "outputs": [
        {
          "internalType": "bytes32",
          "name": "",
          "type": "bytes32"
        }
      ],
      "stateMutability": "nonpayable",
      "type": "function"
    },
    {
      "inputs": [],
      "name": "mint_",
      "outputs": [],
      "stateMutability": "nonpayable",
      "type": "function"
    }
  ],
  "bytecode": "0x608060405260006007553480156200001657600080fd5b506040518060400160405280601c81526020017f687474703a2f2f6c6f63616c686f73743a333030302f6170692f7631000000008152506040518060400160405280600681526020017f5469636b657400000000000000000000000000000000000000000000000000008152506040518060400160405280600681526020017f5469636b657400000000000000000000000000000000000000000000000000008152508160009080519060200190620000d19291906200010d565b508060019080519060200190620000ea9291906200010d565b5050508060089080519060200190620001059291906200010d565b505062000222565b8280546200011b90620001bd565b90600052602060002090601f0160209004810192826200013f57600085556200018b565b82601f106200015a57805160ff19168380011785556200018b565b828001600101855582156200018b579182015b828111156200018a5782518255916020019190600101906200016d565b5b5090506200019a91906200019e565b5090565b5b80821115620001b95760008160009055506001016200019f565b5090565b60006002820490506001821680620001d657607f821691505b60208210811415620001ed57620001ec620001f3565b5b50919050565b7f4e487b7100000000000000000000000000000000000000000000000000000000600052602260045260246000fd5b612bf380620002326000396000f3fe608060405234801561001057600080fd5b506004361061010b5760003560e01c806370a08231116100a2578063c87b56dd11610071578063c87b56dd146102b6578063cdd90327146102e6578063e985e9c514610316578063f60aecd414610346578063fea47589146103625761010b565b806370a082311461023057806395d89b4114610260578063a22cb4651461027e578063b88d4fde1461029a5761010b565b806321c63a47116100de57806321c63a47146101aa57806323b872dd146101c857806342842e0e146101e45780636352211e146102005761010b565b806301ffc9a71461011057806306fdde0314610140578063081812fc1461015e578063095ea7b31461018e575b600080fd5b61012a60048036038101906101259190611c41565b61036c565b60405161013791906124fb565b60405180910390f35b61014861044e565b6040516101559190612531565b60405180910390f35b61017860048036038101906101739190611c93565b6104e0565b6040516101859190612494565b60405180910390f35b6101a860048036038101906101a39190611c05565b610565565b005b6101b261067d565b6040516101bf9190612773565b60405180910390f35b6101e260048036038101906101dd9190611aff565b610687565b005b6101fe60048036038101906101f99190611aff565b6106e7565b005b61021a60048036038101906102159190611c93565b610711565b6040516102279190612494565b60405180910390f35b61024a60048036038101906102459190611a9a565b6107c3565b6040516102579190612773565b60405180910390f35b61026861087b565b6040516102759190612531565b60405180910390f35b61029860048036038101906102939190611bc9565b61090d565b005b6102b460048036038101906102af9190611b4e565b610a8e565b005b6102d060048036038101906102cb9190611c93565b610af0565b6040516102dd9190612531565b60405180910390f35b61030060048036038101906102fb9190611c93565b610b97565b60405161030d9190612516565b60405180910390f35b610330600480360381019061032b9190611ac3565b610ba9565b60405161033d91906124fb565b60405180910390f35b610360600480360381019061035b9190611cbc565b610c3d565b005b61036a610c4b565b005b60007f80ac58cd000000000000000000000000000000000000000000000000000000007bffffffffffffffffffffffffffffffffffffffffffffffffffffffff1916827bffffffffffffffffffffffffffffffffffffffffffffffffffffffff1916148061043757507f5b5e139f000000000000000000000000000000000000000000000000000000007bffffffffffffffffffffffffffffffffffffffffffffffffffffffff1916827bffffffffffffffffffffffffffffffffffffffffffffffffffffffff1916145b80610447575061044682610c55565b5b9050919050565b60606000805461045d906129ad565b80601f0160208091040260200160405190810160405280929190818152602001828054610489906129ad565b80156104d65780601f106104ab576101008083540402835291602001916104d6565b820191906000526020600020905b8154815290600101906020018083116104b957829003601f168201915b5050505050905090565b60006104eb82610cbf565b61052a576040517f08c379a0000000000000000000000000000000000000000000000000000000008152600401610521906126b3565b60405180910390fd5b6004600083815260200190815260200160002060009054906101000a900473ffffffffffffffffffffffffffffffffffffffff169050919050565b600061057082610711565b90508073ffffffffffffffffffffffffffffffffffffffff168373ffffffffffffffffffffffffffffffffffffffff1614156105e1576040517f08c379a00000000000000000000000000000000000000000000000000000000081526004016105d890612733565b60405180910390fd5b8073ffffffffffffffffffffffffffffffffffffffff16610600610d2b565b73ffffffffffffffffffffffffffffffffffffffff16148061062f575061062e81610629610d2b565b610ba9565b5b61066e576040517f08c379a000000000000000000000000000000000000000000000000000000000815260040161066590612633565b60405180910390fd5b6106788383610d33565b505050565b6000600754905090565b610698610692610d2b565b82610dec565b6106d7576040517f08c379a00000000000000000000000000000000000000000000000000000000081526004016106ce90612753565b60405180910390fd5b6106e2838383610eca565b505050565b6106f18183611126565b61070c83838360405180602001604052806000815250610a8e565b505050565b6000806002600084815260200190815260200160002060009054906101000a900473ffffffffffffffffffffffffffffffffffffffff169050600073ffffffffffffffffffffffffffffffffffffffff168173ffffffffffffffffffffffffffffffffffffffff1614156107ba576040517f08c379a00000000000000000000000000000000000000000000000000000000081526004016107b190612673565b60405180910390fd5b80915050919050565b60008073ffffffffffffffffffffffffffffffffffffffff168273ffffffffffffffffffffffffffffffffffffffff161415610834576040517f08c379a000000000000000000000000000000000000000000000000000000000815260040161082b90612653565b60405180910390fd5b600360008373ffffffffffffffffffffffffffffffffffffffff1673ffffffffffffffffffffffffffffffffffffffff168152602001908152602001600020549050919050565b60606001805461088a906129ad565b80601f01602080910402602001604051908101604052809291908181526020018280546108b6906129ad565b80156109035780601f106108d857610100808354040283529160200191610903565b820191906000526020600020905b8154815290600101906020018083116108e657829003601f168201915b5050505050905090565b610915610d2b565b73ffffffffffffffffffffffffffffffffffffffff168273ffffffffffffffffffffffffffffffffffffffff161415610983576040517f08c379a000000000000000000000000000000000000000000000000000000000815260040161097a906125f3565b60405180910390fd5b8060056000610990610d2b565b73ffffffffffffffffffffffffffffffffffffffff1673ffffffffffffffffffffffffffffffffffffffff16815260200190815260200160002060008473ffffffffffffffffffffffffffffffffffffffff1673ffffffffffffffffffffffffffffffffffffffff16815260200190815260200160002060006101000a81548160ff0219169083151502179055508173ffffffffffffffffffffffffffffffffffffffff16610a3d610d2b565b73ffffffffffffffffffffffffffffffffffffffff167f17307eab39ab6107e8899845ad3d59bd9653f200f220920489ca2b5937696c3183604051610a8291906124fb565b60405180910390a35050565b610a9f610a99610d2b565b83610dec565b610ade576040517f08c379a0000000000000000000000000000000000000000000000000000000008152600401610ad590612753565b60405180910390fd5b610aea848484846112ad565b50505050565b6060610afb82610cbf565b610b3a576040517f08c379a0000000000000000000000000000000000000000000000000000000008152600401610b3190612713565b60405180910390fd5b6000610b44611309565b90506000815111610b645760405180602001604052806000815250610b8f565b80610b6e8461139b565b604051602001610b7f929190612433565b6040516020818303038152906040525b915050919050565b6000610ba282611548565b9050919050565b6000600560008473ffffffffffffffffffffffffffffffffffffffff1673ffffffffffffffffffffffffffffffffffffffff16815260200190815260200160002060008373ffffffffffffffffffffffffffffffffffffffff1673ffffffffffffffffffffffffffffffffffffffff16815260200190815260200160002060009054906101000a900460ff16905092915050565b610c478282611126565b5050565b610c53611565565b565b60007f01ffc9a7000000000000000000000000000000000000000000000000000000007bffffffffffffffffffffffffffffffffffffffffffffffffffffffff1916827bffffffffffffffffffffffffffffffffffffffffffffffffffffffff1916149050919050565b60008073ffffffffffffffffffffffffffffffffffffffff166002600084815260200190815260200160002060009054906101000a900473ffffffffffffffffffffffffffffffffffffffff1673ffffffffffffffffffffffffffffffffffffffff1614159050919050565b600033905090565b816004600083815260200190815260200160002060006101000a81548173ffffffffffffffffffffffffffffffffffffffff021916908373ffffffffffffffffffffffffffffffffffffffff160217905550808273ffffffffffffffffffffffffffffffffffffffff16610da683610711565b73ffffffffffffffffffffffffffffffffffffffff167f8c5be1e5ebec7d5bd14f71427d1e84f3dd0314c0f7b2291e5b200ac8c7c3b92560405160405180910390a45050565b6000610df782610cbf565b610e36576040517f08c379a0000000000000000000000000000000000000000000000000000000008152600401610e2d90612613565b60405180910390fd5b6000610e4183610711565b90508073ffffffffffffffffffffffffffffffffffffffff168473ffffffffffffffffffffffffffffffffffffffff161480610eb057508373ffffffffffffffffffffffffffffffffffffffff16610e98846104e0565b73ffffffffffffffffffffffffffffffffffffffff16145b80610ec15750610ec08185610ba9565b5b91505092915050565b8273ffffffffffffffffffffffffffffffffffffffff16610eea82610711565b73ffffffffffffffffffffffffffffffffffffffff1614610f40576040517f08c379a0000000000000000000000000000000000000000000000000000000008152600401610f37906126f3565b60405180910390fd5b600073ffffffffffffffffffffffffffffffffffffffff168273ffffffffffffffffffffffffffffffffffffffff161415610fb0576040517f08c379a0000000000000000000000000000000000000000000000000000000008152600401610fa7906125d3565b60405180910390fd5b610fbb8383836115d3565b610fc6600082610d33565b6001600360008573ffffffffffffffffffffffffffffffffffffffff1673ffffffffffffffffffffffffffffffffffffffff168152602001908152602001600020600082825461101691906128b9565b925050819055506001600360008473ffffffffffffffffffffffffffffffffffffffff1673ffffffffffffffffffffffffffffffffffffffff168152602001908152602001600020600082825461106d9190612832565b92505081905550816002600083815260200190815260200160002060006101000a81548173ffffffffffffffffffffffffffffffffffffffff021916908373ffffffffffffffffffffffffffffffffffffffff160217905550808273ffffffffffffffffffffffffffffffffffffffff168473ffffffffffffffffffffffffffffffffffffffff167fddf252ad1be2c89b69c2b068fc378daa952ba7f163c4a11628f55a4df523b3ef60405160405180910390a4505050565b6000801b6006600084815260200190815260200160002054141561117f576040517f08c379a0000000000000000000000000000000000000000000000000000000008152600401611176906126d3565b60405180910390fd5b600073ffffffffffffffffffffffffffffffffffffffff168173ffffffffffffffffffffffffffffffffffffffff1614156111ef576040517f08c379a00000000000000000000000000000000000000000000000000000000081526004016111e690612593565b60405180910390fd5b6111f882610711565b73ffffffffffffffffffffffffffffffffffffffff163373ffffffffffffffffffffffffffffffffffffffff1614611265576040517f08c379a000000000000000000000000000000000000000000000000000000000815260040161125c90612553565b60405180910390fd5b428160075460405160200161127c93929190612457565b6040516020818303038152906040528051906020012060066000848152602001908152602001600020819055505050565b6112b8848484610eca565b6112c4848484846115d8565b611303576040517f08c379a00000000000000000000000000000000000000000000000000000000081526004016112fa90612573565b60405180910390fd5b50505050565b606060088054611318906129ad565b80601f0160208091040260200160405190810160405280929190818152602001828054611344906129ad565b80156113915780601f1061136657610100808354040283529160200191611391565b820191906000526020600020905b81548152906001019060200180831161137457829003601f168201915b5050505050905090565b606060008214156113e3576040518060400160405280600181526020017f30000000000000000000000000000000000000000000000000000000000000008152509050611543565b600082905060005b600082146114155780806113fe906129df565b915050600a8261140e9190612888565b91506113eb565b60008167ffffffffffffffff811115611457577f4e487b7100000000000000000000000000000000000000000000000000000000600052604160045260246000fd5b6040519080825280601f01601f1916602001820160405280156114895781602001600182028036833780820191505090505b5090505b6000851461153c576001826114a291906128b9565b9150600a856114b19190612a56565b60306114bd9190612832565b60f81b8183815181106114f9577f4e487b7100000000000000000000000000000000000000000000000000000000600052603260045260246000fd5b60200101907effffffffffffffffffffffffffffffffffffffffffffffffffffffffffffff1916908160001a905350600a856115359190612888565b945061148d565b8093505050505b919050565b600060066000838152602001908152602001600020549050919050565b6115713360075461176f565b423360075460405160200161158893929190612457565b60405160208183030381529060405280519060200120600660006007548152602001908152602001600020819055506001600760008282546115ca9190612832565b92505081905550565b505050565b60006115f98473ffffffffffffffffffffffffffffffffffffffff1661178d565b15611762578373ffffffffffffffffffffffffffffffffffffffff1663150b7a02611622610d2b565b8786866040518563ffffffff1660e01b815260040161164494939291906124af565b602060405180830381600087803b15801561165e57600080fd5b505af192505050801561168f57506040513d601f19601f8201168201806040525081019061168c9190611c6a565b60015b611712573d80600081146116bf576040519150601f19603f3d011682016040523d82523d6000602084013e6116c4565b606091505b5060008151141561170a576040517f08c379a000000000000000000000000000000000000000000000000000000000815260040161170190612573565b60405180910390fd5b805181602001fd5b63150b7a0260e01b7bffffffffffffffffffffffffffffffffffffffffffffffffffffffff1916817bffffffffffffffffffffffffffffffffffffffffffffffffffffffff191614915050611767565b600190505b949350505050565b6117898282604051806020016040528060008152506117a0565b5050565b600080823b905060008111915050919050565b6117aa83836117fb565b6117b760008484846115d8565b6117f6576040517f08c379a00000000000000000000000000000000000000000000000000000000081526004016117ed90612573565b60405180910390fd5b505050565b600073ffffffffffffffffffffffffffffffffffffffff168273ffffffffffffffffffffffffffffffffffffffff16141561186b576040517f08c379a000000000000000000000000000000000000000000000000000000000815260040161186290612693565b60405180910390fd5b61187481610cbf565b156118b4576040517f08c379a00000000000000000000000000000000000000000000000000000000081526004016118ab906125b3565b60405180910390fd5b6118c0600083836115d3565b6001600360008473ffffffffffffffffffffffffffffffffffffffff1673ffffffffffffffffffffffffffffffffffffffff16815260200190815260200160002060008282546119109190612832565b92505081905550816002600083815260200190815260200160002060006101000a81548173ffffffffffffffffffffffffffffffffffffffff021916908373ffffffffffffffffffffffffffffffffffffffff160217905550808273ffffffffffffffffffffffffffffffffffffffff16600073ffffffffffffffffffffffffffffffffffffffff167fddf252ad1be2c89b69c2b068fc378daa952ba7f163c4a11628f55a4df523b3ef60405160405180910390a45050565b60006119dc6119d7846127bf565b61278e565b9050828152602081018484840111156119f457600080fd5b6119ff84828561296b565b509392505050565b600081359050611a1681612b61565b92915050565b600081359050611a2b81612b78565b92915050565b600081359050611a4081612b8f565b92915050565b600081519050611a5581612b8f565b92915050565b600082601f830112611a6c57600080fd5b8135611a7c8482602086016119c9565b91505092915050565b600081359050611a9481612ba6565b92915050565b600060208284031215611aac57600080fd5b6000611aba84828501611a07565b91505092915050565b60008060408385031215611ad657600080fd5b6000611ae485828601611a07565b9250506020611af585828601611a07565b9150509250929050565b600080600060608486031215611b1457600080fd5b6000611b2286828701611a07565b9350506020611b3386828701611a07565b9250506040611b4486828701611a85565b9150509250925092565b60008060008060808587031215611b6457600080fd5b6000611b7287828801611a07565b9450506020611b8387828801611a07565b9350506040611b9487828801611a85565b925050606085013567ffffffffffffffff811115611bb157600080fd5b611bbd87828801611a5b565b91505092959194509250565b60008060408385031215611bdc57600080fd5b6000611bea85828601611a07565b9250506020611bfb85828601611a1c565b9150509250929050565b60008060408385031215611c1857600080fd5b6000611c2685828601611a07565b9250506020611c3785828601611a85565b9150509250929050565b600060208284031215611c5357600080fd5b6000611c6184828501611a31565b91505092915050565b600060208284031215611c7c57600080fd5b6000611c8a84828501611a46565b91505092915050565b600060208284031215611ca557600080fd5b6000611cb384828501611a85565b91505092915050565b60008060408385031215611ccf57600080fd5b6000611cdd85828601611a85565b9250506020611cee85828601611a07565b9150509250929050565b611d01816128ed565b82525050565b611d18611d13826128ed565b612a28565b82525050565b611d27816128ff565b82525050565b611d368161290b565b82525050565b6000611d47826127ef565b611d518185612805565b9350611d6181856020860161297a565b611d6a81612b43565b840191505092915050565b6000611d80826127fa565b611d8a8185612816565b9350611d9a81856020860161297a565b611da381612b43565b840191505092915050565b6000611db9826127fa565b611dc38185612827565b9350611dd381856020860161297a565b80840191505092915050565b6000611dec602c83612816565b91507f6d73672e73656e646572206e65656420746f206265204f776e657220746f206360008301527f68616e6765205152636f646500000000000000000000000000000000000000006020830152604082019050919050565b6000611e52603283612816565b91507f4552433732313a207472616e7366657220746f206e6f6e20455243373231526560008301527f63656976657220696d706c656d656e74657200000000000000000000000000006020830152604082019050919050565b6000611eb8602183612816565b91507f6e65775469636b65744f776e6572206e65656420746f206265206e6f206e756c60008301527f6c000000000000000000000000000000000000000000000000000000000000006020830152604082019050919050565b6000611f1e601c83612816565b91507f4552433732313a20746f6b656e20616c7265616479206d696e746564000000006000830152602082019050919050565b6000611f5e602483612816565b91507f4552433732313a207472616e7366657220746f20746865207a65726f2061646460008301527f72657373000000000000000000000000000000000000000000000000000000006020830152604082019050919050565b6000611fc4601983612816565b91507f4552433732313a20617070726f766520746f2063616c6c6572000000000000006000830152602082019050919050565b6000612004602c83612816565b91507f4552433732313a206f70657261746f7220717565727920666f72206e6f6e657860008301527f697374656e7420746f6b656e00000000000000000000000000000000000000006020830152604082019050919050565b600061206a603883612816565b91507f4552433732313a20617070726f76652063616c6c6572206973206e6f74206f7760008301527f6e6572206e6f7220617070726f76656420666f7220616c6c00000000000000006020830152604082019050919050565b60006120d0602a83612816565b91507f4552433732313a2062616c616e636520717565727920666f7220746865207a6560008301527f726f2061646472657373000000000000000000000000000000000000000000006020830152604082019050919050565b6000612136602983612816565b91507f4552433732313a206f776e657220717565727920666f72206e6f6e657869737460008301527f656e7420746f6b656e00000000000000000000000000000000000000000000006020830152604082019050919050565b600061219c602083612816565b91507f4552433732313a206d696e7420746f20746865207a65726f20616464726573736000830152602082019050919050565b60006121dc602c83612816565b91507f4552433732313a20617070726f76656420717565727920666f72206e6f6e657860008301527f697374656e7420746f6b656e00000000000000000000000000000000000000006020830152604082019050919050565b6000612242601383612816565b91507f746f6b656e206e65656420746f206578697374000000000000000000000000006000830152602082019050919050565b6000612282602983612816565b91507f4552433732313a207472616e73666572206f6620746f6b656e2074686174206960008301527f73206e6f74206f776e00000000000000000000000000000000000000000000006020830152604082019050919050565b60006122e8602f83612816565b91507f4552433732314d657461646174613a2055524920717565727920666f72206e6f60008301527f6e6578697374656e7420746f6b656e00000000000000000000000000000000006020830152604082019050919050565b600061234e602183612816565b91507f4552433732313a20617070726f76616c20746f2063757272656e74206f776e6560008301527f72000000000000000000000000000000000000000000000000000000000000006020830152604082019050919050565b60006123b4603183612816565b91507f4552433732313a207472616e736665722063616c6c6572206973206e6f74206f60008301527f776e6572206e6f7220617070726f7665640000000000000000000000000000006020830152604082019050919050565b61241681612961565b82525050565b61242d61242882612961565b612a4c565b82525050565b600061243f8285611dae565b915061244b8284611dae565b91508190509392505050565b6000612463828661241c565b6020820191506124738285611d07565b601482019150612483828461241c565b602082019150819050949350505050565b60006020820190506124a96000830184611cf8565b92915050565b60006080820190506124c46000830187611cf8565b6124d16020830186611cf8565b6124de604083018561240d565b81810360608301526124f08184611d3c565b905095945050505050565b60006020820190506125106000830184611d1e565b92915050565b600060208201905061252b6000830184611d2d565b92915050565b6000602082019050818103600083015261254b8184611d75565b905092915050565b6000602082019050818103600083015261256c81611ddf565b9050919050565b6000602082019050818103600083015261258c81611e45565b9050919050565b600060208201905081810360008301526125ac81611eab565b9050919050565b600060208201905081810360008301526125cc81611f11565b9050919050565b600060208201905081810360008301526125ec81611f51565b9050919050565b6000602082019050818103600083015261260c81611fb7565b9050919050565b6000602082019050818103600083015261262c81611ff7565b9050919050565b6000602082019050818103600083015261264c8161205d565b9050919050565b6000602082019050818103600083015261266c816120c3565b9050919050565b6000602082019050818103600083015261268c81612129565b9050919050565b600060208201905081810360008301526126ac8161218f565b9050919050565b600060208201905081810360008301526126cc816121cf565b9050919050565b600060208201905081810360008301526126ec81612235565b9050919050565b6000602082019050818103600083015261270c81612275565b9050919050565b6000602082019050818103600083015261272c816122db565b9050919050565b6000602082019050818103600083015261274c81612341565b9050919050565b6000602082019050818103600083015261276c816123a7565b9050919050565b6000602082019050612788600083018461240d565b92915050565b6000604051905081810181811067ffffffffffffffff821117156127b5576127b4612b14565b5b8060405250919050565b600067ffffffffffffffff8211156127da576127d9612b14565b5b601f19601f8301169050602081019050919050565b600081519050919050565b600081519050919050565b600082825260208201905092915050565b600082825260208201905092915050565b600081905092915050565b600061283d82612961565b915061284883612961565b9250827fffffffffffffffffffffffffffffffffffffffffffffffffffffffffffffffff0382111561287d5761287c612a87565b5b828201905092915050565b600061289382612961565b915061289e83612961565b9250826128ae576128ad612ab6565b5b828204905092915050565b60006128c482612961565b91506128cf83612961565b9250828210156128e2576128e1612a87565b5b828203905092915050565b60006128f882612941565b9050919050565b60008115159050919050565b6000819050919050565b60007fffffffff0000000000000000000000000000000000000000000000000000000082169050919050565b600073ffffffffffffffffffffffffffffffffffffffff82169050919050565b6000819050919050565b82818337600083830152505050565b60005b8381101561299857808201518184015260208101905061297d565b838111156129a7576000848401525b50505050565b600060028204905060018216806129c557607f821691505b602082108114156129d9576129d8612ae5565b5b50919050565b60006129ea82612961565b91507fffffffffffffffffffffffffffffffffffffffffffffffffffffffffffffffff821415612a1d57612a1c612a87565b5b600182019050919050565b6000612a3382612a3a565b9050919050565b6000612a4582612b54565b9050919050565b6000819050919050565b6000612a6182612961565b9150612a6c83612961565b925082612a7c57612a7b612ab6565b5b828206905092915050565b7f4e487b7100000000000000000000000000000000000000000000000000000000600052601160045260246000fd5b7f4e487b7100000000000000000000000000000000000000000000000000000000600052601260045260246000fd5b7f4e487b7100000000000000000000000000000000000000000000000000000000600052602260045260246000fd5b7f4e487b7100000000000000000000000000000000000000000000000000000000600052604160045260246000fd5b6000601f19601f8301169050919050565b60008160601b9050919050565b612b6a816128ed565b8114612b7557600080fd5b50565b612b81816128ff565b8114612b8c57600080fd5b50565b612b9881612915565b8114612ba357600080fd5b50565b612baf81612961565b8114612bba57600080fd5b5056fea26469706673582212204485f6feb6e50f4da5b8cfb1d5e07172e688d1fda7ba78d94cc2c638bb5d0a8264736f6c63430008000033",
  "immutableReferences": {},
  "source": "// SPDX-License-Identifier: MIT\r\npragma solidity ^0.8.0;\r\n\r\nimport \"../node_modules/@openzeppelin/contracts/token/ERC721/ERC721.sol\";\r\n\r\ncontract Ticket is ERC721 {\r\n    // Mapping from ticket Id to ticket QR code\r\n    mapping(uint256 => bytes32) private _tokenIdQRcodeMapping;\r\n\r\n        // Number of ticket are minted\r\n        uint256 private _ticketCount = 0;\r\n\r\n        // Metadata base url\r\n        string private _theBaseURI;\r\n        constructor(string memory __theBaseURI) ERC721(\"Ticket\", \"Ticket\") {\r\n            _theBaseURI = __theBaseURI;\r\n        }\r\n\r\n\r\n        function _baseURI() internal override view returns (string memory) {\r\n             return _theBaseURI;\r\n         }\r\n\r\n\r\n        // getter\r\n        function getQRcode(uint256 _tokenId) internal view returns (bytes32) {\r\n            return _tokenIdQRcodeMapping[_tokenId];\r\n        }\r\n\r\n        function getTicketCount() public view returns (uint256) {\r\n            return _ticketCount;\r\n        }\r\n\r\n    /**\r\n     * @dev See {IERC721-safeTransferFrom}.\r\n     */\r\n    function safeTransferFrom(address _from, address _to, uint256 _tokenId) public override {\r\n        renewQRcode(_tokenId, _to);\r\n        safeTransferFrom(_from, _to, _tokenId, \"\");\r\n    }\r\n\r\n    /**\r\n     * @dev renew QRcode with token id and new address\r\n     * Requirements:\r\n     *\r\n     * - `tokenId` must not exist.\r\n     * - If `to` refers to a smart contract, it must implement {IERC721Receiver-onERC721Received}, which is called upon a safe transfer.\r\n     *\r\n     */\r\n\r\n    function renewQRcode(uint256 _tokenId, address _newTicketOwner) internal {\r\n        require(\r\n            _tokenIdQRcodeMapping[_tokenId] != bytes32(0),\r\n            \"token need to exist\"\r\n        );\r\n        require(\r\n            _newTicketOwner != address(0),\r\n            \"newTicketOwner need to be no null\"\r\n        );\r\n        require(\r\n            msg.sender == ownerOf(_tokenId),\r\n            \"msg.sender need to be Owner to change QRcode\"\r\n        );\r\n        _tokenIdQRcodeMapping[_tokenId] = keccak256(\r\n            abi.encodePacked(block.timestamp, _newTicketOwner, _ticketCount)\r\n        );\r\n    }\r\n\r\n        /**\r\n        * @dev mint ticket with no args\r\n        * Requirements:\r\n        *\r\n        * - `tokenId` must not exist.\r\n        * - If `to` refers to a smart contract, it must implement {IERC721Receiver-onERC721Received}, which is called upon a safe transfer.\r\n        *\r\n        */\r\n        function mint() internal {\r\n            _safeMint(msg.sender, _ticketCount);\r\n            // add qrcode\r\n            _tokenIdQRcodeMapping[_ticketCount] = keccak256(\r\n                abi.encodePacked(block.timestamp, msg.sender, _ticketCount)\r\n            );\r\n            _ticketCount += 1;\r\n        }\r\n    }\r\n\r\n    contract TicketTest  is Ticket(\"http://localhost:3000/api/v1\")  {\r\n        function renewQRcode_(uint256 _tokenId, address _newTicketHolder) external {\r\n            renewQRcode(_tokenId, _newTicketHolder);\r\n        }\r\n\r\n        function getQRcode_(uint256 _tokenId) external returns(bytes32){\r\n            return getQRcode(_tokenId);\r\n        }\r\n\r\n        function mint_() external {\r\n            mint();\r\n        }\r\n\r\n}\r\n",
  "sourcePath": "C:/Users/15077693d/Desktop/workplace/Ticket/smart-contracts/contracts/Ticket.sol",
  "compiler": {
    "name": "solc",
    "version": "0.8.0+commit.c7dfd78e.Emscripten.clang"
  },
  "schemaVersion": "3.3.3",
  "updatedAt": "2021-05-11T01:06:35.666Z",
  "devdoc": {
    "kind": "dev",
    "methods": {
      "approve(address,uint256)": {
        "details": "See {IERC721-approve}."
      },
      "balanceOf(address)": {
        "details": "See {IERC721-balanceOf}."
      },
      "getApproved(uint256)": {
        "details": "See {IERC721-getApproved}."
      },
      "isApprovedForAll(address,address)": {
        "details": "See {IERC721-isApprovedForAll}."
      },
      "name()": {
        "details": "See {IERC721Metadata-name}."
      },
      "ownerOf(uint256)": {
        "details": "See {IERC721-ownerOf}."
      },
      "safeTransferFrom(address,address,uint256)": {
        "details": "See {IERC721-safeTransferFrom}."
      },
      "safeTransferFrom(address,address,uint256,bytes)": {
        "details": "See {IERC721-safeTransferFrom}."
      },
      "setApprovalForAll(address,bool)": {
        "details": "See {IERC721-setApprovalForAll}."
      },
      "supportsInterface(bytes4)": {
        "details": "See {IERC165-supportsInterface}."
      },
      "symbol()": {
        "details": "See {IERC721Metadata-symbol}."
      },
      "tokenURI(uint256)": {
        "details": "See {IERC721Metadata-tokenURI}."
      },
      "transferFrom(address,address,uint256)": {
        "details": "See {IERC721-transferFrom}."
      }
    },
    "version": 1
  },
  "userdoc": {
    "kind": "user",
    "methods": {},
    "version": 1
  }
}