{
  "contractName": "Ticket",
  "abi": [
    {
      "inputs": [
        {
          "internalType": "string",
          "name": "__theBaseURI",
          "type": "string"
        }
      ],
      "stateMutability": "nonpayable",
      "type": "constructor"
    },
    {
      "anonymous": false,
      "inputs": [
        {
          "indexed": true,
          "internalType": "address",
          "name": "owner",
          "type": "address"
        },
        {
          "indexed": true,
          "internalType": "address",
          "name": "approved",
          "type": "address"
        },
        {
          "indexed": true,
          "internalType": "uint256",
          "name": "tokenId",
          "type": "uint256"
        }
      ],
      "name": "Approval",
      "type": "event"
    },
    {
      "anonymous": false,
      "inputs": [
        {
          "indexed": true,
          "internalType": "address",
          "name": "owner",
          "type": "address"
        },
        {
          "indexed": true,
          "internalType": "address",
          "name": "operator",
          "type": "address"
        },
        {
          "indexed": false,
          "internalType": "bool",
          "name": "approved",
          "type": "bool"
        }
      ],
      "name": "ApprovalForAll",
      "type": "event"
    },
    {
      "anonymous": false,
      "inputs": [
        {
          "indexed": true,
          "internalType": "address",
          "name": "from",
          "type": "address"
        },
        {
          "indexed": true,
          "internalType": "address",
          "name": "to",
          "type": "address"
        },
        {
          "indexed": true,
          "internalType": "uint256",
          "name": "tokenId",
          "type": "uint256"
        }
      ],
      "name": "Transfer",
      "type": "event"
    },
    {
      "inputs": [
        {
          "internalType": "address",
          "name": "to",
          "type": "address"
        },
        {
          "internalType": "uint256",
          "name": "tokenId",
          "type": "uint256"
        }
      ],
      "name": "approve",
      "outputs": [],
      "stateMutability": "nonpayable",
      "type": "function"
    },
    {
      "inputs": [
        {
          "internalType": "address",
          "name": "owner",
          "type": "address"
        }
      ],
      "name": "balanceOf",
      "outputs": [
        {
          "internalType": "uint256",
          "name": "",
          "type": "uint256"
        }
      ],
      "stateMutability": "view",
      "type": "function",
      "constant": true
    },
    {
      "inputs": [
        {
          "internalType": "uint256",
          "name": "tokenId",
          "type": "uint256"
        }
      ],
      "name": "getApproved",
      "outputs": [
        {
          "internalType": "address",
          "name": "",
          "type": "address"
        }
      ],
      "stateMutability": "view",
      "type": "function",
      "constant": true
    },
    {
      "inputs": [
        {
          "internalType": "address",
          "name": "owner",
          "type": "address"
        },
        {
          "internalType": "address",
          "name": "operator",
          "type": "address"
        }
      ],
      "name": "isApprovedForAll",
      "outputs": [
        {
          "internalType": "bool",
          "name": "",
          "type": "bool"
        }
      ],
      "stateMutability": "view",
      "type": "function",
      "constant": true
    },
    {
      "inputs": [],
      "name": "name",
      "outputs": [
        {
          "internalType": "string",
          "name": "",
          "type": "string"
        }
      ],
      "stateMutability": "view",
      "type": "function",
      "constant": true
    },
    {
      "inputs": [
        {
          "internalType": "uint256",
          "name": "tokenId",
          "type": "uint256"
        }
      ],
      "name": "ownerOf",
      "outputs": [
        {
          "internalType": "address",
          "name": "",
          "type": "address"
        }
      ],
      "stateMutability": "view",
      "type": "function",
      "constant": true
    },
    {
      "inputs": [
        {
          "internalType": "address",
          "name": "from",
          "type": "address"
        },
        {
          "internalType": "address",
          "name": "to",
          "type": "address"
        },
        {
          "internalType": "uint256",
          "name": "tokenId",
          "type": "uint256"
        }
      ],
      "name": "safeTransferFrom",
      "outputs": [],
      "stateMutability": "nonpayable",
      "type": "function"
    },
    {
      "inputs": [
        {
          "internalType": "address",
          "name": "from",
          "type": "address"
        },
        {
          "internalType": "address",
          "name": "to",
          "type": "address"
        },
        {
          "internalType": "uint256",
          "name": "tokenId",
          "type": "uint256"
        },
        {
          "internalType": "bytes",
          "name": "_data",
          "type": "bytes"
        }
      ],
      "name": "safeTransferFrom",
      "outputs": [],
      "stateMutability": "nonpayable",
      "type": "function"
    },
    {
      "inputs": [
        {
          "internalType": "address",
          "name": "operator",
          "type": "address"
        },
        {
          "internalType": "bool",
          "name": "approved",
          "type": "bool"
        }
      ],
      "name": "setApprovalForAll",
      "outputs": [],
      "stateMutability": "nonpayable",
      "type": "function"
    },
    {
      "inputs": [
        {
          "internalType": "bytes4",
          "name": "interfaceId",
          "type": "bytes4"
        }
      ],
      "name": "supportsInterface",
      "outputs": [
        {
          "internalType": "bool",
          "name": "",
          "type": "bool"
        }
      ],
      "stateMutability": "view",
      "type": "function",
      "constant": true
    },
    {
      "inputs": [],
      "name": "symbol",
      "outputs": [
        {
          "internalType": "string",
          "name": "",
          "type": "string"
        }
      ],
      "stateMutability": "view",
      "type": "function",
      "constant": true
    },
    {
      "inputs": [
        {
          "internalType": "uint256",
          "name": "tokenId",
          "type": "uint256"
        }
      ],
      "name": "tokenURI",
      "outputs": [
        {
          "internalType": "string",
          "name": "",
          "type": "string"
        }
      ],
      "stateMutability": "view",
      "type": "function",
      "constant": true
    },
    {
      "inputs": [
        {
          "internalType": "address",
          "name": "from",
          "type": "address"
        },
        {
          "internalType": "address",
          "name": "to",
          "type": "address"
        },
        {
          "internalType": "uint256",
          "name": "tokenId",
          "type": "uint256"
        }
      ],
      "name": "transferFrom",
      "outputs": [],
      "stateMutability": "nonpayable",
      "type": "function"
    },
    {
      "inputs": [],
      "name": "getTicketCount",
      "outputs": [
        {
          "internalType": "uint256",
          "name": "",
          "type": "uint256"
        }
      ],
      "stateMutability": "view",
      "type": "function",
      "constant": true
    },
    {
      "inputs": [],
      "name": "mint",
      "outputs": [],
      "stateMutability": "nonpayable",
      "type": "function"
    }
  ],
  "bytecode": "0x608060405260006007553480156200001657600080fd5b5060405162002b0638038062002b0683398181016040528101906200003c91906200021e565b6040518060400160405280600681526020017f5469636b657400000000000000000000000000000000000000000000000000008152506040518060400160405280600681526020017f5469636b657400000000000000000000000000000000000000000000000000008152508160009080519060200190620000c0929190620000fc565b508060019080519060200190620000d9929190620000fc565b5050508060089080519060200190620000f4929190620000fc565b505062000394565b8280546200010a9062000300565b90600052602060002090601f0160209004810192826200012e57600085556200017a565b82601f106200014957805160ff19168380011785556200017a565b828001600101855582156200017a579182015b82811115620001795782518255916020019190600101906200015c565b5b5090506200018991906200018d565b5090565b5b80821115620001a85760008160009055506001016200018e565b5090565b6000620001c3620001bd8462000297565b62000263565b905082815260208101848484011115620001dc57600080fd5b620001e9848285620002ca565b509392505050565b600082601f8301126200020357600080fd5b815162000215848260208601620001ac565b91505092915050565b6000602082840312156200023157600080fd5b600082015167ffffffffffffffff8111156200024c57600080fd5b6200025a84828501620001f1565b91505092915050565b6000604051905081810181811067ffffffffffffffff821117156200028d576200028c62000365565b5b8060405250919050565b600067ffffffffffffffff821115620002b557620002b462000365565b5b601f19601f8301169050602081019050919050565b60005b83811015620002ea578082015181840152602081019050620002cd565b83811115620002fa576000848401525b50505050565b600060028204905060018216806200031957607f821691505b6020821081141562000330576200032f62000336565b5b50919050565b7f4e487b7100000000000000000000000000000000000000000000000000000000600052602260045260246000fd5b7f4e487b7100000000000000000000000000000000000000000000000000000000600052604160045260246000fd5b61276280620003a46000396000f3fe608060405234801561001057600080fd5b50600436106100f55760003560e01c806342842e0e11610097578063a22cb46511610066578063a22cb46514610272578063b88d4fde1461028e578063c87b56dd146102aa578063e985e9c5146102da576100f5565b806342842e0e146101d85780636352211e146101f457806370a082311461022457806395d89b4114610254576100f5565b8063095ea7b3116100d3578063095ea7b3146101785780631249c58b1461019457806321c63a471461019e57806323b872dd146101bc576100f5565b806301ffc9a7146100fa57806306fdde031461012a578063081812fc14610148575b600080fd5b610114600480360381019061010f919061198c565b61030a565b60405161012191906120ef565b60405180910390f35b6101326103ec565b60405161013f919061210a565b60405180910390f35b610162600480360381019061015d91906119de565b61047e565b60405161016f9190612088565b60405180910390f35b610192600480360381019061018d9190611950565b610503565b005b61019c61061b565b005b6101a6610689565b6040516101b391906122ec565b60405180910390f35b6101d660048036038101906101d1919061184a565b610693565b005b6101f260048036038101906101ed919061184a565b6106f3565b005b61020e600480360381019061020991906119de565b610713565b60405161021b9190612088565b60405180910390f35b61023e600480360381019061023991906117e5565b6107c5565b60405161024b91906122ec565b60405180910390f35b61025c61087d565b604051610269919061210a565b60405180910390f35b61028c60048036038101906102879190611914565b61090f565b005b6102a860048036038101906102a39190611899565b610a90565b005b6102c460048036038101906102bf91906119de565b610af2565b6040516102d1919061210a565b60405180910390f35b6102f460048036038101906102ef919061180e565b610b99565b60405161030191906120ef565b60405180910390f35b60007f80ac58cd000000000000000000000000000000000000000000000000000000007bffffffffffffffffffffffffffffffffffffffffffffffffffffffff1916827bffffffffffffffffffffffffffffffffffffffffffffffffffffffff191614806103d557507f5b5e139f000000000000000000000000000000000000000000000000000000007bffffffffffffffffffffffffffffffffffffffffffffffffffffffff1916827bffffffffffffffffffffffffffffffffffffffffffffffffffffffff1916145b806103e557506103e482610c2d565b5b9050919050565b6060600080546103fb9061251c565b80601f01602080910402602001604051908101604052809291908181526020018280546104279061251c565b80156104745780601f1061044957610100808354040283529160200191610474565b820191906000526020600020905b81548152906001019060200180831161045757829003601f168201915b5050505050905090565b600061048982610c97565b6104c8576040517f08c379a00000000000000000000000000000000000000000000000000000000081526004016104bf9061224c565b60405180910390fd5b6004600083815260200190815260200160002060009054906101000a900473ffffffffffffffffffffffffffffffffffffffff169050919050565b600061050e82610713565b90508073ffffffffffffffffffffffffffffffffffffffff168373ffffffffffffffffffffffffffffffffffffffff16141561057f576040517f08c379a0000000000000000000000000000000000000000000000000000000008152600401610576906122ac565b60405180910390fd5b8073ffffffffffffffffffffffffffffffffffffffff1661059e610d03565b73ffffffffffffffffffffffffffffffffffffffff1614806105cd57506105cc816105c7610d03565b610b99565b5b61060c576040517f08c379a0000000000000000000000000000000000000000000000000000000008152600401610603906121cc565b60405180910390fd5b6106168383610d0b565b505050565b61062733600754610dc4565b423360075460405160200161063e9392919061204b565b604051602081830303815290604052805190602001206006600060075481526020019081526020016000208190555060016007600082825461068091906123ab565b92505081905550565b6000600754905090565b6106a461069e610d03565b82610de2565b6106e3576040517f08c379a00000000000000000000000000000000000000000000000000000000081526004016106da906122cc565b60405180910390fd5b6106ee838383610ec0565b505050565b61070e83838360405180602001604052806000815250610a90565b505050565b6000806002600084815260200190815260200160002060009054906101000a900473ffffffffffffffffffffffffffffffffffffffff169050600073ffffffffffffffffffffffffffffffffffffffff168173ffffffffffffffffffffffffffffffffffffffff1614156107bc576040517f08c379a00000000000000000000000000000000000000000000000000000000081526004016107b39061220c565b60405180910390fd5b80915050919050565b60008073ffffffffffffffffffffffffffffffffffffffff168273ffffffffffffffffffffffffffffffffffffffff161415610836576040517f08c379a000000000000000000000000000000000000000000000000000000000815260040161082d906121ec565b60405180910390fd5b600360008373ffffffffffffffffffffffffffffffffffffffff1673ffffffffffffffffffffffffffffffffffffffff168152602001908152602001600020549050919050565b60606001805461088c9061251c565b80601f01602080910402602001604051908101604052809291908181526020018280546108b89061251c565b80156109055780601f106108da57610100808354040283529160200191610905565b820191906000526020600020905b8154815290600101906020018083116108e857829003601f168201915b5050505050905090565b610917610d03565b73ffffffffffffffffffffffffffffffffffffffff168273ffffffffffffffffffffffffffffffffffffffff161415610985576040517f08c379a000000000000000000000000000000000000000000000000000000000815260040161097c9061218c565b60405180910390fd5b8060056000610992610d03565b73ffffffffffffffffffffffffffffffffffffffff1673ffffffffffffffffffffffffffffffffffffffff16815260200190815260200160002060008473ffffffffffffffffffffffffffffffffffffffff1673ffffffffffffffffffffffffffffffffffffffff16815260200190815260200160002060006101000a81548160ff0219169083151502179055508173ffffffffffffffffffffffffffffffffffffffff16610a3f610d03565b73ffffffffffffffffffffffffffffffffffffffff167f17307eab39ab6107e8899845ad3d59bd9653f200f220920489ca2b5937696c3183604051610a8491906120ef565b60405180910390a35050565b610aa1610a9b610d03565b83610de2565b610ae0576040517f08c379a0000000000000000000000000000000000000000000000000000000008152600401610ad7906122cc565b60405180910390fd5b610aec8484848461111c565b50505050565b6060610afd82610c97565b610b3c576040517f08c379a0000000000000000000000000000000000000000000000000000000008152600401610b339061228c565b60405180910390fd5b6000610b46611178565b90506000815111610b665760405180602001604052806000815250610b91565b80610b708461118f565b604051602001610b81929190612027565b6040516020818303038152906040525b915050919050565b6000600560008473ffffffffffffffffffffffffffffffffffffffff1673ffffffffffffffffffffffffffffffffffffffff16815260200190815260200160002060008373ffffffffffffffffffffffffffffffffffffffff1673ffffffffffffffffffffffffffffffffffffffff16815260200190815260200160002060009054906101000a900460ff16905092915050565b60007f01ffc9a7000000000000000000000000000000000000000000000000000000007bffffffffffffffffffffffffffffffffffffffffffffffffffffffff1916827bffffffffffffffffffffffffffffffffffffffffffffffffffffffff1916149050919050565b60008073ffffffffffffffffffffffffffffffffffffffff166002600084815260200190815260200160002060009054906101000a900473ffffffffffffffffffffffffffffffffffffffff1673ffffffffffffffffffffffffffffffffffffffff1614159050919050565b600033905090565b816004600083815260200190815260200160002060006101000a81548173ffffffffffffffffffffffffffffffffffffffff021916908373ffffffffffffffffffffffffffffffffffffffff160217905550808273ffffffffffffffffffffffffffffffffffffffff16610d7e83610713565b73ffffffffffffffffffffffffffffffffffffffff167f8c5be1e5ebec7d5bd14f71427d1e84f3dd0314c0f7b2291e5b200ac8c7c3b92560405160405180910390a45050565b610dde82826040518060200160405280600081525061133c565b5050565b6000610ded82610c97565b610e2c576040517f08c379a0000000000000000000000000000000000000000000000000000000008152600401610e23906121ac565b60405180910390fd5b6000610e3783610713565b90508073ffffffffffffffffffffffffffffffffffffffff168473ffffffffffffffffffffffffffffffffffffffff161480610ea657508373ffffffffffffffffffffffffffffffffffffffff16610e8e8461047e565b73ffffffffffffffffffffffffffffffffffffffff16145b80610eb75750610eb68185610b99565b5b91505092915050565b8273ffffffffffffffffffffffffffffffffffffffff16610ee082610713565b73ffffffffffffffffffffffffffffffffffffffff1614610f36576040517f08c379a0000000000000000000000000000000000000000000000000000000008152600401610f2d9061226c565b60405180910390fd5b600073ffffffffffffffffffffffffffffffffffffffff168273ffffffffffffffffffffffffffffffffffffffff161415610fa6576040517f08c379a0000000000000000000000000000000000000000000000000000000008152600401610f9d9061216c565b60405180910390fd5b610fb1838383611397565b610fbc600082610d0b565b6001600360008573ffffffffffffffffffffffffffffffffffffffff1673ffffffffffffffffffffffffffffffffffffffff168152602001908152602001600020600082825461100c9190612432565b925050819055506001600360008473ffffffffffffffffffffffffffffffffffffffff1673ffffffffffffffffffffffffffffffffffffffff168152602001908152602001600020600082825461106391906123ab565b92505081905550816002600083815260200190815260200160002060006101000a81548173ffffffffffffffffffffffffffffffffffffffff021916908373ffffffffffffffffffffffffffffffffffffffff160217905550808273ffffffffffffffffffffffffffffffffffffffff168473ffffffffffffffffffffffffffffffffffffffff167fddf252ad1be2c89b69c2b068fc378daa952ba7f163c4a11628f55a4df523b3ef60405160405180910390a4505050565b611127848484610ec0565b6111338484848461139c565b611172576040517f08c379a00000000000000000000000000000000000000000000000000000000081526004016111699061212c565b60405180910390fd5b50505050565b606060405180602001604052806000815250905090565b606060008214156111d7576040518060400160405280600181526020017f30000000000000000000000000000000000000000000000000000000000000008152509050611337565b600082905060005b600082146112095780806111f29061254e565b915050600a826112029190612401565b91506111df565b60008167ffffffffffffffff81111561124b577f4e487b7100000000000000000000000000000000000000000000000000000000600052604160045260246000fd5b6040519080825280601f01601f19166020018201604052801561127d5781602001600182028036833780820191505090505b5090505b60008514611330576001826112969190612432565b9150600a856112a591906125c5565b60306112b191906123ab565b60f81b8183815181106112ed577f4e487b7100000000000000000000000000000000000000000000000000000000600052603260045260246000fd5b60200101907effffffffffffffffffffffffffffffffffffffffffffffffffffffffffffff1916908160001a905350600a856113299190612401565b9450611281565b8093505050505b919050565b6113468383611533565b611353600084848461139c565b611392576040517f08c379a00000000000000000000000000000000000000000000000000000000081526004016113899061212c565b60405180910390fd5b505050565b505050565b60006113bd8473ffffffffffffffffffffffffffffffffffffffff16611701565b15611526578373ffffffffffffffffffffffffffffffffffffffff1663150b7a026113e6610d03565b8786866040518563ffffffff1660e01b815260040161140894939291906120a3565b602060405180830381600087803b15801561142257600080fd5b505af192505050801561145357506040513d601f19601f8201168201806040525081019061145091906119b5565b60015b6114d6573d8060008114611483576040519150601f19603f3d011682016040523d82523d6000602084013e611488565b606091505b506000815114156114ce576040517f08c379a00000000000000000000000000000000000000000000000000000000081526004016114c59061212c565b60405180910390fd5b805181602001fd5b63150b7a0260e01b7bffffffffffffffffffffffffffffffffffffffffffffffffffffffff1916817bffffffffffffffffffffffffffffffffffffffffffffffffffffffff19161491505061152b565b600190505b949350505050565b600073ffffffffffffffffffffffffffffffffffffffff168273ffffffffffffffffffffffffffffffffffffffff1614156115a3576040517f08c379a000000000000000000000000000000000000000000000000000000000815260040161159a9061222c565b60405180910390fd5b6115ac81610c97565b156115ec576040517f08c379a00000000000000000000000000000000000000000000000000000000081526004016115e39061214c565b60405180910390fd5b6115f860008383611397565b6001600360008473ffffffffffffffffffffffffffffffffffffffff1673ffffffffffffffffffffffffffffffffffffffff168152602001908152602001600020600082825461164891906123ab565b92505081905550816002600083815260200190815260200160002060006101000a81548173ffffffffffffffffffffffffffffffffffffffff021916908373ffffffffffffffffffffffffffffffffffffffff160217905550808273ffffffffffffffffffffffffffffffffffffffff16600073ffffffffffffffffffffffffffffffffffffffff167fddf252ad1be2c89b69c2b068fc378daa952ba7f163c4a11628f55a4df523b3ef60405160405180910390a45050565b600080823b905060008111915050919050565b600061172761172284612338565b612307565b90508281526020810184848401111561173f57600080fd5b61174a8482856124da565b509392505050565b600081359050611761816126d0565b92915050565b600081359050611776816126e7565b92915050565b60008135905061178b816126fe565b92915050565b6000815190506117a0816126fe565b92915050565b600082601f8301126117b757600080fd5b81356117c7848260208601611714565b91505092915050565b6000813590506117df81612715565b92915050565b6000602082840312156117f757600080fd5b600061180584828501611752565b91505092915050565b6000806040838503121561182157600080fd5b600061182f85828601611752565b925050602061184085828601611752565b9150509250929050565b60008060006060848603121561185f57600080fd5b600061186d86828701611752565b935050602061187e86828701611752565b925050604061188f868287016117d0565b9150509250925092565b600080600080608085870312156118af57600080fd5b60006118bd87828801611752565b94505060206118ce87828801611752565b93505060406118df878288016117d0565b925050606085013567ffffffffffffffff8111156118fc57600080fd5b611908878288016117a6565b91505092959194509250565b6000806040838503121561192757600080fd5b600061193585828601611752565b925050602061194685828601611767565b9150509250929050565b6000806040838503121561196357600080fd5b600061197185828601611752565b9250506020611982858286016117d0565b9150509250929050565b60006020828403121561199e57600080fd5b60006119ac8482850161177c565b91505092915050565b6000602082840312156119c757600080fd5b60006119d584828501611791565b91505092915050565b6000602082840312156119f057600080fd5b60006119fe848285016117d0565b91505092915050565b611a1081612466565b82525050565b611a27611a2282612466565b612597565b82525050565b611a3681612478565b82525050565b6000611a4782612368565b611a51818561237e565b9350611a618185602086016124e9565b611a6a816126b2565b840191505092915050565b6000611a8082612373565b611a8a818561238f565b9350611a9a8185602086016124e9565b611aa3816126b2565b840191505092915050565b6000611ab982612373565b611ac381856123a0565b9350611ad38185602086016124e9565b80840191505092915050565b6000611aec60328361238f565b91507f4552433732313a207472616e7366657220746f206e6f6e20455243373231526560008301527f63656976657220696d706c656d656e74657200000000000000000000000000006020830152604082019050919050565b6000611b52601c8361238f565b91507f4552433732313a20746f6b656e20616c7265616479206d696e746564000000006000830152602082019050919050565b6000611b9260248361238f565b91507f4552433732313a207472616e7366657220746f20746865207a65726f2061646460008301527f72657373000000000000000000000000000000000000000000000000000000006020830152604082019050919050565b6000611bf860198361238f565b91507f4552433732313a20617070726f766520746f2063616c6c6572000000000000006000830152602082019050919050565b6000611c38602c8361238f565b91507f4552433732313a206f70657261746f7220717565727920666f72206e6f6e657860008301527f697374656e7420746f6b656e00000000000000000000000000000000000000006020830152604082019050919050565b6000611c9e60388361238f565b91507f4552433732313a20617070726f76652063616c6c6572206973206e6f74206f7760008301527f6e6572206e6f7220617070726f76656420666f7220616c6c00000000000000006020830152604082019050919050565b6000611d04602a8361238f565b91507f4552433732313a2062616c616e636520717565727920666f7220746865207a6560008301527f726f2061646472657373000000000000000000000000000000000000000000006020830152604082019050919050565b6000611d6a60298361238f565b91507f4552433732313a206f776e657220717565727920666f72206e6f6e657869737460008301527f656e7420746f6b656e00000000000000000000000000000000000000000000006020830152604082019050919050565b6000611dd060208361238f565b91507f4552433732313a206d696e7420746f20746865207a65726f20616464726573736000830152602082019050919050565b6000611e10602c8361238f565b91507f4552433732313a20617070726f76656420717565727920666f72206e6f6e657860008301527f697374656e7420746f6b656e00000000000000000000000000000000000000006020830152604082019050919050565b6000611e7660298361238f565b91507f4552433732313a207472616e73666572206f6620746f6b656e2074686174206960008301527f73206e6f74206f776e00000000000000000000000000000000000000000000006020830152604082019050919050565b6000611edc602f8361238f565b91507f4552433732314d657461646174613a2055524920717565727920666f72206e6f60008301527f6e6578697374656e7420746f6b656e00000000000000000000000000000000006020830152604082019050919050565b6000611f4260218361238f565b91507f4552433732313a20617070726f76616c20746f2063757272656e74206f776e6560008301527f72000000000000000000000000000000000000000000000000000000000000006020830152604082019050919050565b6000611fa860318361238f565b91507f4552433732313a207472616e736665722063616c6c6572206973206e6f74206f60008301527f776e6572206e6f7220617070726f7665640000000000000000000000000000006020830152604082019050919050565b61200a816124d0565b82525050565b61202161201c826124d0565b6125bb565b82525050565b60006120338285611aae565b915061203f8284611aae565b91508190509392505050565b60006120578286612010565b6020820191506120678285611a16565b6014820191506120778284612010565b602082019150819050949350505050565b600060208201905061209d6000830184611a07565b92915050565b60006080820190506120b86000830187611a07565b6120c56020830186611a07565b6120d26040830185612001565b81810360608301526120e48184611a3c565b905095945050505050565b60006020820190506121046000830184611a2d565b92915050565b600060208201905081810360008301526121248184611a75565b905092915050565b6000602082019050818103600083015261214581611adf565b9050919050565b6000602082019050818103600083015261216581611b45565b9050919050565b6000602082019050818103600083015261218581611b85565b9050919050565b600060208201905081810360008301526121a581611beb565b9050919050565b600060208201905081810360008301526121c581611c2b565b9050919050565b600060208201905081810360008301526121e581611c91565b9050919050565b6000602082019050818103600083015261220581611cf7565b9050919050565b6000602082019050818103600083015261222581611d5d565b9050919050565b6000602082019050818103600083015261224581611dc3565b9050919050565b6000602082019050818103600083015261226581611e03565b9050919050565b6000602082019050818103600083015261228581611e69565b9050919050565b600060208201905081810360008301526122a581611ecf565b9050919050565b600060208201905081810360008301526122c581611f35565b9050919050565b600060208201905081810360008301526122e581611f9b565b9050919050565b60006020820190506123016000830184612001565b92915050565b6000604051905081810181811067ffffffffffffffff8211171561232e5761232d612683565b5b8060405250919050565b600067ffffffffffffffff82111561235357612352612683565b5b601f19601f8301169050602081019050919050565b600081519050919050565b600081519050919050565b600082825260208201905092915050565b600082825260208201905092915050565b600081905092915050565b60006123b6826124d0565b91506123c1836124d0565b9250827fffffffffffffffffffffffffffffffffffffffffffffffffffffffffffffffff038211156123f6576123f56125f6565b5b828201905092915050565b600061240c826124d0565b9150612417836124d0565b92508261242757612426612625565b5b828204905092915050565b600061243d826124d0565b9150612448836124d0565b92508282101561245b5761245a6125f6565b5b828203905092915050565b6000612471826124b0565b9050919050565b60008115159050919050565b60007fffffffff0000000000000000000000000000000000000000000000000000000082169050919050565b600073ffffffffffffffffffffffffffffffffffffffff82169050919050565b6000819050919050565b82818337600083830152505050565b60005b838110156125075780820151818401526020810190506124ec565b83811115612516576000848401525b50505050565b6000600282049050600182168061253457607f821691505b6020821081141561254857612547612654565b5b50919050565b6000612559826124d0565b91507fffffffffffffffffffffffffffffffffffffffffffffffffffffffffffffffff82141561258c5761258b6125f6565b5b600182019050919050565b60006125a2826125a9565b9050919050565b60006125b4826126c3565b9050919050565b6000819050919050565b60006125d0826124d0565b91506125db836124d0565b9250826125eb576125ea612625565b5b828206905092915050565b7f4e487b7100000000000000000000000000000000000000000000000000000000600052601160045260246000fd5b7f4e487b7100000000000000000000000000000000000000000000000000000000600052601260045260246000fd5b7f4e487b7100000000000000000000000000000000000000000000000000000000600052602260045260246000fd5b7f4e487b7100000000000000000000000000000000000000000000000000000000600052604160045260246000fd5b6000601f19601f8301169050919050565b60008160601b9050919050565b6126d981612466565b81146126e457600080fd5b50565b6126f081612478565b81146126fb57600080fd5b50565b61270781612484565b811461271257600080fd5b50565b61271e816124d0565b811461272957600080fd5b5056fea2646970667358221220f34efb0bac35f2ef4e33306f563a6e977676ff94db8565859b9906aba1c9b5ec64736f6c63430008000033",
  "immutableReferences": {},
  "source": "// SPDX-License-Identifier: MIT\npragma solidity ^0.8.0;\n\nimport \"@openzeppelin/contracts/token/ERC721/ERC721.sol\";\n\ncontract Ticket is ERC721 {\n    // Mapping from ticket holder to ticket QR code\n    mapping(uint256 => bytes32) private _tokenIdQRcodeMapping;\n\n    // Number of ticket are minted\n    uint256 private _ticketCount = 0;\n\n    // Metadata base url\n    string private _theBaseURI;\n    constructor(string memory __theBaseURI) ERC721(\"Ticket\", \"Ticket\") {\n        _theBaseURI = __theBaseURI;\n    }\n\n    // function _baseURI() internal override view returns (string memory) {\n    //     return _theBaseURI;\n    // }\n\n    // getter\n    function getQRcode(uint256 _tokenId) internal view returns (bytes32) {\n        return _tokenIdQRcodeMapping[_tokenId];\n    }\n\n    function getTicketCount() public view returns (uint256) {\n        return _ticketCount;\n    }\n\n    /**\n     * @dev renew QRcode with token id and new address\n     * Requirements:\n     *\n     * - `tokenId` must not exist.\n     * - If `to` refers to a smart contract, it must implement {IERC721Receiver-onERC721Received}, which is called upon a safe transfer.\n     *\n     */\n\n    function renewQRcode(uint256 _tokenId, address _newTicketHolder) internal {\n        require(\n            _tokenIdQRcodeMapping[_tokenId] != bytes32(0),\n            \"token need to exist\"\n        );\n        require(\n            _newTicketHolder != address(0),\n            \"newTicketHolder need to be no null\"\n        );\n        require(\n            msg.sender == ownerOf(_tokenId),\n            \"msg.sender need to be holder to change QRcode\"\n        );\n        _tokenIdQRcodeMapping[_tokenId] = keccak256(\n            abi.encodePacked(block.timestamp, _newTicketHolder, _ticketCount)\n        );\n    }\n\n    /**\n     * @dev mint ticket with no args\n     * Requirements:\n     *\n     * - `tokenId` must not exist.\n     * - If `to` refers to a smart contract, it must implement {IERC721Receiver-onERC721Received}, which is called upon a safe transfer.\n     *\n     */\n    function mint() public {\n        _safeMint(msg.sender, _ticketCount);\n        // add qrcode\n        _tokenIdQRcodeMapping[_ticketCount] = keccak256(\n            abi.encodePacked(block.timestamp, msg.sender, _ticketCount)\n        );\n        _ticketCount += 1;\n    }\n}\n\ncontract TicketTest  is Ticket(\"http://localhost:3000/api/v1\")  {\n    function renewQRcode_(uint256 _tokenId, address _newTicketHolder) external {\n        renewQRcode(_tokenId, _newTicketHolder);\n    }\n\n    function mint_() external {\n        mint();\n    }\n\n    function getQRcode_(uint256 _tokenId) external view returns (bytes32) {\n        return getQRcode(_tokenId);\n    }\n}\n",
  "sourcePath": "/Users/yiulapsang/Desktop/workspace/blockchain/ticket/contracts/Ticket.sol",
  "compiler": {
    "name": "solc",
    "version": "0.8.0+commit.c7dfd78e.Emscripten.clang"
  },
  "schemaVersion": "3.4.1",
  "updatedAt": "2021-05-09T15:35:08.806Z",
  "networkType": "ethereum",
  "devdoc": {
    "kind": "dev",
    "methods": {
      "approve(address,uint256)": {
        "details": "See {IERC721-approve}."
      },
      "balanceOf(address)": {
        "details": "See {IERC721-balanceOf}."
      },
      "getApproved(uint256)": {
        "details": "See {IERC721-getApproved}."
      },
      "isApprovedForAll(address,address)": {
        "details": "See {IERC721-isApprovedForAll}."
      },
      "mint()": {
        "details": "mint ticket with no args Requirements: - `tokenId` must not exist. - If `to` refers to a smart contract, it must implement {IERC721Receiver-onERC721Received}, which is called upon a safe transfer."
      },
      "name()": {
        "details": "See {IERC721Metadata-name}."
      },
      "ownerOf(uint256)": {
        "details": "See {IERC721-ownerOf}."
      },
      "safeTransferFrom(address,address,uint256)": {
        "details": "See {IERC721-safeTransferFrom}."
      },
      "safeTransferFrom(address,address,uint256,bytes)": {
        "details": "See {IERC721-safeTransferFrom}."
      },
      "setApprovalForAll(address,bool)": {
        "details": "See {IERC721-setApprovalForAll}."
      },
      "supportsInterface(bytes4)": {
        "details": "See {IERC165-supportsInterface}."
      },
      "symbol()": {
        "details": "See {IERC721Metadata-symbol}."
      },
      "tokenURI(uint256)": {
        "details": "See {IERC721Metadata-tokenURI}."
      },
      "transferFrom(address,address,uint256)": {
        "details": "See {IERC721-transferFrom}."
      }
    },
    "version": 1
  },
  "userdoc": {
    "kind": "user",
    "methods": {},
    "version": 1
  }
}