{
  "contractName": "TicketTest",
  "abi": [
    {
      "anonymous": false,
      "inputs": [
        {
          "indexed": true,
          "internalType": "address",
          "name": "owner",
          "type": "address"
        },
        {
          "indexed": true,
          "internalType": "address",
          "name": "approved",
          "type": "address"
        },
        {
          "indexed": true,
          "internalType": "uint256",
          "name": "tokenId",
          "type": "uint256"
        }
      ],
      "name": "Approval",
      "type": "event"
    },
    {
      "anonymous": false,
      "inputs": [
        {
          "indexed": true,
          "internalType": "address",
          "name": "owner",
          "type": "address"
        },
        {
          "indexed": true,
          "internalType": "address",
          "name": "operator",
          "type": "address"
        },
        {
          "indexed": false,
          "internalType": "bool",
          "name": "approved",
          "type": "bool"
        }
      ],
      "name": "ApprovalForAll",
      "type": "event"
    },
    {
      "anonymous": false,
      "inputs": [
        {
          "indexed": true,
          "internalType": "address",
          "name": "from",
          "type": "address"
        },
        {
          "indexed": true,
          "internalType": "address",
          "name": "to",
          "type": "address"
        },
        {
          "indexed": true,
          "internalType": "uint256",
          "name": "tokenId",
          "type": "uint256"
        }
      ],
      "name": "Transfer",
      "type": "event"
    },
    {
      "inputs": [
        {
          "internalType": "address",
          "name": "to",
          "type": "address"
        },
        {
          "internalType": "uint256",
          "name": "tokenId",
          "type": "uint256"
        }
      ],
      "name": "approve",
      "outputs": [],
      "stateMutability": "nonpayable",
      "type": "function"
    },
    {
      "inputs": [
        {
          "internalType": "address",
          "name": "owner",
          "type": "address"
        }
      ],
      "name": "balanceOf",
      "outputs": [
        {
          "internalType": "uint256",
          "name": "",
          "type": "uint256"
        }
      ],
      "stateMutability": "view",
      "type": "function"
    },
    {
      "inputs": [
        {
          "internalType": "uint256",
          "name": "tokenId",
          "type": "uint256"
        }
      ],
      "name": "getApproved",
      "outputs": [
        {
          "internalType": "address",
          "name": "",
          "type": "address"
        }
      ],
      "stateMutability": "view",
      "type": "function"
    },
    {
      "inputs": [],
      "name": "getTicketCount",
      "outputs": [
        {
          "internalType": "uint256",
          "name": "",
          "type": "uint256"
        }
      ],
      "stateMutability": "view",
      "type": "function"
    },
    {
      "inputs": [
        {
          "internalType": "address",
          "name": "owner",
          "type": "address"
        },
        {
          "internalType": "address",
          "name": "operator",
          "type": "address"
        }
      ],
      "name": "isApprovedForAll",
      "outputs": [
        {
          "internalType": "bool",
          "name": "",
          "type": "bool"
        }
      ],
      "stateMutability": "view",
      "type": "function"
    },
    {
      "inputs": [],
      "name": "mint",
      "outputs": [],
      "stateMutability": "nonpayable",
      "type": "function"
    },
    {
      "inputs": [],
      "name": "name",
      "outputs": [
        {
          "internalType": "string",
          "name": "",
          "type": "string"
        }
      ],
      "stateMutability": "view",
      "type": "function"
    },
    {
      "inputs": [
        {
          "internalType": "uint256",
          "name": "tokenId",
          "type": "uint256"
        }
      ],
      "name": "ownerOf",
      "outputs": [
        {
          "internalType": "address",
          "name": "",
          "type": "address"
        }
      ],
      "stateMutability": "view",
      "type": "function"
    },
    {
      "inputs": [
        {
          "internalType": "address",
          "name": "from",
          "type": "address"
        },
        {
          "internalType": "address",
          "name": "to",
          "type": "address"
        },
        {
          "internalType": "uint256",
          "name": "tokenId",
          "type": "uint256"
        }
      ],
      "name": "safeTransferFrom",
      "outputs": [],
      "stateMutability": "nonpayable",
      "type": "function"
    },
    {
      "inputs": [
        {
          "internalType": "address",
          "name": "from",
          "type": "address"
        },
        {
          "internalType": "address",
          "name": "to",
          "type": "address"
        },
        {
          "internalType": "uint256",
          "name": "tokenId",
          "type": "uint256"
        },
        {
          "internalType": "bytes",
          "name": "_data",
          "type": "bytes"
        }
      ],
      "name": "safeTransferFrom",
      "outputs": [],
      "stateMutability": "nonpayable",
      "type": "function"
    },
    {
      "inputs": [
        {
          "internalType": "address",
          "name": "operator",
          "type": "address"
        },
        {
          "internalType": "bool",
          "name": "approved",
          "type": "bool"
        }
      ],
      "name": "setApprovalForAll",
      "outputs": [],
      "stateMutability": "nonpayable",
      "type": "function"
    },
    {
      "inputs": [
        {
          "internalType": "bytes4",
          "name": "interfaceId",
          "type": "bytes4"
        }
      ],
      "name": "supportsInterface",
      "outputs": [
        {
          "internalType": "bool",
          "name": "",
          "type": "bool"
        }
      ],
      "stateMutability": "view",
      "type": "function"
    },
    {
      "inputs": [],
      "name": "symbol",
      "outputs": [
        {
          "internalType": "string",
          "name": "",
          "type": "string"
        }
      ],
      "stateMutability": "view",
      "type": "function"
    },
    {
      "inputs": [
        {
          "internalType": "uint256",
          "name": "tokenId",
          "type": "uint256"
        }
      ],
      "name": "tokenURI",
      "outputs": [
        {
          "internalType": "string",
          "name": "",
          "type": "string"
        }
      ],
      "stateMutability": "view",
      "type": "function"
    },
    {
      "inputs": [
        {
          "internalType": "address",
          "name": "from",
          "type": "address"
        },
        {
          "internalType": "address",
          "name": "to",
          "type": "address"
        },
        {
          "internalType": "uint256",
          "name": "tokenId",
          "type": "uint256"
        }
      ],
      "name": "transferFrom",
      "outputs": [],
      "stateMutability": "nonpayable",
      "type": "function"
    },
    {
      "inputs": [
        {
          "internalType": "uint256",
          "name": "_tokenId",
          "type": "uint256"
        },
        {
          "internalType": "address",
          "name": "_newTicketHolder",
          "type": "address"
        }
      ],
      "name": "renewQRcode_",
      "outputs": [],
      "stateMutability": "nonpayable",
      "type": "function"
    },
    {
      "inputs": [],
      "name": "mint_",
      "outputs": [],
      "stateMutability": "nonpayable",
      "type": "function"
    },
    {
      "inputs": [
        {
          "internalType": "uint256",
          "name": "_tokenId",
          "type": "uint256"
        }
      ],
      "name": "getQRcode_",
      "outputs": [
        {
          "internalType": "bytes32",
          "name": "",
          "type": "bytes32"
        }
      ],
      "stateMutability": "view",
      "type": "function"
    }
  ],
  "bytecode": "0x608060405260006007553480156200001657600080fd5b506040518060400160405280601c81526020017f687474703a2f2f6c6f63616c686f73743a333030302f6170692f7631000000008152506040518060400160405280600681526020017f5469636b657400000000000000000000000000000000000000000000000000008152506040518060400160405280600681526020017f5469636b657400000000000000000000000000000000000000000000000000008152508160009080519060200190620000d19291906200010d565b508060019080519060200190620000ea9291906200010d565b5050508060089080519060200190620001059291906200010d565b505062000222565b8280546200011b90620001bd565b90600052602060002090601f0160209004810192826200013f57600085556200018b565b82601f106200015a57805160ff19168380011785556200018b565b828001600101855582156200018b579182015b828111156200018a5782518255916020019190600101906200016d565b5b5090506200019a91906200019e565b5090565b5b80821115620001b95760008160009055506001016200019f565b5090565b60006002820490506001821680620001d657607f821691505b60208210811415620001ed57620001ec620001f3565b5b50919050565b7f4e487b7100000000000000000000000000000000000000000000000000000000600052602260045260246000fd5b612b8380620002326000396000f3fe608060405234801561001057600080fd5b50600436106101165760003560e01c806370a08231116100a2578063c87b56dd11610071578063c87b56dd146102cb578063cdd90327146102fb578063e985e9c51461032b578063f60aecd41461035b578063fea475891461037757610116565b806370a082311461024557806395d89b4114610275578063a22cb46514610293578063b88d4fde146102af57610116565b80631249c58b116100e95780631249c58b146101b557806321c63a47146101bf57806323b872dd146101dd57806342842e0e146101f95780636352211e1461021557610116565b806301ffc9a71461011b57806306fdde031461014b578063081812fc14610169578063095ea7b314610199575b600080fd5b61013560048036038101906101309190611bd1565b610381565b604051610142919061248b565b60405180910390f35b610153610463565b60405161016091906124c1565b60405180910390f35b610183600480360381019061017e9190611c23565b6104f5565b6040516101909190612424565b60405180910390f35b6101b360048036038101906101ae9190611b95565b61057a565b005b6101bd610692565b005b6101c7610700565b6040516101d49190612703565b60405180910390f35b6101f760048036038101906101f29190611a8f565b61070a565b005b610213600480360381019061020e9190611a8f565b61076a565b005b61022f600480360381019061022a9190611c23565b61078a565b60405161023c9190612424565b60405180910390f35b61025f600480360381019061025a9190611a2a565b61083c565b60405161026c9190612703565b60405180910390f35b61027d6108f4565b60405161028a91906124c1565b60405180910390f35b6102ad60048036038101906102a89190611b59565b610986565b005b6102c960048036038101906102c49190611ade565b610b07565b005b6102e560048036038101906102e09190611c23565b610b69565b6040516102f291906124c1565b60405180910390f35b61031560048036038101906103109190611c23565b610c10565b60405161032291906124a6565b60405180910390f35b61034560048036038101906103409190611a53565b610c22565b604051610352919061248b565b60405180910390f35b61037560048036038101906103709190611c4c565b610cb6565b005b61037f610cc4565b005b60007f80ac58cd000000000000000000000000000000000000000000000000000000007bffffffffffffffffffffffffffffffffffffffffffffffffffffffff1916827bffffffffffffffffffffffffffffffffffffffffffffffffffffffff1916148061044c57507f5b5e139f000000000000000000000000000000000000000000000000000000007bffffffffffffffffffffffffffffffffffffffffffffffffffffffff1916827bffffffffffffffffffffffffffffffffffffffffffffffffffffffff1916145b8061045c575061045b82610cce565b5b9050919050565b6060600080546104729061293d565b80601f016020809104026020016040519081016040528092919081815260200182805461049e9061293d565b80156104eb5780601f106104c0576101008083540402835291602001916104eb565b820191906000526020600020905b8154815290600101906020018083116104ce57829003601f168201915b5050505050905090565b600061050082610d38565b61053f576040517f08c379a000000000000000000000000000000000000000000000000000000000815260040161053690612623565b60405180910390fd5b6004600083815260200190815260200160002060009054906101000a900473ffffffffffffffffffffffffffffffffffffffff169050919050565b60006105858261078a565b90508073ffffffffffffffffffffffffffffffffffffffff168373ffffffffffffffffffffffffffffffffffffffff1614156105f6576040517f08c379a00000000000000000000000000000000000000000000000000000000081526004016105ed906126a3565b60405180910390fd5b8073ffffffffffffffffffffffffffffffffffffffff16610615610da4565b73ffffffffffffffffffffffffffffffffffffffff16148061064457506106438161063e610da4565b610c22565b5b610683576040517f08c379a000000000000000000000000000000000000000000000000000000000815260040161067a906125a3565b60405180910390fd5b61068d8383610dac565b505050565b61069e33600754610e65565b42336007546040516020016106b5939291906123e7565b60405160208183030381529060405280519060200120600660006007548152602001908152602001600020819055506001600760008282546106f791906127c2565b92505081905550565b6000600754905090565b61071b610715610da4565b82610e83565b61075a576040517f08c379a0000000000000000000000000000000000000000000000000000000008152600401610751906126c3565b60405180910390fd5b610765838383610f61565b505050565b61078583838360405180602001604052806000815250610b07565b505050565b6000806002600084815260200190815260200160002060009054906101000a900473ffffffffffffffffffffffffffffffffffffffff169050600073ffffffffffffffffffffffffffffffffffffffff168173ffffffffffffffffffffffffffffffffffffffff161415610833576040517f08c379a000000000000000000000000000000000000000000000000000000000815260040161082a906125e3565b60405180910390fd5b80915050919050565b60008073ffffffffffffffffffffffffffffffffffffffff168273ffffffffffffffffffffffffffffffffffffffff1614156108ad576040517f08c379a00000000000000000000000000000000000000000000000000000000081526004016108a4906125c3565b60405180910390fd5b600360008373ffffffffffffffffffffffffffffffffffffffff1673ffffffffffffffffffffffffffffffffffffffff168152602001908152602001600020549050919050565b6060600180546109039061293d565b80601f016020809104026020016040519081016040528092919081815260200182805461092f9061293d565b801561097c5780601f106109515761010080835404028352916020019161097c565b820191906000526020600020905b81548152906001019060200180831161095f57829003601f168201915b5050505050905090565b61098e610da4565b73ffffffffffffffffffffffffffffffffffffffff168273ffffffffffffffffffffffffffffffffffffffff1614156109fc576040517f08c379a00000000000000000000000000000000000000000000000000000000081526004016109f390612543565b60405180910390fd5b8060056000610a09610da4565b73ffffffffffffffffffffffffffffffffffffffff1673ffffffffffffffffffffffffffffffffffffffff16815260200190815260200160002060008473ffffffffffffffffffffffffffffffffffffffff1673ffffffffffffffffffffffffffffffffffffffff16815260200190815260200160002060006101000a81548160ff0219169083151502179055508173ffffffffffffffffffffffffffffffffffffffff16610ab6610da4565b73ffffffffffffffffffffffffffffffffffffffff167f17307eab39ab6107e8899845ad3d59bd9653f200f220920489ca2b5937696c3183604051610afb919061248b565b60405180910390a35050565b610b18610b12610da4565b83610e83565b610b57576040517f08c379a0000000000000000000000000000000000000000000000000000000008152600401610b4e906126c3565b60405180910390fd5b610b63848484846111bd565b50505050565b6060610b7482610d38565b610bb3576040517f08c379a0000000000000000000000000000000000000000000000000000000008152600401610baa90612683565b60405180910390fd5b6000610bbd611219565b90506000815111610bdd5760405180602001604052806000815250610c08565b80610be784611230565b604051602001610bf89291906123c3565b6040516020818303038152906040525b915050919050565b6000610c1b826113dd565b9050919050565b6000600560008473ffffffffffffffffffffffffffffffffffffffff1673ffffffffffffffffffffffffffffffffffffffff16815260200190815260200160002060008373ffffffffffffffffffffffffffffffffffffffff1673ffffffffffffffffffffffffffffffffffffffff16815260200190815260200160002060009054906101000a900460ff16905092915050565b610cc082826113fa565b5050565b610ccc610692565b565b60007f01ffc9a7000000000000000000000000000000000000000000000000000000007bffffffffffffffffffffffffffffffffffffffffffffffffffffffff1916827bffffffffffffffffffffffffffffffffffffffffffffffffffffffff1916149050919050565b60008073ffffffffffffffffffffffffffffffffffffffff166002600084815260200190815260200160002060009054906101000a900473ffffffffffffffffffffffffffffffffffffffff1673ffffffffffffffffffffffffffffffffffffffff1614159050919050565b600033905090565b816004600083815260200190815260200160002060006101000a81548173ffffffffffffffffffffffffffffffffffffffff021916908373ffffffffffffffffffffffffffffffffffffffff160217905550808273ffffffffffffffffffffffffffffffffffffffff16610e1f8361078a565b73ffffffffffffffffffffffffffffffffffffffff167f8c5be1e5ebec7d5bd14f71427d1e84f3dd0314c0f7b2291e5b200ac8c7c3b92560405160405180910390a45050565b610e7f828260405180602001604052806000815250611581565b5050565b6000610e8e82610d38565b610ecd576040517f08c379a0000000000000000000000000000000000000000000000000000000008152600401610ec490612583565b60405180910390fd5b6000610ed88361078a565b90508073ffffffffffffffffffffffffffffffffffffffff168473ffffffffffffffffffffffffffffffffffffffff161480610f4757508373ffffffffffffffffffffffffffffffffffffffff16610f2f846104f5565b73ffffffffffffffffffffffffffffffffffffffff16145b80610f585750610f578185610c22565b5b91505092915050565b8273ffffffffffffffffffffffffffffffffffffffff16610f818261078a565b73ffffffffffffffffffffffffffffffffffffffff1614610fd7576040517f08c379a0000000000000000000000000000000000000000000000000000000008152600401610fce90612663565b60405180910390fd5b600073ffffffffffffffffffffffffffffffffffffffff168273ffffffffffffffffffffffffffffffffffffffff161415611047576040517f08c379a000000000000000000000000000000000000000000000000000000000815260040161103e90612523565b60405180910390fd5b6110528383836115dc565b61105d600082610dac565b6001600360008573ffffffffffffffffffffffffffffffffffffffff1673ffffffffffffffffffffffffffffffffffffffff16815260200190815260200160002060008282546110ad9190612849565b925050819055506001600360008473ffffffffffffffffffffffffffffffffffffffff1673ffffffffffffffffffffffffffffffffffffffff168152602001908152602001600020600082825461110491906127c2565b92505081905550816002600083815260200190815260200160002060006101000a81548173ffffffffffffffffffffffffffffffffffffffff021916908373ffffffffffffffffffffffffffffffffffffffff160217905550808273ffffffffffffffffffffffffffffffffffffffff168473ffffffffffffffffffffffffffffffffffffffff167fddf252ad1be2c89b69c2b068fc378daa952ba7f163c4a11628f55a4df523b3ef60405160405180910390a4505050565b6111c8848484610f61565b6111d4848484846115e1565b611213576040517f08c379a000000000000000000000000000000000000000000000000000000000815260040161120a906124e3565b60405180910390fd5b50505050565b606060405180602001604052806000815250905090565b60606000821415611278576040518060400160405280600181526020017f300000000000000000000000000000000000000000000000000000000000000081525090506113d8565b600082905060005b600082146112aa5780806112939061296f565b915050600a826112a39190612818565b9150611280565b60008167ffffffffffffffff8111156112ec577f4e487b7100000000000000000000000000000000000000000000000000000000600052604160045260246000fd5b6040519080825280601f01601f19166020018201604052801561131e5781602001600182028036833780820191505090505b5090505b600085146113d1576001826113379190612849565b9150600a8561134691906129e6565b603061135291906127c2565b60f81b81838151811061138e577f4e487b7100000000000000000000000000000000000000000000000000000000600052603260045260246000fd5b60200101907effffffffffffffffffffffffffffffffffffffffffffffffffffffffffffff1916908160001a905350600a856113ca9190612818565b9450611322565b8093505050505b919050565b600060066000838152602001908152602001600020549050919050565b6000801b60066000848152602001908152602001600020541415611453576040517f08c379a000000000000000000000000000000000000000000000000000000000815260040161144a90612643565b60405180910390fd5b600073ffffffffffffffffffffffffffffffffffffffff168173ffffffffffffffffffffffffffffffffffffffff1614156114c3576040517f08c379a00000000000000000000000000000000000000000000000000000000081526004016114ba90612563565b60405180910390fd5b6114cc8261078a565b73ffffffffffffffffffffffffffffffffffffffff163373ffffffffffffffffffffffffffffffffffffffff1614611539576040517f08c379a0000000000000000000000000000000000000000000000000000000008152600401611530906126e3565b60405180910390fd5b4281600754604051602001611550939291906123e7565b6040516020818303038152906040528051906020012060066000848152602001908152602001600020819055505050565b61158b8383611778565b61159860008484846115e1565b6115d7576040517f08c379a00000000000000000000000000000000000000000000000000000000081526004016115ce906124e3565b60405180910390fd5b505050565b505050565b60006116028473ffffffffffffffffffffffffffffffffffffffff16611946565b1561176b578373ffffffffffffffffffffffffffffffffffffffff1663150b7a0261162b610da4565b8786866040518563ffffffff1660e01b815260040161164d949392919061243f565b602060405180830381600087803b15801561166757600080fd5b505af192505050801561169857506040513d601f19601f820116820180604052508101906116959190611bfa565b60015b61171b573d80600081146116c8576040519150601f19603f3d011682016040523d82523d6000602084013e6116cd565b606091505b50600081511415611713576040517f08c379a000000000000000000000000000000000000000000000000000000000815260040161170a906124e3565b60405180910390fd5b805181602001fd5b63150b7a0260e01b7bffffffffffffffffffffffffffffffffffffffffffffffffffffffff1916817bffffffffffffffffffffffffffffffffffffffffffffffffffffffff191614915050611770565b600190505b949350505050565b600073ffffffffffffffffffffffffffffffffffffffff168273ffffffffffffffffffffffffffffffffffffffff1614156117e8576040517f08c379a00000000000000000000000000000000000000000000000000000000081526004016117df90612603565b60405180910390fd5b6117f181610d38565b15611831576040517f08c379a000000000000000000000000000000000000000000000000000000000815260040161182890612503565b60405180910390fd5b61183d600083836115dc565b6001600360008473ffffffffffffffffffffffffffffffffffffffff1673ffffffffffffffffffffffffffffffffffffffff168152602001908152602001600020600082825461188d91906127c2565b92505081905550816002600083815260200190815260200160002060006101000a81548173ffffffffffffffffffffffffffffffffffffffff021916908373ffffffffffffffffffffffffffffffffffffffff160217905550808273ffffffffffffffffffffffffffffffffffffffff16600073ffffffffffffffffffffffffffffffffffffffff167fddf252ad1be2c89b69c2b068fc378daa952ba7f163c4a11628f55a4df523b3ef60405160405180910390a45050565b600080823b905060008111915050919050565b600061196c6119678461274f565b61271e565b90508281526020810184848401111561198457600080fd5b61198f8482856128fb565b509392505050565b6000813590506119a681612af1565b92915050565b6000813590506119bb81612b08565b92915050565b6000813590506119d081612b1f565b92915050565b6000815190506119e581612b1f565b92915050565b600082601f8301126119fc57600080fd5b8135611a0c848260208601611959565b91505092915050565b600081359050611a2481612b36565b92915050565b600060208284031215611a3c57600080fd5b6000611a4a84828501611997565b91505092915050565b60008060408385031215611a6657600080fd5b6000611a7485828601611997565b9250506020611a8585828601611997565b9150509250929050565b600080600060608486031215611aa457600080fd5b6000611ab286828701611997565b9350506020611ac386828701611997565b9250506040611ad486828701611a15565b9150509250925092565b60008060008060808587031215611af457600080fd5b6000611b0287828801611997565b9450506020611b1387828801611997565b9350506040611b2487828801611a15565b925050606085013567ffffffffffffffff811115611b4157600080fd5b611b4d878288016119eb565b91505092959194509250565b60008060408385031215611b6c57600080fd5b6000611b7a85828601611997565b9250506020611b8b858286016119ac565b9150509250929050565b60008060408385031215611ba857600080fd5b6000611bb685828601611997565b9250506020611bc785828601611a15565b9150509250929050565b600060208284031215611be357600080fd5b6000611bf1848285016119c1565b91505092915050565b600060208284031215611c0c57600080fd5b6000611c1a848285016119d6565b91505092915050565b600060208284031215611c3557600080fd5b6000611c4384828501611a15565b91505092915050565b60008060408385031215611c5f57600080fd5b6000611c6d85828601611a15565b9250506020611c7e85828601611997565b9150509250929050565b611c918161287d565b82525050565b611ca8611ca38261287d565b6129b8565b82525050565b611cb78161288f565b82525050565b611cc68161289b565b82525050565b6000611cd78261277f565b611ce18185612795565b9350611cf181856020860161290a565b611cfa81612ad3565b840191505092915050565b6000611d108261278a565b611d1a81856127a6565b9350611d2a81856020860161290a565b611d3381612ad3565b840191505092915050565b6000611d498261278a565b611d5381856127b7565b9350611d6381856020860161290a565b80840191505092915050565b6000611d7c6032836127a6565b91507f4552433732313a207472616e7366657220746f206e6f6e20455243373231526560008301527f63656976657220696d706c656d656e74657200000000000000000000000000006020830152604082019050919050565b6000611de2601c836127a6565b91507f4552433732313a20746f6b656e20616c7265616479206d696e746564000000006000830152602082019050919050565b6000611e226024836127a6565b91507f4552433732313a207472616e7366657220746f20746865207a65726f2061646460008301527f72657373000000000000000000000000000000000000000000000000000000006020830152604082019050919050565b6000611e886019836127a6565b91507f4552433732313a20617070726f766520746f2063616c6c6572000000000000006000830152602082019050919050565b6000611ec86022836127a6565b91507f6e65775469636b6574486f6c646572206e65656420746f206265206e6f206e7560008301527f6c6c0000000000000000000000000000000000000000000000000000000000006020830152604082019050919050565b6000611f2e602c836127a6565b91507f4552433732313a206f70657261746f7220717565727920666f72206e6f6e657860008301527f697374656e7420746f6b656e00000000000000000000000000000000000000006020830152604082019050919050565b6000611f946038836127a6565b91507f4552433732313a20617070726f76652063616c6c6572206973206e6f74206f7760008301527f6e6572206e6f7220617070726f76656420666f7220616c6c00000000000000006020830152604082019050919050565b6000611ffa602a836127a6565b91507f4552433732313a2062616c616e636520717565727920666f7220746865207a6560008301527f726f2061646472657373000000000000000000000000000000000000000000006020830152604082019050919050565b60006120606029836127a6565b91507f4552433732313a206f776e657220717565727920666f72206e6f6e657869737460008301527f656e7420746f6b656e00000000000000000000000000000000000000000000006020830152604082019050919050565b60006120c66020836127a6565b91507f4552433732313a206d696e7420746f20746865207a65726f20616464726573736000830152602082019050919050565b6000612106602c836127a6565b91507f4552433732313a20617070726f76656420717565727920666f72206e6f6e657860008301527f697374656e7420746f6b656e00000000000000000000000000000000000000006020830152604082019050919050565b600061216c6013836127a6565b91507f746f6b656e206e65656420746f206578697374000000000000000000000000006000830152602082019050919050565b60006121ac6029836127a6565b91507f4552433732313a207472616e73666572206f6620746f6b656e2074686174206960008301527f73206e6f74206f776e00000000000000000000000000000000000000000000006020830152604082019050919050565b6000612212602f836127a6565b91507f4552433732314d657461646174613a2055524920717565727920666f72206e6f60008301527f6e6578697374656e7420746f6b656e00000000000000000000000000000000006020830152604082019050919050565b60006122786021836127a6565b91507f4552433732313a20617070726f76616c20746f2063757272656e74206f776e6560008301527f72000000000000000000000000000000000000000000000000000000000000006020830152604082019050919050565b60006122de6031836127a6565b91507f4552433732313a207472616e736665722063616c6c6572206973206e6f74206f60008301527f776e6572206e6f7220617070726f7665640000000000000000000000000000006020830152604082019050919050565b6000612344602d836127a6565b91507f6d73672e73656e646572206e65656420746f20626520686f6c64657220746f2060008301527f6368616e6765205152636f6465000000000000000000000000000000000000006020830152604082019050919050565b6123a6816128f1565b82525050565b6123bd6123b8826128f1565b6129dc565b82525050565b60006123cf8285611d3e565b91506123db8284611d3e565b91508190509392505050565b60006123f382866123ac565b6020820191506124038285611c97565b60148201915061241382846123ac565b602082019150819050949350505050565b60006020820190506124396000830184611c88565b92915050565b60006080820190506124546000830187611c88565b6124616020830186611c88565b61246e604083018561239d565b81810360608301526124808184611ccc565b905095945050505050565b60006020820190506124a06000830184611cae565b92915050565b60006020820190506124bb6000830184611cbd565b92915050565b600060208201905081810360008301526124db8184611d05565b905092915050565b600060208201905081810360008301526124fc81611d6f565b9050919050565b6000602082019050818103600083015261251c81611dd5565b9050919050565b6000602082019050818103600083015261253c81611e15565b9050919050565b6000602082019050818103600083015261255c81611e7b565b9050919050565b6000602082019050818103600083015261257c81611ebb565b9050919050565b6000602082019050818103600083015261259c81611f21565b9050919050565b600060208201905081810360008301526125bc81611f87565b9050919050565b600060208201905081810360008301526125dc81611fed565b9050919050565b600060208201905081810360008301526125fc81612053565b9050919050565b6000602082019050818103600083015261261c816120b9565b9050919050565b6000602082019050818103600083015261263c816120f9565b9050919050565b6000602082019050818103600083015261265c8161215f565b9050919050565b6000602082019050818103600083015261267c8161219f565b9050919050565b6000602082019050818103600083015261269c81612205565b9050919050565b600060208201905081810360008301526126bc8161226b565b9050919050565b600060208201905081810360008301526126dc816122d1565b9050919050565b600060208201905081810360008301526126fc81612337565b9050919050565b6000602082019050612718600083018461239d565b92915050565b6000604051905081810181811067ffffffffffffffff8211171561274557612744612aa4565b5b8060405250919050565b600067ffffffffffffffff82111561276a57612769612aa4565b5b601f19601f8301169050602081019050919050565b600081519050919050565b600081519050919050565b600082825260208201905092915050565b600082825260208201905092915050565b600081905092915050565b60006127cd826128f1565b91506127d8836128f1565b9250827fffffffffffffffffffffffffffffffffffffffffffffffffffffffffffffffff0382111561280d5761280c612a17565b5b828201905092915050565b6000612823826128f1565b915061282e836128f1565b92508261283e5761283d612a46565b5b828204905092915050565b6000612854826128f1565b915061285f836128f1565b92508282101561287257612871612a17565b5b828203905092915050565b6000612888826128d1565b9050919050565b60008115159050919050565b6000819050919050565b60007fffffffff0000000000000000000000000000000000000000000000000000000082169050919050565b600073ffffffffffffffffffffffffffffffffffffffff82169050919050565b6000819050919050565b82818337600083830152505050565b60005b8381101561292857808201518184015260208101905061290d565b83811115612937576000848401525b50505050565b6000600282049050600182168061295557607f821691505b6020821081141561296957612968612a75565b5b50919050565b600061297a826128f1565b91507fffffffffffffffffffffffffffffffffffffffffffffffffffffffffffffffff8214156129ad576129ac612a17565b5b600182019050919050565b60006129c3826129ca565b9050919050565b60006129d582612ae4565b9050919050565b6000819050919050565b60006129f1826128f1565b91506129fc836128f1565b925082612a0c57612a0b612a46565b5b828206905092915050565b7f4e487b7100000000000000000000000000000000000000000000000000000000600052601160045260246000fd5b7f4e487b7100000000000000000000000000000000000000000000000000000000600052601260045260246000fd5b7f4e487b7100000000000000000000000000000000000000000000000000000000600052602260045260246000fd5b7f4e487b7100000000000000000000000000000000000000000000000000000000600052604160045260246000fd5b6000601f19601f8301169050919050565b60008160601b9050919050565b612afa8161287d565b8114612b0557600080fd5b50565b612b118161288f565b8114612b1c57600080fd5b50565b612b28816128a5565b8114612b3357600080fd5b50565b612b3f816128f1565b8114612b4a57600080fd5b5056fea26469706673582212200b0a1dacb0cffd244b573c7e0812c3b5fa421b5304af7d59d70a6d2abedb61fa64736f6c63430008000033",
  "immutableReferences": {},
  "source": "// SPDX-License-Identifier: MIT\npragma solidity ^0.8.0;\n\nimport \"@openzeppelin/contracts/token/ERC721/ERC721.sol\";\n\ncontract Ticket is ERC721 {\n    // Mapping from ticket holder to ticket QR code\n    mapping(uint256 => bytes32) private _tokenIdQRcodeMapping;\n\n    // Number of ticket are minted\n    uint256 private _ticketCount = 0;\n\n    // Metadata base url\n    string private _theBaseURI;\n    constructor(string memory __theBaseURI) ERC721(\"Ticket\", \"Ticket\") {\n        _theBaseURI = __theBaseURI;\n    }\n\n    // function _baseURI() internal override view returns (string memory) {\n    //     return _theBaseURI;\n    // }\n\n    // getter\n    function getQRcode(uint256 _tokenId) internal view returns (bytes32) {\n        return _tokenIdQRcodeMapping[_tokenId];\n    }\n\n    function getTicketCount() public view returns (uint256) {\n        return _ticketCount;\n    }\n\n    /**\n     * @dev renew QRcode with token id and new address\n     * Requirements:\n     *\n     * - `tokenId` must not exist.\n     * - If `to` refers to a smart contract, it must implement {IERC721Receiver-onERC721Received}, which is called upon a safe transfer.\n     *\n     */\n\n    function renewQRcode(uint256 _tokenId, address _newTicketHolder) internal {\n        require(\n            _tokenIdQRcodeMapping[_tokenId] != bytes32(0),\n            \"token need to exist\"\n        );\n        require(\n            _newTicketHolder != address(0),\n            \"newTicketHolder need to be no null\"\n        );\n        require(\n            msg.sender == ownerOf(_tokenId),\n            \"msg.sender need to be holder to change QRcode\"\n        );\n        _tokenIdQRcodeMapping[_tokenId] = keccak256(\n            abi.encodePacked(block.timestamp, _newTicketHolder, _ticketCount)\n        );\n    }\n\n    /**\n     * @dev mint ticket with no args\n     * Requirements:\n     *\n     * - `tokenId` must not exist.\n     * - If `to` refers to a smart contract, it must implement {IERC721Receiver-onERC721Received}, which is called upon a safe transfer.\n     *\n     */\n    function mint() public {\n        _safeMint(msg.sender, _ticketCount);\n        // add qrcode\n        _tokenIdQRcodeMapping[_ticketCount] = keccak256(\n            abi.encodePacked(block.timestamp, msg.sender, _ticketCount)\n        );\n        _ticketCount += 1;\n    }\n}\n\ncontract TicketTest  is Ticket(\"http://localhost:3000/api/v1\")  {\n    function renewQRcode_(uint256 _tokenId, address _newTicketHolder) external {\n        renewQRcode(_tokenId, _newTicketHolder);\n    }\n\n    function mint_() external {\n        mint();\n    }\n\n    function getQRcode_(uint256 _tokenId) external view returns (bytes32) {\n        return getQRcode(_tokenId);\n    }\n}\n",
  "sourcePath": "/Users/yiulapsang/Desktop/workspace/blockchain/ticket/contracts/Ticket.sol",
  "compiler": {
    "name": "solc",
    "version": "0.8.0+commit.c7dfd78e.Emscripten.clang"
  },
  "schemaVersion": "3.4.1",
  "updatedAt": "2021-05-09T15:27:16.928Z",
  "devdoc": {
    "kind": "dev",
    "methods": {
      "approve(address,uint256)": {
        "details": "See {IERC721-approve}."
      },
      "balanceOf(address)": {
        "details": "See {IERC721-balanceOf}."
      },
      "getApproved(uint256)": {
        "details": "See {IERC721-getApproved}."
      },
      "isApprovedForAll(address,address)": {
        "details": "See {IERC721-isApprovedForAll}."
      },
      "mint()": {
        "details": "mint ticket with no args Requirements: - `tokenId` must not exist. - If `to` refers to a smart contract, it must implement {IERC721Receiver-onERC721Received}, which is called upon a safe transfer."
      },
      "name()": {
        "details": "See {IERC721Metadata-name}."
      },
      "ownerOf(uint256)": {
        "details": "See {IERC721-ownerOf}."
      },
      "safeTransferFrom(address,address,uint256)": {
        "details": "See {IERC721-safeTransferFrom}."
      },
      "safeTransferFrom(address,address,uint256,bytes)": {
        "details": "See {IERC721-safeTransferFrom}."
      },
      "setApprovalForAll(address,bool)": {
        "details": "See {IERC721-setApprovalForAll}."
      },
      "supportsInterface(bytes4)": {
        "details": "See {IERC165-supportsInterface}."
      },
      "symbol()": {
        "details": "See {IERC721Metadata-symbol}."
      },
      "tokenURI(uint256)": {
        "details": "See {IERC721Metadata-tokenURI}."
      },
      "transferFrom(address,address,uint256)": {
        "details": "See {IERC721-transferFrom}."
      }
    },
    "version": 1
  },
  "userdoc": {
    "kind": "user",
    "methods": {},
    "version": 1
  }
}